{
  "_format": "hh-sol-artifact-1",
  "contractName": "TheForge_Anvil",
  "sourceName": "contracts/AnvilTheForge.sol",
  "abi": [
    {
      "inputs": [],
      "stateMutability": "nonpayable",
      "type": "constructor"
    },
    {
      "anonymous": false,
      "inputs": [
        {
          "indexed": true,
          "internalType": "address",
          "name": "owner",
          "type": "address"
        },
        {
          "indexed": true,
          "internalType": "address",
          "name": "approved",
          "type": "address"
        },
        {
          "indexed": true,
          "internalType": "uint256",
          "name": "tokenId",
          "type": "uint256"
        }
      ],
      "name": "Approval",
      "type": "event"
    },
    {
      "anonymous": false,
      "inputs": [
        {
          "indexed": true,
          "internalType": "address",
          "name": "owner",
          "type": "address"
        },
        {
          "indexed": true,
          "internalType": "address",
          "name": "operator",
          "type": "address"
        },
        {
          "indexed": false,
          "internalType": "bool",
          "name": "approved",
          "type": "bool"
        }
      ],
      "name": "ApprovalForAll",
      "type": "event"
    },
    {
      "anonymous": false,
      "inputs": [
        {
          "indexed": false,
          "internalType": "address",
          "name": "account",
          "type": "address"
        }
      ],
      "name": "Paused",
      "type": "event"
    },
    {
      "anonymous": false,
      "inputs": [
        {
          "indexed": true,
          "internalType": "bytes32",
          "name": "role",
          "type": "bytes32"
        },
        {
          "indexed": true,
          "internalType": "bytes32",
          "name": "previousAdminRole",
          "type": "bytes32"
        },
        {
          "indexed": true,
          "internalType": "bytes32",
          "name": "newAdminRole",
          "type": "bytes32"
        }
      ],
      "name": "RoleAdminChanged",
      "type": "event"
    },
    {
      "anonymous": false,
      "inputs": [
        {
          "indexed": true,
          "internalType": "bytes32",
          "name": "role",
          "type": "bytes32"
        },
        {
          "indexed": true,
          "internalType": "address",
          "name": "account",
          "type": "address"
        },
        {
          "indexed": true,
          "internalType": "address",
          "name": "sender",
          "type": "address"
        }
      ],
      "name": "RoleGranted",
      "type": "event"
    },
    {
      "anonymous": false,
      "inputs": [
        {
          "indexed": true,
          "internalType": "bytes32",
          "name": "role",
          "type": "bytes32"
        },
        {
          "indexed": true,
          "internalType": "address",
          "name": "account",
          "type": "address"
        },
        {
          "indexed": true,
          "internalType": "address",
          "name": "sender",
          "type": "address"
        }
      ],
      "name": "RoleRevoked",
      "type": "event"
    },
    {
      "anonymous": false,
      "inputs": [
        {
          "indexed": true,
          "internalType": "address",
          "name": "from",
          "type": "address"
        },
        {
          "indexed": true,
          "internalType": "address",
          "name": "to",
          "type": "address"
        },
        {
          "indexed": true,
          "internalType": "uint256",
          "name": "tokenId",
          "type": "uint256"
        }
      ],
      "name": "Transfer",
      "type": "event"
    },
    {
      "anonymous": false,
      "inputs": [
        {
          "indexed": false,
          "internalType": "address",
          "name": "account",
          "type": "address"
        }
      ],
      "name": "Unpaused",
      "type": "event"
    },
    {
      "inputs": [],
      "name": "BURNER_ROLE",
      "outputs": [
        {
          "internalType": "bytes32",
          "name": "",
          "type": "bytes32"
        }
      ],
      "stateMutability": "view",
      "type": "function"
    },
    {
      "inputs": [],
      "name": "DEFAULT_ADMIN_ROLE",
      "outputs": [
        {
          "internalType": "bytes32",
          "name": "",
          "type": "bytes32"
        }
      ],
      "stateMutability": "view",
      "type": "function"
    },
    {
      "inputs": [],
      "name": "MINTER_ROLE",
      "outputs": [
        {
          "internalType": "bytes32",
          "name": "",
          "type": "bytes32"
        }
      ],
      "stateMutability": "view",
      "type": "function"
    },
    {
      "inputs": [],
      "name": "PAUSER_ROLE",
      "outputs": [
        {
          "internalType": "bytes32",
          "name": "",
          "type": "bytes32"
        }
      ],
      "stateMutability": "view",
      "type": "function"
    },
    {
      "inputs": [
        {
          "internalType": "address",
          "name": "to",
          "type": "address"
        },
        {
          "internalType": "uint256",
          "name": "tokenId",
          "type": "uint256"
        }
      ],
      "name": "approve",
      "outputs": [],
      "stateMutability": "nonpayable",
      "type": "function"
    },
    {
      "inputs": [
        {
          "internalType": "address",
          "name": "owner",
          "type": "address"
        }
      ],
      "name": "balanceOf",
      "outputs": [
        {
          "internalType": "uint256",
          "name": "",
          "type": "uint256"
        }
      ],
      "stateMutability": "view",
      "type": "function"
    },
    {
      "inputs": [
        {
          "internalType": "uint256",
          "name": "tokenId",
          "type": "uint256"
        }
      ],
      "name": "burn",
      "outputs": [],
      "stateMutability": "nonpayable",
      "type": "function"
    },
    {
      "inputs": [
        {
          "internalType": "uint256",
          "name": "tokenId",
          "type": "uint256"
        }
      ],
      "name": "forcedBurn",
      "outputs": [],
      "stateMutability": "nonpayable",
      "type": "function"
    },
    {
      "inputs": [
        {
          "internalType": "uint256",
          "name": "tokenId",
          "type": "uint256"
        }
      ],
      "name": "getApproved",
      "outputs": [
        {
          "internalType": "address",
          "name": "",
          "type": "address"
        }
      ],
      "stateMutability": "view",
      "type": "function"
    },
    {
      "inputs": [
        {
          "internalType": "bytes32",
          "name": "role",
          "type": "bytes32"
        }
      ],
      "name": "getRoleAdmin",
      "outputs": [
        {
          "internalType": "bytes32",
          "name": "",
          "type": "bytes32"
        }
      ],
      "stateMutability": "view",
      "type": "function"
    },
    {
      "inputs": [
        {
          "internalType": "bytes32",
          "name": "role",
          "type": "bytes32"
        },
        {
          "internalType": "address",
          "name": "account",
          "type": "address"
        }
      ],
      "name": "grantRole",
      "outputs": [],
      "stateMutability": "nonpayable",
      "type": "function"
    },
    {
      "inputs": [
        {
          "internalType": "bytes32",
          "name": "role",
          "type": "bytes32"
        },
        {
          "internalType": "address",
          "name": "account",
          "type": "address"
        }
      ],
      "name": "hasRole",
      "outputs": [
        {
          "internalType": "bool",
          "name": "",
          "type": "bool"
        }
      ],
      "stateMutability": "view",
      "type": "function"
    },
    {
      "inputs": [
        {
          "internalType": "address",
          "name": "owner",
          "type": "address"
        },
        {
          "internalType": "address",
          "name": "operator",
          "type": "address"
        }
      ],
      "name": "isApprovedForAll",
      "outputs": [
        {
          "internalType": "bool",
          "name": "",
          "type": "bool"
        }
      ],
      "stateMutability": "view",
      "type": "function"
    },
    {
      "inputs": [],
      "name": "name",
      "outputs": [
        {
          "internalType": "string",
          "name": "",
          "type": "string"
        }
      ],
      "stateMutability": "view",
      "type": "function"
    },
    {
      "inputs": [
        {
          "internalType": "uint256",
          "name": "tokenId",
          "type": "uint256"
        }
      ],
      "name": "ownerOf",
      "outputs": [
        {
          "internalType": "address",
          "name": "",
          "type": "address"
        }
      ],
      "stateMutability": "view",
      "type": "function"
    },
    {
      "inputs": [],
      "name": "pause",
      "outputs": [],
      "stateMutability": "nonpayable",
      "type": "function"
    },
    {
      "inputs": [],
      "name": "paused",
      "outputs": [
        {
          "internalType": "bool",
          "name": "",
          "type": "bool"
        }
      ],
      "stateMutability": "view",
      "type": "function"
    },
    {
      "inputs": [
        {
          "internalType": "bytes32",
          "name": "role",
          "type": "bytes32"
        },
        {
          "internalType": "address",
          "name": "account",
          "type": "address"
        }
      ],
      "name": "renounceRole",
      "outputs": [],
      "stateMutability": "nonpayable",
      "type": "function"
    },
    {
      "inputs": [
        {
          "internalType": "bytes32",
          "name": "role",
          "type": "bytes32"
        },
        {
          "internalType": "address",
          "name": "account",
          "type": "address"
        }
      ],
      "name": "revokeRole",
      "outputs": [],
      "stateMutability": "nonpayable",
      "type": "function"
    },
    {
      "inputs": [
        {
          "internalType": "uint256",
          "name": "",
          "type": "uint256"
        },
        {
          "internalType": "uint256",
          "name": "value",
          "type": "uint256"
        }
      ],
      "name": "royaltyInfo",
      "outputs": [
        {
          "internalType": "address",
          "name": "receiver",
          "type": "address"
        },
        {
          "internalType": "uint256",
          "name": "royaltyAmount",
          "type": "uint256"
        }
      ],
      "stateMutability": "view",
      "type": "function"
    },
    {
      "inputs": [
        {
          "internalType": "address[]",
          "name": "accounts",
          "type": "address[]"
        }
      ],
      "name": "safeMintBatch",
      "outputs": [],
      "stateMutability": "nonpayable",
      "type": "function"
    },
    {
      "inputs": [
        {
          "internalType": "address",
          "name": "from",
          "type": "address"
        },
        {
          "internalType": "address",
          "name": "to",
          "type": "address"
        },
        {
          "internalType": "uint256",
          "name": "tokenId",
          "type": "uint256"
        }
      ],
      "name": "safeTransferFrom",
      "outputs": [],
      "stateMutability": "nonpayable",
      "type": "function"
    },
    {
      "inputs": [
        {
          "internalType": "address",
          "name": "from",
          "type": "address"
        },
        {
          "internalType": "address",
          "name": "to",
          "type": "address"
        },
        {
          "internalType": "uint256",
          "name": "tokenId",
          "type": "uint256"
        },
        {
          "internalType": "bytes",
          "name": "_data",
          "type": "bytes"
        }
      ],
      "name": "safeTransferFrom",
      "outputs": [],
      "stateMutability": "nonpayable",
      "type": "function"
    },
    {
      "inputs": [
        {
          "internalType": "address",
          "name": "operator",
          "type": "address"
        },
        {
          "internalType": "bool",
          "name": "approved",
          "type": "bool"
        }
      ],
      "name": "setApprovalForAll",
      "outputs": [],
      "stateMutability": "nonpayable",
      "type": "function"
    },
    {
      "inputs": [
        {
          "internalType": "string",
          "name": "uri",
          "type": "string"
        }
      ],
      "name": "setNewURI",
      "outputs": [],
      "stateMutability": "nonpayable",
      "type": "function"
    },
    {
      "inputs": [
        {
          "internalType": "address",
          "name": "recipient",
          "type": "address"
        },
        {
          "internalType": "uint256",
          "name": "value",
          "type": "uint256"
        }
      ],
      "name": "setRoyalties",
      "outputs": [],
      "stateMutability": "nonpayable",
      "type": "function"
    },
    {
      "inputs": [
        {
          "internalType": "bytes4",
          "name": "interfaceId",
          "type": "bytes4"
        }
      ],
      "name": "supportsInterface",
      "outputs": [
        {
          "internalType": "bool",
          "name": "",
          "type": "bool"
        }
      ],
      "stateMutability": "view",
      "type": "function"
    },
    {
      "inputs": [],
      "name": "symbol",
      "outputs": [
        {
          "internalType": "string",
          "name": "",
          "type": "string"
        }
      ],
      "stateMutability": "view",
      "type": "function"
    },
    {
      "inputs": [
        {
          "internalType": "uint256",
          "name": "tokenId",
          "type": "uint256"
        }
      ],
      "name": "tokenURI",
      "outputs": [
        {
          "internalType": "string",
          "name": "",
          "type": "string"
        }
      ],
      "stateMutability": "view",
      "type": "function"
    },
    {
      "inputs": [
        {
          "internalType": "address",
          "name": "from",
          "type": "address"
        },
        {
          "internalType": "address",
          "name": "to",
          "type": "address"
        },
        {
          "internalType": "uint256",
          "name": "tokenId",
          "type": "uint256"
        }
      ],
      "name": "transferFrom",
      "outputs": [],
      "stateMutability": "nonpayable",
      "type": "function"
    },
    {
      "inputs": [],
      "name": "unpause",
      "outputs": [],
      "stateMutability": "nonpayable",
      "type": "function"
    }
  ],
  "bytecode": "0x6080604052604051806060016040528060308152602001620049be60309139600b9080519060200190620000359291906200032b565b503480156200004357600080fd5b506040518060400160405280601181526020017f54686520466f726765202d20416e76696c0000000000000000000000000000008152506040518060400160405280600381526020017f54464100000000000000000000000000000000000000000000000000000000008152508160009080519060200190620000c89291906200032b565b508060019080519060200190620000e19291906200032b565b5050506000600860006101000a81548160ff021916908315150217905550620001146000801b33620001b060201b60201c565b620001467f65d7a28e3265b37a6474929f336521b332c1681b933f6cb9f3376673440d862a33620001b060201b60201c565b620001787f9f2df0fed2c77648de5860a4cc508cd0818c85b8b8a1ab4ceeef8d981c8956a633620001b060201b60201c565b620001aa7f3c11d16cbaffd01df69ce1c404f6340ee057498f5f00246190ea54220576a84833620001b060201b60201c565b62000440565b620001c28282620001c660201b60201c565b5050565b620001d88282620002b860201b60201c565b620002b45760016009600084815260200190815260200160002060000160008373ffffffffffffffffffffffffffffffffffffffff1673ffffffffffffffffffffffffffffffffffffffff16815260200190815260200160002060006101000a81548160ff021916908315150217905550620002596200032360201b60201c565b73ffffffffffffffffffffffffffffffffffffffff168173ffffffffffffffffffffffffffffffffffffffff16837f2f8788117e7eff1d82e926ec794901d17c78024a50270940304540a733656f0d60405160405180910390a45b5050565b60006009600084815260200190815260200160002060000160008373ffffffffffffffffffffffffffffffffffffffff1673ffffffffffffffffffffffffffffffffffffffff16815260200190815260200160002060009054906101000a900460ff16905092915050565b600033905090565b8280546200033990620003db565b90600052602060002090601f0160209004810192826200035d5760008555620003a9565b82601f106200037857805160ff1916838001178555620003a9565b82800160010185558215620003a9579182015b82811115620003a85782518255916020019190600101906200038b565b5b509050620003b89190620003bc565b5090565b5b80821115620003d7576000816000905550600101620003bd565b5090565b60006002820490506001821680620003f457607f821691505b602082108114156200040b576200040a62000411565b5b50919050565b7f4e487b7100000000000000000000000000000000000000000000000000000000600052602260045260246000fd5b61456e80620004506000396000f3fe608060405234801561001057600080fd5b50600436106101e55760003560e01c80635c975abb1161010f578063a217fddf116100a2578063d539139311610071578063d539139314610565578063d547741f14610583578063e63ab1e91461059f578063e985e9c5146105bd576101e5565b8063a217fddf146104df578063a22cb465146104fd578063b88d4fde14610519578063c87b56dd14610535576101e5565b80638456cb59116100de5780638456cb591461046b5780638c7ea24b1461047557806391d148541461049157806395d89b41146104c1576101e5565b80635c975abb146103d15780636352211e146103ef5780636a9f76021461041f57806370a082311461043b576101e5565b8063265522781161018757806336568abe1161015657806336568abe146103735780633f4ba83a1461038f57806342842e0e1461039957806342966c68146103b5576101e5565b806326552278146102ec578063282c51f3146103085780632a55205a146103265780632f2ff15d14610357576101e5565b8063095ea7b3116101c3578063095ea7b3146102685780630e709b1b1461028457806323b872dd146102a0578063248a9ca3146102bc576101e5565b806301ffc9a7146101ea57806306fdde031461021a578063081812fc14610238575b600080fd5b61020460048036038101906101ff91906130d4565b6105ed565b60405161021191906136e1565b60405180910390f35b6102226105ff565b60405161022f9190613717565b60405180910390f35b610252600480360381019061024d9190613167565b610691565b60405161025f9190613651565b60405180910390f35b610282600480360381019061027d9190612ff2565b610716565b005b61029e60048036038101906102999190613126565b61082e565b005b6102ba60048036038101906102b59190612eec565b6108ad565b005b6102d660048036038101906102d1919061306f565b61090d565b6040516102e391906136fc565b60405180910390f35b6103066004803603810190610301919061302e565b61092d565b005b6103106109cc565b60405161031d91906136fc565b60405180910390f35b610340600480360381019061033b9190613190565b6109f0565b60405161034e9291906136b8565b60405180910390f35b610371600480360381019061036c9190613098565b610ab0565b005b61038d60048036038101906103889190613098565b610ad9565b005b610397610b5c565b005b6103b360048036038101906103ae9190612eec565b610b99565b005b6103cf60048036038101906103ca9190613167565b610bb9565b005b6103d9610c15565b6040516103e691906136e1565b60405180910390f35b61040960048036038101906104049190613167565b610c2c565b6040516104169190613651565b60405180910390f35b61043960048036038101906104349190613167565b610cde565b005b61045560048036038101906104509190612e87565b610d1d565b60405161046291906139f9565b60405180910390f35b610473610dd5565b005b61048f600480360381019061048a9190612ff2565b610e12565b005b6104ab60048036038101906104a69190613098565b610e36565b6040516104b891906136e1565b60405180910390f35b6104c9610ea1565b6040516104d69190613717565b60405180910390f35b6104e7610f33565b6040516104f491906136fc565b60405180910390f35b61051760048036038101906105129190612fb6565b610f3a565b005b610533600480360381019061052e9190612f3b565b6110bb565b005b61054f600480360381019061054a9190613167565b61111d565b60405161055c9190613717565b60405180910390f35b61056d61112f565b60405161057a91906136fc565b60405180910390f35b61059d60048036038101906105989190613098565b611153565b005b6105a761117c565b6040516105b491906136fc565b60405180910390f35b6105d760048036038101906105d29190612eb0565b6111a0565b6040516105e491906136e1565b60405180910390f35b60006105f882611234565b9050919050565b60606000805461060e90613d09565b80601f016020809104026020016040519081016040528092919081815260200182805461063a90613d09565b80156106875780601f1061065c57610100808354040283529160200191610687565b820191906000526020600020905b81548152906001019060200180831161066a57829003601f168201915b5050505050905090565b600061069c826112ae565b6106db576040517f08c379a00000000000000000000000000000000000000000000000000000000081526004016106d290613919565b60405180910390fd5b6004600083815260200190815260200160002060009054906101000a900473ffffffffffffffffffffffffffffffffffffffff169050919050565b600061072182610c2c565b90508073ffffffffffffffffffffffffffffffffffffffff168373ffffffffffffffffffffffffffffffffffffffff161415610792576040517f08c379a000000000000000000000000000000000000000000000000000000000815260040161078990613979565b60405180910390fd5b8073ffffffffffffffffffffffffffffffffffffffff166107b161131a565b73ffffffffffffffffffffffffffffffffffffffff1614806107e057506107df816107da61131a565b6111a0565b5b61081f576040517f08c379a000000000000000000000000000000000000000000000000000000000815260040161081690613859565b60405180910390fd5b6108298383611322565b505050565b7f9f2df0fed2c77648de5860a4cc508cd0818c85b8b8a1ab4ceeef8d981c8956a66108608161085b61131a565b6113db565b81600b9080519060200190610876929190612bc0565b5060005b610884600a611478565b8110156108a8576108958184611486565b80806108a090613d6c565b91505061087a565b505050565b6108be6108b861131a565b826114fa565b6108fd576040517f08c379a00000000000000000000000000000000000000000000000000000000081526004016108f490613999565b60405180910390fd5b6109088383836115d8565b505050565b600060096000838152602001908152602001600020600101549050919050565b7f9f2df0fed2c77648de5860a4cc508cd0818c85b8b8a1ab4ceeef8d981c8956a661095f8161095a61131a565b6113db565b60005b82518110156109c7576109b48382815181106109a7577f4e487b7100000000000000000000000000000000000000000000000000000000600052603260045260246000fd5b6020026020010151611834565b80806109bf90613d6c565b915050610962565b505050565b7f3c11d16cbaffd01df69ce1c404f6340ee057498f5f00246190ea54220576a84881565b600080600060076040518060400160405290816000820160009054906101000a900473ffffffffffffffffffffffffffffffffffffffff1673ffffffffffffffffffffffffffffffffffffffff1673ffffffffffffffffffffffffffffffffffffffff1681526020016000820160149054906101000a900462ffffff1662ffffff1662ffffff1681525050905080600001519250612710816020015162ffffff1685610a9c9190613b91565b610aa69190613b60565b9150509250929050565b610ab98261090d565b610aca81610ac561131a565b6113db565b610ad48383611921565b505050565b610ae161131a565b73ffffffffffffffffffffffffffffffffffffffff168173ffffffffffffffffffffffffffffffffffffffff1614610b4e576040517f08c379a0000000000000000000000000000000000000000000000000000000008152600401610b45906139d9565b60405180910390fd5b610b588282611a02565b5050565b7f65d7a28e3265b37a6474929f336521b332c1681b933f6cb9f3376673440d862a610b8e81610b8961131a565b6113db565b610b96611ae4565b50565b610bb4838383604051806020016040528060008152506110bb565b505050565b610bca610bc461131a565b826114fa565b610c09576040517f08c379a0000000000000000000000000000000000000000000000000000000008152600401610c00906139b9565b60405180910390fd5b610c1281611b86565b50565b6000600860009054906101000a900460ff16905090565b6000806002600084815260200190815260200160002060009054906101000a900473ffffffffffffffffffffffffffffffffffffffff169050600073ffffffffffffffffffffffffffffffffffffffff168173ffffffffffffffffffffffffffffffffffffffff161415610cd5576040517f08c379a0000000000000000000000000000000000000000000000000000000008152600401610ccc90613899565b60405180910390fd5b80915050919050565b7f3c11d16cbaffd01df69ce1c404f6340ee057498f5f00246190ea54220576a848610d1081610d0b61131a565b6113db565b610d1982611b86565b5050565b60008073ffffffffffffffffffffffffffffffffffffffff168273ffffffffffffffffffffffffffffffffffffffff161415610d8e576040517f08c379a0000000000000000000000000000000000000000000000000000000008152600401610d8590613879565b60405180910390fd5b600360008373ffffffffffffffffffffffffffffffffffffffff1673ffffffffffffffffffffffffffffffffffffffff168152602001908152602001600020549050919050565b7f65d7a28e3265b37a6474929f336521b332c1681b933f6cb9f3376673440d862a610e0781610e0261131a565b6113db565b610e0f611b92565b50565b6000801b610e2781610e2261131a565b6113db565b610e318383611c35565b505050565b60006009600084815260200190815260200160002060000160008373ffffffffffffffffffffffffffffffffffffffff1673ffffffffffffffffffffffffffffffffffffffff16815260200190815260200160002060009054906101000a900460ff16905092915050565b606060018054610eb090613d09565b80601f0160208091040260200160405190810160405280929190818152602001828054610edc90613d09565b8015610f295780601f10610efe57610100808354040283529160200191610f29565b820191906000526020600020905b815481529060010190602001808311610f0c57829003601f168201915b5050505050905090565b6000801b81565b610f4261131a565b73ffffffffffffffffffffffffffffffffffffffff168273ffffffffffffffffffffffffffffffffffffffff161415610fb0576040517f08c379a0000000000000000000000000000000000000000000000000000000008152600401610fa7906137f9565b60405180910390fd5b8060056000610fbd61131a565b73ffffffffffffffffffffffffffffffffffffffff1673ffffffffffffffffffffffffffffffffffffffff16815260200190815260200160002060008473ffffffffffffffffffffffffffffffffffffffff1673ffffffffffffffffffffffffffffffffffffffff16815260200190815260200160002060006101000a81548160ff0219169083151502179055508173ffffffffffffffffffffffffffffffffffffffff1661106a61131a565b73ffffffffffffffffffffffffffffffffffffffff167f17307eab39ab6107e8899845ad3d59bd9653f200f220920489ca2b5937696c31836040516110af91906136e1565b60405180910390a35050565b6110cc6110c661131a565b836114fa565b61110b576040517f08c379a000000000000000000000000000000000000000000000000000000000815260040161110290613999565b60405180910390fd5b61111784848484611d1f565b50505050565b606061112882611d7b565b9050919050565b7f9f2df0fed2c77648de5860a4cc508cd0818c85b8b8a1ab4ceeef8d981c8956a681565b61115c8261090d565b61116d8161116861131a565b6113db565b6111778383611a02565b505050565b7f65d7a28e3265b37a6474929f336521b332c1681b933f6cb9f3376673440d862a81565b6000600560008473ffffffffffffffffffffffffffffffffffffffff1673ffffffffffffffffffffffffffffffffffffffff16815260200190815260200160002060008373ffffffffffffffffffffffffffffffffffffffff1673ffffffffffffffffffffffffffffffffffffffff16815260200190815260200160002060009054906101000a900460ff16905092915050565b60007f7965db0b000000000000000000000000000000000000000000000000000000007bffffffffffffffffffffffffffffffffffffffffffffffffffffffff1916827bffffffffffffffffffffffffffffffffffffffffffffffffffffffff191614806112a757506112a682611ecd565b5b9050919050565b60008073ffffffffffffffffffffffffffffffffffffffff166002600084815260200190815260200160002060009054906101000a900473ffffffffffffffffffffffffffffffffffffffff1673ffffffffffffffffffffffffffffffffffffffff1614159050919050565b600033905090565b816004600083815260200190815260200160002060006101000a81548173ffffffffffffffffffffffffffffffffffffffff021916908373ffffffffffffffffffffffffffffffffffffffff160217905550808273ffffffffffffffffffffffffffffffffffffffff1661139583610c2c565b73ffffffffffffffffffffffffffffffffffffffff167f8c5be1e5ebec7d5bd14f71427d1e84f3dd0314c0f7b2291e5b200ac8c7c3b92560405160405180910390a45050565b6113e58282610e36565b6114745761140a8173ffffffffffffffffffffffffffffffffffffffff166014611f47565b6114188360001c6020611f47565b604051602001611429929190613617565b6040516020818303038152906040526040517f08c379a000000000000000000000000000000000000000000000000000000000815260040161146b9190613717565b60405180910390fd5b5050565b600081600001549050919050565b61148f826112ae565b6114ce576040517f08c379a00000000000000000000000000000000000000000000000000000000081526004016114c5906138b9565b60405180910390fd5b806006600084815260200190815260200160002090805190602001906114f5929190612bc0565b505050565b6000611505826112ae565b611544576040517f08c379a000000000000000000000000000000000000000000000000000000000815260040161153b90613819565b60405180910390fd5b600061154f83610c2c565b90508073ffffffffffffffffffffffffffffffffffffffff168473ffffffffffffffffffffffffffffffffffffffff1614806115be57508373ffffffffffffffffffffffffffffffffffffffff166115a684610691565b73ffffffffffffffffffffffffffffffffffffffff16145b806115cf57506115ce81856111a0565b5b91505092915050565b8273ffffffffffffffffffffffffffffffffffffffff166115f882610c2c565b73ffffffffffffffffffffffffffffffffffffffff161461164e576040517f08c379a000000000000000000000000000000000000000000000000000000000815260040161164590613939565b60405180910390fd5b600073ffffffffffffffffffffffffffffffffffffffff168273ffffffffffffffffffffffffffffffffffffffff1614156116be576040517f08c379a00000000000000000000000000000000000000000000000000000000081526004016116b5906137d9565b60405180910390fd5b6116c9838383612241565b6116d4600082611322565b6001600360008573ffffffffffffffffffffffffffffffffffffffff1673ffffffffffffffffffffffffffffffffffffffff16815260200190815260200160002060008282546117249190613beb565b925050819055506001600360008473ffffffffffffffffffffffffffffffffffffffff1673ffffffffffffffffffffffffffffffffffffffff168152602001908152602001600020600082825461177b9190613b0a565b92505081905550816002600083815260200190815260200160002060006101000a81548173ffffffffffffffffffffffffffffffffffffffff021916908373ffffffffffffffffffffffffffffffffffffffff160217905550808273ffffffffffffffffffffffffffffffffffffffff168473ffffffffffffffffffffffffffffffffffffffff167fddf252ad1be2c89b69c2b068fc378daa952ba7f163c4a11628f55a4df523b3ef60405160405180910390a4505050565b7f9f2df0fed2c77648de5860a4cc508cd0818c85b8b8a1ab4ceeef8d981c8956a66118668161186161131a565b6113db565b6000611872600a611478565b905061187e600a612299565b61188883826122af565b61191c81600b805461189990613d09565b80601f01602080910402602001604051908101604052809291908181526020018280546118c590613d09565b80156119125780601f106118e757610100808354040283529160200191611912565b820191906000526020600020905b8154815290600101906020018083116118f557829003601f168201915b5050505050611486565b505050565b61192b8282610e36565b6119fe5760016009600084815260200190815260200160002060000160008373ffffffffffffffffffffffffffffffffffffffff1673ffffffffffffffffffffffffffffffffffffffff16815260200190815260200160002060006101000a81548160ff0219169083151502179055506119a361131a565b73ffffffffffffffffffffffffffffffffffffffff168173ffffffffffffffffffffffffffffffffffffffff16837f2f8788117e7eff1d82e926ec794901d17c78024a50270940304540a733656f0d60405160405180910390a45b5050565b611a0c8282610e36565b15611ae05760006009600084815260200190815260200160002060000160008373ffffffffffffffffffffffffffffffffffffffff1673ffffffffffffffffffffffffffffffffffffffff16815260200190815260200160002060006101000a81548160ff021916908315150217905550611a8561131a565b73ffffffffffffffffffffffffffffffffffffffff168173ffffffffffffffffffffffffffffffffffffffff16837ff6391f5c32d9c69d2a47ea670b442974b53935d1edc7fd64eb21e047a839171b60405160405180910390a45b5050565b611aec610c15565b611b2b576040517f08c379a0000000000000000000000000000000000000000000000000000000008152600401611b2290613759565b60405180910390fd5b6000600860006101000a81548160ff0219169083151502179055507f5db9ee0a495bf2e6ff9c91a7834c1ba4fdd244a5e8aa4e537bd38aeae4b073aa611b6f61131a565b604051611b7c9190613651565b60405180910390a1565b611b8f816122cd565b50565b611b9a610c15565b15611bda576040517f08c379a0000000000000000000000000000000000000000000000000000000008152600401611bd190613839565b60405180910390fd5b6001600860006101000a81548160ff0219169083151502179055507f62e78cea01bee320cd4e420270b5ea74000d11b0c9f74754ebdbfc544b05a258611c1e61131a565b604051611c2b9190613651565b60405180910390a1565b612710811115611c7a576040517f08c379a0000000000000000000000000000000000000000000000000000000008152600401611c7190613779565b60405180910390fd5b60405180604001604052808373ffffffffffffffffffffffffffffffffffffffff1681526020018262ffffff16815250600760008201518160000160006101000a81548173ffffffffffffffffffffffffffffffffffffffff021916908373ffffffffffffffffffffffffffffffffffffffff16021790555060208201518160000160146101000a81548162ffffff021916908362ffffff1602179055509050505050565b611d2a8484846115d8565b611d3684848484612320565b611d75576040517f08c379a0000000000000000000000000000000000000000000000000000000008152600401611d6c90613799565b60405180910390fd5b50505050565b6060611d86826112ae565b611dc5576040517f08c379a0000000000000000000000000000000000000000000000000000000008152600401611dbc906138f9565b60405180910390fd5b6000600660008481526020019081526020016000208054611de590613d09565b80601f0160208091040260200160405190810160405280929190818152602001828054611e1190613d09565b8015611e5e5780601f10611e3357610100808354040283529160200191611e5e565b820191906000526020600020905b815481529060010190602001808311611e4157829003601f168201915b505050505090506000611e6f6124b7565b9050600081511415611e85578192505050611ec8565b600082511115611eba578082604051602001611ea29291906135f3565b60405160208183030381529060405292505050611ec8565b611ec3846124ce565b925050505b919050565b60007f2a55205a000000000000000000000000000000000000000000000000000000007bffffffffffffffffffffffffffffffffffffffffffffffffffffffff1916827bffffffffffffffffffffffffffffffffffffffffffffffffffffffff19161480611f405750611f3f82612575565b5b9050919050565b606060006002836002611f5a9190613b91565b611f649190613b0a565b67ffffffffffffffff811115611fa3577f4e487b7100000000000000000000000000000000000000000000000000000000600052604160045260246000fd5b6040519080825280601f01601f191660200182016040528015611fd55781602001600182028036833780820191505090505b5090507f300000000000000000000000000000000000000000000000000000000000000081600081518110612033577f4e487b7100000000000000000000000000000000000000000000000000000000600052603260045260246000fd5b60200101907effffffffffffffffffffffffffffffffffffffffffffffffffffffffffffff1916908160001a9053507f7800000000000000000000000000000000000000000000000000000000000000816001815181106120bd577f4e487b7100000000000000000000000000000000000000000000000000000000600052603260045260246000fd5b60200101907effffffffffffffffffffffffffffffffffffffffffffffffffffffffffffff1916908160001a905350600060018460026120fd9190613b91565b6121079190613b0a565b90505b60018111156121f3577f3031323334353637383961626364656600000000000000000000000000000000600f86166010811061216f577f4e487b7100000000000000000000000000000000000000000000000000000000600052603260045260246000fd5b1a60f81b8282815181106121ac577f4e487b7100000000000000000000000000000000000000000000000000000000600052603260045260246000fd5b60200101907effffffffffffffffffffffffffffffffffffffffffffffffffffffffffffff1916908160001a905350600485901c9450806121ec90613cdf565b905061210a565b5060008414612237576040517f08c379a000000000000000000000000000000000000000000000000000000000815260040161222e90613739565b60405180910390fd5b8091505092915050565b612249610c15565b15612289576040517f08c379a000000000000000000000000000000000000000000000000000000000815260040161228090613839565b60405180910390fd5b612294838383612657565b505050565b6001816000016000828254019250508190555050565b6122c982826040518060200160405280600081525061265c565b5050565b6122d6816126b7565b60006006600083815260200190815260200160002080546122f690613d09565b90501461231d5760066000828152602001908152602001600020600061231c9190612c46565b5b50565b60006123418473ffffffffffffffffffffffffffffffffffffffff166127c8565b156124aa578373ffffffffffffffffffffffffffffffffffffffff1663150b7a0261236a61131a565b8786866040518563ffffffff1660e01b815260040161238c949392919061366c565b602060405180830381600087803b1580156123a657600080fd5b505af19250505080156123d757506040513d601f19601f820116820180604052508101906123d491906130fd565b60015b61245a573d8060008114612407576040519150601f19603f3d011682016040523d82523d6000602084013e61240c565b606091505b50600081511415612452576040517f08c379a000000000000000000000000000000000000000000000000000000000815260040161244990613799565b60405180910390fd5b805181602001fd5b63150b7a0260e01b7bffffffffffffffffffffffffffffffffffffffffffffffffffffffff1916817bffffffffffffffffffffffffffffffffffffffffffffffffffffffff1916149150506124af565b600190505b949350505050565b606060405180602001604052806000815250905090565b60606124d9826112ae565b612518576040517f08c379a000000000000000000000000000000000000000000000000000000000815260040161250f90613959565b60405180910390fd5b60006125226124b7565b90506000815111612542576040518060200160405280600081525061256d565b8061254c846127db565b60405160200161255d9291906135f3565b6040516020818303038152906040525b915050919050565b60007f80ac58cd000000000000000000000000000000000000000000000000000000007bffffffffffffffffffffffffffffffffffffffffffffffffffffffff1916827bffffffffffffffffffffffffffffffffffffffffffffffffffffffff1916148061264057507f5b5e139f000000000000000000000000000000000000000000000000000000007bffffffffffffffffffffffffffffffffffffffffffffffffffffffff1916827bffffffffffffffffffffffffffffffffffffffffffffffffffffffff1916145b80612650575061264f82612988565b5b9050919050565b505050565b61266683836129f2565b6126736000848484612320565b6126b2576040517f08c379a00000000000000000000000000000000000000000000000000000000081526004016126a990613799565b60405180910390fd5b505050565b60006126c282610c2c565b90506126d081600084612241565b6126db600083611322565b6001600360008373ffffffffffffffffffffffffffffffffffffffff1673ffffffffffffffffffffffffffffffffffffffff168152602001908152602001600020600082825461272b9190613beb565b925050819055506002600083815260200190815260200160002060006101000a81549073ffffffffffffffffffffffffffffffffffffffff021916905581600073ffffffffffffffffffffffffffffffffffffffff168273ffffffffffffffffffffffffffffffffffffffff167fddf252ad1be2c89b69c2b068fc378daa952ba7f163c4a11628f55a4df523b3ef60405160405180910390a45050565b600080823b905060008111915050919050565b60606000821415612823576040518060400160405280600181526020017f30000000000000000000000000000000000000000000000000000000000000008152509050612983565b600082905060005b6000821461285557808061283e90613d6c565b915050600a8261284e9190613b60565b915061282b565b60008167ffffffffffffffff811115612897577f4e487b7100000000000000000000000000000000000000000000000000000000600052604160045260246000fd5b6040519080825280601f01601f1916602001820160405280156128c95781602001600182028036833780820191505090505b5090505b6000851461297c576001826128e29190613beb565b9150600a856128f19190613db5565b60306128fd9190613b0a565b60f81b818381518110612939577f4e487b7100000000000000000000000000000000000000000000000000000000600052603260045260246000fd5b60200101907effffffffffffffffffffffffffffffffffffffffffffffffffffffffffffff1916908160001a905350600a856129759190613b60565b94506128cd565b8093505050505b919050565b60007f01ffc9a7000000000000000000000000000000000000000000000000000000007bffffffffffffffffffffffffffffffffffffffffffffffffffffffff1916827bffffffffffffffffffffffffffffffffffffffffffffffffffffffff1916149050919050565b600073ffffffffffffffffffffffffffffffffffffffff168273ffffffffffffffffffffffffffffffffffffffff161415612a62576040517f08c379a0000000000000000000000000000000000000000000000000000000008152600401612a59906138d9565b60405180910390fd5b612a6b816112ae565b15612aab576040517f08c379a0000000000000000000000000000000000000000000000000000000008152600401612aa2906137b9565b60405180910390fd5b612ab760008383612241565b6001600360008473ffffffffffffffffffffffffffffffffffffffff1673ffffffffffffffffffffffffffffffffffffffff1681526020019081526020016000206000828254612b079190613b0a565b92505081905550816002600083815260200190815260200160002060006101000a81548173ffffffffffffffffffffffffffffffffffffffff021916908373ffffffffffffffffffffffffffffffffffffffff160217905550808273ffffffffffffffffffffffffffffffffffffffff16600073ffffffffffffffffffffffffffffffffffffffff167fddf252ad1be2c89b69c2b068fc378daa952ba7f163c4a11628f55a4df523b3ef60405160405180910390a45050565b828054612bcc90613d09565b90600052602060002090601f016020900481019282612bee5760008555612c35565b82601f10612c0757805160ff1916838001178555612c35565b82800160010185558215612c35579182015b82811115612c34578251825591602001919060010190612c19565b5b509050612c429190612c86565b5090565b508054612c5290613d09565b6000825580601f10612c645750612c83565b601f016020900490600052602060002090810190612c829190612c86565b5b50565b5b80821115612c9f576000816000905550600101612c87565b5090565b6000612cb6612cb184613a39565b613a14565b90508083825260208201905082856020860282011115612cd557600080fd5b60005b85811015612d055781612ceb8882612d8b565b845260208401935060208301925050600181019050612cd8565b5050509392505050565b6000612d22612d1d84613a65565b613a14565b905082815260208101848484011115612d3a57600080fd5b612d45848285613c9d565b509392505050565b6000612d60612d5b84613a96565b613a14565b905082815260208101848484011115612d7857600080fd5b612d83848285613c9d565b509392505050565b600081359050612d9a816144c5565b92915050565b600082601f830112612db157600080fd5b8135612dc1848260208601612ca3565b91505092915050565b600081359050612dd9816144dc565b92915050565b600081359050612dee816144f3565b92915050565b600081359050612e038161450a565b92915050565b600081519050612e188161450a565b92915050565b600082601f830112612e2f57600080fd5b8135612e3f848260208601612d0f565b91505092915050565b600082601f830112612e5957600080fd5b8135612e69848260208601612d4d565b91505092915050565b600081359050612e8181614521565b92915050565b600060208284031215612e9957600080fd5b6000612ea784828501612d8b565b91505092915050565b60008060408385031215612ec357600080fd5b6000612ed185828601612d8b565b9250506020612ee285828601612d8b565b9150509250929050565b600080600060608486031215612f0157600080fd5b6000612f0f86828701612d8b565b9350506020612f2086828701612d8b565b9250506040612f3186828701612e72565b9150509250925092565b60008060008060808587031215612f5157600080fd5b6000612f5f87828801612d8b565b9450506020612f7087828801612d8b565b9350506040612f8187828801612e72565b925050606085013567ffffffffffffffff811115612f9e57600080fd5b612faa87828801612e1e565b91505092959194509250565b60008060408385031215612fc957600080fd5b6000612fd785828601612d8b565b9250506020612fe885828601612dca565b9150509250929050565b6000806040838503121561300557600080fd5b600061301385828601612d8b565b925050602061302485828601612e72565b9150509250929050565b60006020828403121561304057600080fd5b600082013567ffffffffffffffff81111561305a57600080fd5b61306684828501612da0565b91505092915050565b60006020828403121561308157600080fd5b600061308f84828501612ddf565b91505092915050565b600080604083850312156130ab57600080fd5b60006130b985828601612ddf565b92505060206130ca85828601612d8b565b9150509250929050565b6000602082840312156130e657600080fd5b60006130f484828501612df4565b91505092915050565b60006020828403121561310f57600080fd5b600061311d84828501612e09565b91505092915050565b60006020828403121561313857600080fd5b600082013567ffffffffffffffff81111561315257600080fd5b61315e84828501612e48565b91505092915050565b60006020828403121561317957600080fd5b600061318784828501612e72565b91505092915050565b600080604083850312156131a357600080fd5b60006131b185828601612e72565b92505060206131c285828601612e72565b9150509250929050565b6131d581613c1f565b82525050565b6131e481613c31565b82525050565b6131f381613c3d565b82525050565b600061320482613ac7565b61320e8185613add565b935061321e818560208601613cac565b61322781613ea2565b840191505092915050565b600061323d82613ad2565b6132478185613aee565b9350613257818560208601613cac565b61326081613ea2565b840191505092915050565b600061327682613ad2565b6132808185613aff565b9350613290818560208601613cac565b80840191505092915050565b60006132a9602083613aee565b91506132b482613eb3565b602082019050919050565b60006132cc601483613aee565b91506132d782613edc565b602082019050919050565b60006132ef601a83613aee565b91506132fa82613f05565b602082019050919050565b6000613312603283613aee565b915061331d82613f2e565b604082019050919050565b6000613335601c83613aee565b915061334082613f7d565b602082019050919050565b6000613358602483613aee565b915061336382613fa6565b604082019050919050565b600061337b601983613aee565b915061338682613ff5565b602082019050919050565b600061339e602c83613aee565b91506133a98261401e565b604082019050919050565b60006133c1601083613aee565b91506133cc8261406d565b602082019050919050565b60006133e4603883613aee565b91506133ef82614096565b604082019050919050565b6000613407602a83613aee565b9150613412826140e5565b604082019050919050565b600061342a602983613aee565b915061343582614134565b604082019050919050565b600061344d602e83613aee565b915061345882614183565b604082019050919050565b6000613470602083613aee565b915061347b826141d2565b602082019050919050565b6000613493603183613aee565b915061349e826141fb565b604082019050919050565b60006134b6602c83613aee565b91506134c18261424a565b604082019050919050565b60006134d9602983613aee565b91506134e482614299565b604082019050919050565b60006134fc602f83613aee565b9150613507826142e8565b604082019050919050565b600061351f602183613aee565b915061352a82614337565b604082019050919050565b6000613542603183613aee565b915061354d82614386565b604082019050919050565b6000613565601783613aff565b9150613570826143d5565b601782019050919050565b6000613588603083613aee565b9150613593826143fe565b604082019050919050565b60006135ab601183613aff565b91506135b68261444d565b601182019050919050565b60006135ce602f83613aee565b91506135d982614476565b604082019050919050565b6135ed81613c93565b82525050565b60006135ff828561326b565b915061360b828461326b565b91508190509392505050565b600061362282613558565b915061362e828561326b565b91506136398261359e565b9150613645828461326b565b91508190509392505050565b600060208201905061366660008301846131cc565b92915050565b600060808201905061368160008301876131cc565b61368e60208301866131cc565b61369b60408301856135e4565b81810360608301526136ad81846131f9565b905095945050505050565b60006040820190506136cd60008301856131cc565b6136da60208301846135e4565b9392505050565b60006020820190506136f660008301846131db565b92915050565b600060208201905061371160008301846131ea565b92915050565b600060208201905081810360008301526137318184613232565b905092915050565b600060208201905081810360008301526137528161329c565b9050919050565b60006020820190508181036000830152613772816132bf565b9050919050565b60006020820190508181036000830152613792816132e2565b9050919050565b600060208201905081810360008301526137b281613305565b9050919050565b600060208201905081810360008301526137d281613328565b9050919050565b600060208201905081810360008301526137f28161334b565b9050919050565b600060208201905081810360008301526138128161336e565b9050919050565b6000602082019050818103600083015261383281613391565b9050919050565b60006020820190508181036000830152613852816133b4565b9050919050565b60006020820190508181036000830152613872816133d7565b9050919050565b60006020820190508181036000830152613892816133fa565b9050919050565b600060208201905081810360008301526138b28161341d565b9050919050565b600060208201905081810360008301526138d281613440565b9050919050565b600060208201905081810360008301526138f281613463565b9050919050565b6000602082019050818103600083015261391281613486565b9050919050565b60006020820190508181036000830152613932816134a9565b9050919050565b60006020820190508181036000830152613952816134cc565b9050919050565b60006020820190508181036000830152613972816134ef565b9050919050565b6000602082019050818103600083015261399281613512565b9050919050565b600060208201905081810360008301526139b281613535565b9050919050565b600060208201905081810360008301526139d28161357b565b9050919050565b600060208201905081810360008301526139f2816135c1565b9050919050565b6000602082019050613a0e60008301846135e4565b92915050565b6000613a1e613a2f565b9050613a2a8282613d3b565b919050565b6000604051905090565b600067ffffffffffffffff821115613a5457613a53613e73565b5b602082029050602081019050919050565b600067ffffffffffffffff821115613a8057613a7f613e73565b5b613a8982613ea2565b9050602081019050919050565b600067ffffffffffffffff821115613ab157613ab0613e73565b5b613aba82613ea2565b9050602081019050919050565b600081519050919050565b600081519050919050565b600082825260208201905092915050565b600082825260208201905092915050565b600081905092915050565b6000613b1582613c93565b9150613b2083613c93565b9250827fffffffffffffffffffffffffffffffffffffffffffffffffffffffffffffffff03821115613b5557613b54613de6565b5b828201905092915050565b6000613b6b82613c93565b9150613b7683613c93565b925082613b8657613b85613e15565b5b828204905092915050565b6000613b9c82613c93565b9150613ba783613c93565b9250817fffffffffffffffffffffffffffffffffffffffffffffffffffffffffffffffff0483118215151615613be057613bdf613de6565b5b828202905092915050565b6000613bf682613c93565b9150613c0183613c93565b925082821015613c1457613c13613de6565b5b828203905092915050565b6000613c2a82613c73565b9050919050565b60008115159050919050565b6000819050919050565b60007fffffffff0000000000000000000000000000000000000000000000000000000082169050919050565b600073ffffffffffffffffffffffffffffffffffffffff82169050919050565b6000819050919050565b82818337600083830152505050565b60005b83811015613cca578082015181840152602081019050613caf565b83811115613cd9576000848401525b50505050565b6000613cea82613c93565b91506000821415613cfe57613cfd613de6565b5b600182039050919050565b60006002820490506001821680613d2157607f821691505b60208210811415613d3557613d34613e44565b5b50919050565b613d4482613ea2565b810181811067ffffffffffffffff82111715613d6357613d62613e73565b5b80604052505050565b6000613d7782613c93565b91507fffffffffffffffffffffffffffffffffffffffffffffffffffffffffffffffff821415613daa57613da9613de6565b5b600182019050919050565b6000613dc082613c93565b9150613dcb83613c93565b925082613ddb57613dda613e15565b5b828206905092915050565b7f4e487b7100000000000000000000000000000000000000000000000000000000600052601160045260246000fd5b7f4e487b7100000000000000000000000000000000000000000000000000000000600052601260045260246000fd5b7f4e487b7100000000000000000000000000000000000000000000000000000000600052602260045260246000fd5b7f4e487b7100000000000000000000000000000000000000000000000000000000600052604160045260246000fd5b6000601f19601f8301169050919050565b7f537472696e67733a20686578206c656e67746820696e73756666696369656e74600082015250565b7f5061757361626c653a206e6f7420706175736564000000000000000000000000600082015250565b7f45524332393831526f79616c746965733a20546f6f2068696768000000000000600082015250565b7f4552433732313a207472616e7366657220746f206e6f6e20455243373231526560008201527f63656976657220696d706c656d656e7465720000000000000000000000000000602082015250565b7f4552433732313a20746f6b656e20616c7265616479206d696e74656400000000600082015250565b7f4552433732313a207472616e7366657220746f20746865207a65726f2061646460008201527f7265737300000000000000000000000000000000000000000000000000000000602082015250565b7f4552433732313a20617070726f766520746f2063616c6c657200000000000000600082015250565b7f4552433732313a206f70657261746f7220717565727920666f72206e6f6e657860008201527f697374656e7420746f6b656e0000000000000000000000000000000000000000602082015250565b7f5061757361626c653a2070617573656400000000000000000000000000000000600082015250565b7f4552433732313a20617070726f76652063616c6c6572206973206e6f74206f7760008201527f6e6572206e6f7220617070726f76656420666f7220616c6c0000000000000000602082015250565b7f4552433732313a2062616c616e636520717565727920666f7220746865207a6560008201527f726f206164647265737300000000000000000000000000000000000000000000602082015250565b7f4552433732313a206f776e657220717565727920666f72206e6f6e657869737460008201527f656e7420746f6b656e0000000000000000000000000000000000000000000000602082015250565b7f45524337323155524953746f726167653a2055524920736574206f66206e6f6e60008201527f6578697374656e7420746f6b656e000000000000000000000000000000000000602082015250565b7f4552433732313a206d696e7420746f20746865207a65726f2061646472657373600082015250565b7f45524337323155524953746f726167653a2055524920717565727920666f722060008201527f6e6f6e6578697374656e7420746f6b656e000000000000000000000000000000602082015250565b7f4552433732313a20617070726f76656420717565727920666f72206e6f6e657860008201527f697374656e7420746f6b656e0000000000000000000000000000000000000000602082015250565b7f4552433732313a207472616e73666572206f6620746f6b656e2074686174206960008201527f73206e6f74206f776e0000000000000000000000000000000000000000000000602082015250565b7f4552433732314d657461646174613a2055524920717565727920666f72206e6f60008201527f6e6578697374656e7420746f6b656e0000000000000000000000000000000000602082015250565b7f4552433732313a20617070726f76616c20746f2063757272656e74206f776e6560008201527f7200000000000000000000000000000000000000000000000000000000000000602082015250565b7f4552433732313a207472616e736665722063616c6c6572206973206e6f74206f60008201527f776e6572206e6f7220617070726f766564000000000000000000000000000000602082015250565b7f416363657373436f6e74726f6c3a206163636f756e7420000000000000000000600082015250565b7f4552433732314275726e61626c653a2063616c6c6572206973206e6f74206f7760008201527f6e6572206e6f7220617070726f76656400000000000000000000000000000000602082015250565b7f206973206d697373696e6720726f6c6520000000000000000000000000000000600082015250565b7f416363657373436f6e74726f6c3a2063616e206f6e6c792072656e6f756e636560008201527f20726f6c657320666f722073656c660000000000000000000000000000000000602082015250565b6144ce81613c1f565b81146144d957600080fd5b50565b6144e581613c31565b81146144f057600080fd5b50565b6144fc81613c3d565b811461450757600080fd5b50565b61451381613c47565b811461451e57600080fd5b50565b61452a81613c93565b811461453557600080fd5b5056fea2646970667358221220441285fdd7e4e7cd4ab52eb0771e14be65bbba0590b7c07cef988488606447a764736f6c6343000802003361723a2f2f6d6a6d5a6c32344950515744436b41504f7866657a64766d4266334a6f3576356f545f786846436e492d30",
  "linkReferences": {},
  "deployedLinkReferences": {}
}