{
  "_format": "hh-sol-artifact-1",
  "contractName": "AnvilTheForge",
  "sourceName": "contracts/AnvilTheForge.sol",
  "abi": [
    {
      "inputs": [],
      "stateMutability": "nonpayable",
      "type": "constructor"
    },
    {
      "anonymous": false,
      "inputs": [
        {
          "indexed": true,
          "internalType": "address",
          "name": "owner",
          "type": "address"
        },
        {
          "indexed": true,
          "internalType": "address",
          "name": "approved",
          "type": "address"
        },
        {
          "indexed": true,
          "internalType": "uint256",
          "name": "tokenId",
          "type": "uint256"
        }
      ],
      "name": "Approval",
      "type": "event"
    },
    {
      "anonymous": false,
      "inputs": [
        {
          "indexed": true,
          "internalType": "address",
          "name": "owner",
          "type": "address"
        },
        {
          "indexed": true,
          "internalType": "address",
          "name": "operator",
          "type": "address"
        },
        {
          "indexed": false,
          "internalType": "bool",
          "name": "approved",
          "type": "bool"
        }
      ],
      "name": "ApprovalForAll",
      "type": "event"
    },
    {
      "anonymous": false,
      "inputs": [
        {
          "indexed": false,
          "internalType": "address",
          "name": "account",
          "type": "address"
        }
      ],
      "name": "Paused",
      "type": "event"
    },
    {
      "anonymous": false,
      "inputs": [
        {
          "indexed": true,
          "internalType": "bytes32",
          "name": "role",
          "type": "bytes32"
        },
        {
          "indexed": true,
          "internalType": "bytes32",
          "name": "previousAdminRole",
          "type": "bytes32"
        },
        {
          "indexed": true,
          "internalType": "bytes32",
          "name": "newAdminRole",
          "type": "bytes32"
        }
      ],
      "name": "RoleAdminChanged",
      "type": "event"
    },
    {
      "anonymous": false,
      "inputs": [
        {
          "indexed": true,
          "internalType": "bytes32",
          "name": "role",
          "type": "bytes32"
        },
        {
          "indexed": true,
          "internalType": "address",
          "name": "account",
          "type": "address"
        },
        {
          "indexed": true,
          "internalType": "address",
          "name": "sender",
          "type": "address"
        }
      ],
      "name": "RoleGranted",
      "type": "event"
    },
    {
      "anonymous": false,
      "inputs": [
        {
          "indexed": true,
          "internalType": "bytes32",
          "name": "role",
          "type": "bytes32"
        },
        {
          "indexed": true,
          "internalType": "address",
          "name": "account",
          "type": "address"
        },
        {
          "indexed": true,
          "internalType": "address",
          "name": "sender",
          "type": "address"
        }
      ],
      "name": "RoleRevoked",
      "type": "event"
    },
    {
      "anonymous": false,
      "inputs": [
        {
          "indexed": true,
          "internalType": "address",
          "name": "from",
          "type": "address"
        },
        {
          "indexed": true,
          "internalType": "address",
          "name": "to",
          "type": "address"
        },
        {
          "indexed": true,
          "internalType": "uint256",
          "name": "tokenId",
          "type": "uint256"
        }
      ],
      "name": "Transfer",
      "type": "event"
    },
    {
      "anonymous": false,
      "inputs": [
        {
          "indexed": false,
          "internalType": "address",
          "name": "account",
          "type": "address"
        }
      ],
      "name": "Unpaused",
      "type": "event"
    },
    {
      "inputs": [],
      "name": "BURNER_ROLE",
      "outputs": [
        {
          "internalType": "bytes32",
          "name": "",
          "type": "bytes32"
        }
      ],
      "stateMutability": "view",
      "type": "function"
    },
    {
      "inputs": [],
      "name": "DEFAULT_ADMIN_ROLE",
      "outputs": [
        {
          "internalType": "bytes32",
          "name": "",
          "type": "bytes32"
        }
      ],
      "stateMutability": "view",
      "type": "function"
    },
    {
      "inputs": [],
      "name": "MINTER_ROLE",
      "outputs": [
        {
          "internalType": "bytes32",
          "name": "",
          "type": "bytes32"
        }
      ],
      "stateMutability": "view",
      "type": "function"
    },
    {
      "inputs": [],
      "name": "PAUSER_ROLE",
      "outputs": [
        {
          "internalType": "bytes32",
          "name": "",
          "type": "bytes32"
        }
      ],
      "stateMutability": "view",
      "type": "function"
    },
    {
      "inputs": [
        {
          "internalType": "address",
          "name": "to",
          "type": "address"
        },
        {
          "internalType": "uint256",
          "name": "tokenId",
          "type": "uint256"
        }
      ],
      "name": "approve",
      "outputs": [],
      "stateMutability": "nonpayable",
      "type": "function"
    },
    {
      "inputs": [
        {
          "internalType": "address",
          "name": "owner",
          "type": "address"
        }
      ],
      "name": "balanceOf",
      "outputs": [
        {
          "internalType": "uint256",
          "name": "",
          "type": "uint256"
        }
      ],
      "stateMutability": "view",
      "type": "function"
    },
    {
      "inputs": [
        {
          "internalType": "uint256",
          "name": "tokenId",
          "type": "uint256"
        }
      ],
      "name": "burn",
      "outputs": [],
      "stateMutability": "nonpayable",
      "type": "function"
    },
    {
      "inputs": [
        {
          "internalType": "uint256",
          "name": "tokenId",
          "type": "uint256"
        }
      ],
      "name": "forcedBurn",
      "outputs": [],
      "stateMutability": "nonpayable",
      "type": "function"
    },
    {
      "inputs": [
        {
          "internalType": "uint256",
          "name": "tokenId",
          "type": "uint256"
        }
      ],
      "name": "getApproved",
      "outputs": [
        {
          "internalType": "address",
          "name": "",
          "type": "address"
        }
      ],
      "stateMutability": "view",
      "type": "function"
    },
    {
      "inputs": [
        {
          "internalType": "bytes32",
          "name": "role",
          "type": "bytes32"
        }
      ],
      "name": "getRoleAdmin",
      "outputs": [
        {
          "internalType": "bytes32",
          "name": "",
          "type": "bytes32"
        }
      ],
      "stateMutability": "view",
      "type": "function"
    },
    {
      "inputs": [
        {
          "internalType": "bytes32",
          "name": "role",
          "type": "bytes32"
        },
        {
          "internalType": "address",
          "name": "account",
          "type": "address"
        }
      ],
      "name": "grantRole",
      "outputs": [],
      "stateMutability": "nonpayable",
      "type": "function"
    },
    {
      "inputs": [
        {
          "internalType": "bytes32",
          "name": "role",
          "type": "bytes32"
        },
        {
          "internalType": "address",
          "name": "account",
          "type": "address"
        }
      ],
      "name": "hasRole",
      "outputs": [
        {
          "internalType": "bool",
          "name": "",
          "type": "bool"
        }
      ],
      "stateMutability": "view",
      "type": "function"
    },
    {
      "inputs": [
        {
          "internalType": "address",
          "name": "owner",
          "type": "address"
        },
        {
          "internalType": "address",
          "name": "operator",
          "type": "address"
        }
      ],
      "name": "isApprovedForAll",
      "outputs": [
        {
          "internalType": "bool",
          "name": "",
          "type": "bool"
        }
      ],
      "stateMutability": "view",
      "type": "function"
    },
    {
      "inputs": [],
      "name": "name",
      "outputs": [
        {
          "internalType": "string",
          "name": "",
          "type": "string"
        }
      ],
      "stateMutability": "view",
      "type": "function"
    },
    {
      "inputs": [
        {
          "internalType": "uint256",
          "name": "tokenId",
          "type": "uint256"
        }
      ],
      "name": "ownerOf",
      "outputs": [
        {
          "internalType": "address",
          "name": "",
          "type": "address"
        }
      ],
      "stateMutability": "view",
      "type": "function"
    },
    {
      "inputs": [],
      "name": "pause",
      "outputs": [],
      "stateMutability": "nonpayable",
      "type": "function"
    },
    {
      "inputs": [],
      "name": "paused",
      "outputs": [
        {
          "internalType": "bool",
          "name": "",
          "type": "bool"
        }
      ],
      "stateMutability": "view",
      "type": "function"
    },
    {
      "inputs": [
        {
          "internalType": "bytes32",
          "name": "role",
          "type": "bytes32"
        },
        {
          "internalType": "address",
          "name": "account",
          "type": "address"
        }
      ],
      "name": "renounceRole",
      "outputs": [],
      "stateMutability": "nonpayable",
      "type": "function"
    },
    {
      "inputs": [
        {
          "internalType": "bytes32",
          "name": "role",
          "type": "bytes32"
        },
        {
          "internalType": "address",
          "name": "account",
          "type": "address"
        }
      ],
      "name": "revokeRole",
      "outputs": [],
      "stateMutability": "nonpayable",
      "type": "function"
    },
    {
      "inputs": [
        {
          "internalType": "uint256",
          "name": "",
          "type": "uint256"
        },
        {
          "internalType": "uint256",
          "name": "value",
          "type": "uint256"
        }
      ],
      "name": "royaltyInfo",
      "outputs": [
        {
          "internalType": "address",
          "name": "receiver",
          "type": "address"
        },
        {
          "internalType": "uint256",
          "name": "royaltyAmount",
          "type": "uint256"
        }
      ],
      "stateMutability": "view",
      "type": "function"
    },
    {
      "inputs": [
        {
          "internalType": "address",
          "name": "to",
          "type": "address"
        }
      ],
      "name": "safeMint",
      "outputs": [],
      "stateMutability": "nonpayable",
      "type": "function"
    },
    {
      "inputs": [
        {
          "internalType": "address",
          "name": "from",
          "type": "address"
        },
        {
          "internalType": "address",
          "name": "to",
          "type": "address"
        },
        {
          "internalType": "uint256",
          "name": "tokenId",
          "type": "uint256"
        }
      ],
      "name": "safeTransferFrom",
      "outputs": [],
      "stateMutability": "nonpayable",
      "type": "function"
    },
    {
      "inputs": [
        {
          "internalType": "address",
          "name": "from",
          "type": "address"
        },
        {
          "internalType": "address",
          "name": "to",
          "type": "address"
        },
        {
          "internalType": "uint256",
          "name": "tokenId",
          "type": "uint256"
        },
        {
          "internalType": "bytes",
          "name": "_data",
          "type": "bytes"
        }
      ],
      "name": "safeTransferFrom",
      "outputs": [],
      "stateMutability": "nonpayable",
      "type": "function"
    },
    {
      "inputs": [
        {
          "internalType": "address",
          "name": "operator",
          "type": "address"
        },
        {
          "internalType": "bool",
          "name": "approved",
          "type": "bool"
        }
      ],
      "name": "setApprovalForAll",
      "outputs": [],
      "stateMutability": "nonpayable",
      "type": "function"
    },
    {
      "inputs": [
        {
          "internalType": "string",
          "name": "uri",
          "type": "string"
        }
      ],
      "name": "setNewURI",
      "outputs": [],
      "stateMutability": "nonpayable",
      "type": "function"
    },
    {
      "inputs": [
        {
          "internalType": "address",
          "name": "recipient",
          "type": "address"
        },
        {
          "internalType": "uint256",
          "name": "value",
          "type": "uint256"
        }
      ],
      "name": "setRoyalties",
      "outputs": [],
      "stateMutability": "nonpayable",
      "type": "function"
    },
    {
      "inputs": [
        {
          "internalType": "bytes4",
          "name": "interfaceId",
          "type": "bytes4"
        }
      ],
      "name": "supportsInterface",
      "outputs": [
        {
          "internalType": "bool",
          "name": "",
          "type": "bool"
        }
      ],
      "stateMutability": "view",
      "type": "function"
    },
    {
      "inputs": [],
      "name": "symbol",
      "outputs": [
        {
          "internalType": "string",
          "name": "",
          "type": "string"
        }
      ],
      "stateMutability": "view",
      "type": "function"
    },
    {
      "inputs": [
        {
          "internalType": "uint256",
          "name": "tokenId",
          "type": "uint256"
        }
      ],
      "name": "tokenURI",
      "outputs": [
        {
          "internalType": "string",
          "name": "",
          "type": "string"
        }
      ],
      "stateMutability": "view",
      "type": "function"
    },
    {
      "inputs": [
        {
          "internalType": "address",
          "name": "from",
          "type": "address"
        },
        {
          "internalType": "address",
          "name": "to",
          "type": "address"
        },
        {
          "internalType": "uint256",
          "name": "tokenId",
          "type": "uint256"
        }
      ],
      "name": "transferFrom",
      "outputs": [],
      "stateMutability": "nonpayable",
      "type": "function"
    },
    {
      "inputs": [],
      "name": "unpause",
      "outputs": [],
      "stateMutability": "nonpayable",
      "type": "function"
    }
  ],
  "bytecode": "0x60806040526040518060600160405280603081526020016200481c60309139600b9080519060200190620000359291906200032b565b503480156200004357600080fd5b506040518060400160405280600d81526020017f416e76696c546865466f726765000000000000000000000000000000000000008152506040518060400160405280600381526020017f41544600000000000000000000000000000000000000000000000000000000008152508160009080519060200190620000c89291906200032b565b508060019080519060200190620000e19291906200032b565b5050506000600860006101000a81548160ff021916908315150217905550620001146000801b33620001b060201b60201c565b620001467f65d7a28e3265b37a6474929f336521b332c1681b933f6cb9f3376673440d862a33620001b060201b60201c565b620001787f9f2df0fed2c77648de5860a4cc508cd0818c85b8b8a1ab4ceeef8d981c8956a633620001b060201b60201c565b620001aa7f3c11d16cbaffd01df69ce1c404f6340ee057498f5f00246190ea54220576a84833620001b060201b60201c565b62000440565b620001c28282620001c660201b60201c565b5050565b620001d88282620002b860201b60201c565b620002b45760016009600084815260200190815260200160002060000160008373ffffffffffffffffffffffffffffffffffffffff1673ffffffffffffffffffffffffffffffffffffffff16815260200190815260200160002060006101000a81548160ff021916908315150217905550620002596200032360201b60201c565b73ffffffffffffffffffffffffffffffffffffffff168173ffffffffffffffffffffffffffffffffffffffff16837f2f8788117e7eff1d82e926ec794901d17c78024a50270940304540a733656f0d60405160405180910390a45b5050565b60006009600084815260200190815260200160002060000160008373ffffffffffffffffffffffffffffffffffffffff1673ffffffffffffffffffffffffffffffffffffffff16815260200190815260200160002060009054906101000a900460ff16905092915050565b600033905090565b8280546200033990620003db565b90600052602060002090601f0160209004810192826200035d5760008555620003a9565b82601f106200037857805160ff1916838001178555620003a9565b82800160010185558215620003a9579182015b82811115620003a85782518255916020019190600101906200038b565b5b509050620003b89190620003bc565b5090565b5b80821115620003d7576000816000905550600101620003bd565b5090565b60006002820490506001821680620003f457607f821691505b602082108114156200040b576200040a62000411565b5b50919050565b7f4e487b7100000000000000000000000000000000000000000000000000000000600052602260045260246000fd5b6143cc80620004506000396000f3fe608060405234801561001057600080fd5b50600436106101e55760003560e01c80635c975abb1161010f578063a217fddf116100a2578063d539139311610071578063d539139314610565578063d547741f14610583578063e63ab1e91461059f578063e985e9c5146105bd576101e5565b8063a217fddf146104df578063a22cb465146104fd578063b88d4fde14610519578063c87b56dd14610535576101e5565b80638456cb59116100de5780638456cb591461046b5780638c7ea24b1461047557806391d148541461049157806395d89b41146104c1576101e5565b80635c975abb146103d15780636352211e146103ef5780636a9f76021461041f57806370a082311461043b576101e5565b8063282c51f3116101875780633f4ba83a116101565780633f4ba83a1461037357806340d097c31461037d57806342842e0e1461039957806342966c68146103b5576101e5565b8063282c51f3146102ec5780632a55205a1461030a5780632f2ff15d1461033b57806336568abe14610357576101e5565b8063095ea7b3116101c3578063095ea7b3146102685780630e709b1b1461028457806323b872dd146102a0578063248a9ca3146102bc576101e5565b806301ffc9a7146101ea57806306fdde031461021a578063081812fc14610238575b600080fd5b61020460048036038101906101ff9190612f5e565b6105ed565b604051610211919061356b565b60405180910390f35b6102226105ff565b60405161022f91906135a1565b60405180910390f35b610252600480360381019061024d9190612ff1565b610691565b60405161025f91906134db565b60405180910390f35b610282600480360381019061027d9190612ebd565b610716565b005b61029e60048036038101906102999190612fb0565b61082e565b005b6102ba60048036038101906102b59190612db7565b6108ad565b005b6102d660048036038101906102d19190612ef9565b61090d565b6040516102e39190613586565b60405180910390f35b6102f461092d565b6040516103019190613586565b60405180910390f35b610324600480360381019061031f919061301a565b610951565b604051610332929190613542565b60405180910390f35b61035560048036038101906103509190612f22565b610a11565b005b610371600480360381019061036c9190612f22565b610a3a565b005b61037b610abd565b005b61039760048036038101906103929190612d52565b610afa565b005b6103b360048036038101906103ae9190612db7565b610be7565b005b6103cf60048036038101906103ca9190612ff1565b610c07565b005b6103d9610c63565b6040516103e6919061356b565b60405180910390f35b61040960048036038101906104049190612ff1565b610c7a565b60405161041691906134db565b60405180910390f35b61043960048036038101906104349190612ff1565b610d2c565b005b61045560048036038101906104509190612d52565b610d6b565b6040516104629190613883565b60405180910390f35b610473610e23565b005b61048f600480360381019061048a9190612ebd565b610e60565b005b6104ab60048036038101906104a69190612f22565b610e84565b6040516104b8919061356b565b60405180910390f35b6104c9610eef565b6040516104d691906135a1565b60405180910390f35b6104e7610f81565b6040516104f49190613586565b60405180910390f35b61051760048036038101906105129190612e81565b610f88565b005b610533600480360381019061052e9190612e06565b611109565b005b61054f600480360381019061054a9190612ff1565b61116b565b60405161055c91906135a1565b60405180910390f35b61056d61117d565b60405161057a9190613586565b60405180910390f35b61059d60048036038101906105989190612f22565b6111a1565b005b6105a76111ca565b6040516105b49190613586565b60405180910390f35b6105d760048036038101906105d29190612d7b565b6111ee565b6040516105e4919061356b565b60405180910390f35b60006105f882611282565b9050919050565b60606000805461060e90613b67565b80601f016020809104026020016040519081016040528092919081815260200182805461063a90613b67565b80156106875780601f1061065c57610100808354040283529160200191610687565b820191906000526020600020905b81548152906001019060200180831161066a57829003601f168201915b5050505050905090565b600061069c826112fc565b6106db576040517f08c379a00000000000000000000000000000000000000000000000000000000081526004016106d2906137a3565b60405180910390fd5b6004600083815260200190815260200160002060009054906101000a900473ffffffffffffffffffffffffffffffffffffffff169050919050565b600061072182610c7a565b90508073ffffffffffffffffffffffffffffffffffffffff168373ffffffffffffffffffffffffffffffffffffffff161415610792576040517f08c379a000000000000000000000000000000000000000000000000000000000815260040161078990613803565b60405180910390fd5b8073ffffffffffffffffffffffffffffffffffffffff166107b1611368565b73ffffffffffffffffffffffffffffffffffffffff1614806107e057506107df816107da611368565b6111ee565b5b61081f576040517f08c379a0000000000000000000000000000000000000000000000000000000008152600401610816906136e3565b60405180910390fd5b6108298383611370565b505050565b7f9f2df0fed2c77648de5860a4cc508cd0818c85b8b8a1ab4ceeef8d981c8956a66108608161085b611368565b611429565b81600b9080519060200190610876929190612b21565b5060005b610884600a6114c6565b8110156108a85761089581846114d4565b80806108a090613bca565b91505061087a565b505050565b6108be6108b8611368565b82611548565b6108fd576040517f08c379a00000000000000000000000000000000000000000000000000000000081526004016108f490613823565b60405180910390fd5b610908838383611626565b505050565b600060096000838152602001908152602001600020600101549050919050565b7f3c11d16cbaffd01df69ce1c404f6340ee057498f5f00246190ea54220576a84881565b600080600060076040518060400160405290816000820160009054906101000a900473ffffffffffffffffffffffffffffffffffffffff1673ffffffffffffffffffffffffffffffffffffffff1673ffffffffffffffffffffffffffffffffffffffff1681526020016000820160149054906101000a900462ffffff1662ffffff1662ffffff1681525050905080600001519250612710816020015162ffffff16856109fd91906139ef565b610a0791906139be565b9150509250929050565b610a1a8261090d565b610a2b81610a26611368565b611429565b610a358383611882565b505050565b610a42611368565b73ffffffffffffffffffffffffffffffffffffffff168173ffffffffffffffffffffffffffffffffffffffff1614610aaf576040517f08c379a0000000000000000000000000000000000000000000000000000000008152600401610aa690613863565b60405180910390fd5b610ab98282611963565b5050565b7f65d7a28e3265b37a6474929f336521b332c1681b933f6cb9f3376673440d862a610aef81610aea611368565b611429565b610af7611a45565b50565b7f9f2df0fed2c77648de5860a4cc508cd0818c85b8b8a1ab4ceeef8d981c8956a6610b2c81610b27611368565b611429565b6000610b38600a6114c6565b9050610b44600a611ae7565b610b4e8382611afd565b610be281600b8054610b5f90613b67565b80601f0160208091040260200160405190810160405280929190818152602001828054610b8b90613b67565b8015610bd85780601f10610bad57610100808354040283529160200191610bd8565b820191906000526020600020905b815481529060010190602001808311610bbb57829003601f168201915b50505050506114d4565b505050565b610c0283838360405180602001604052806000815250611109565b505050565b610c18610c12611368565b82611548565b610c57576040517f08c379a0000000000000000000000000000000000000000000000000000000008152600401610c4e90613843565b60405180910390fd5b610c6081611b1b565b50565b6000600860009054906101000a900460ff16905090565b6000806002600084815260200190815260200160002060009054906101000a900473ffffffffffffffffffffffffffffffffffffffff169050600073ffffffffffffffffffffffffffffffffffffffff168173ffffffffffffffffffffffffffffffffffffffff161415610d23576040517f08c379a0000000000000000000000000000000000000000000000000000000008152600401610d1a90613723565b60405180910390fd5b80915050919050565b7f3c11d16cbaffd01df69ce1c404f6340ee057498f5f00246190ea54220576a848610d5e81610d59611368565b611429565b610d6782611b1b565b5050565b60008073ffffffffffffffffffffffffffffffffffffffff168273ffffffffffffffffffffffffffffffffffffffff161415610ddc576040517f08c379a0000000000000000000000000000000000000000000000000000000008152600401610dd390613703565b60405180910390fd5b600360008373ffffffffffffffffffffffffffffffffffffffff1673ffffffffffffffffffffffffffffffffffffffff168152602001908152602001600020549050919050565b7f65d7a28e3265b37a6474929f336521b332c1681b933f6cb9f3376673440d862a610e5581610e50611368565b611429565b610e5d611b27565b50565b6000801b610e7581610e70611368565b611429565b610e7f8383611bca565b505050565b60006009600084815260200190815260200160002060000160008373ffffffffffffffffffffffffffffffffffffffff1673ffffffffffffffffffffffffffffffffffffffff16815260200190815260200160002060009054906101000a900460ff16905092915050565b606060018054610efe90613b67565b80601f0160208091040260200160405190810160405280929190818152602001828054610f2a90613b67565b8015610f775780601f10610f4c57610100808354040283529160200191610f77565b820191906000526020600020905b815481529060010190602001808311610f5a57829003601f168201915b5050505050905090565b6000801b81565b610f90611368565b73ffffffffffffffffffffffffffffffffffffffff168273ffffffffffffffffffffffffffffffffffffffff161415610ffe576040517f08c379a0000000000000000000000000000000000000000000000000000000008152600401610ff590613683565b60405180910390fd5b806005600061100b611368565b73ffffffffffffffffffffffffffffffffffffffff1673ffffffffffffffffffffffffffffffffffffffff16815260200190815260200160002060008473ffffffffffffffffffffffffffffffffffffffff1673ffffffffffffffffffffffffffffffffffffffff16815260200190815260200160002060006101000a81548160ff0219169083151502179055508173ffffffffffffffffffffffffffffffffffffffff166110b8611368565b73ffffffffffffffffffffffffffffffffffffffff167f17307eab39ab6107e8899845ad3d59bd9653f200f220920489ca2b5937696c31836040516110fd919061356b565b60405180910390a35050565b61111a611114611368565b83611548565b611159576040517f08c379a000000000000000000000000000000000000000000000000000000000815260040161115090613823565b60405180910390fd5b61116584848484611cb4565b50505050565b606061117682611d10565b9050919050565b7f9f2df0fed2c77648de5860a4cc508cd0818c85b8b8a1ab4ceeef8d981c8956a681565b6111aa8261090d565b6111bb816111b6611368565b611429565b6111c58383611963565b505050565b7f65d7a28e3265b37a6474929f336521b332c1681b933f6cb9f3376673440d862a81565b6000600560008473ffffffffffffffffffffffffffffffffffffffff1673ffffffffffffffffffffffffffffffffffffffff16815260200190815260200160002060008373ffffffffffffffffffffffffffffffffffffffff1673ffffffffffffffffffffffffffffffffffffffff16815260200190815260200160002060009054906101000a900460ff16905092915050565b60007f7965db0b000000000000000000000000000000000000000000000000000000007bffffffffffffffffffffffffffffffffffffffffffffffffffffffff1916827bffffffffffffffffffffffffffffffffffffffffffffffffffffffff191614806112f557506112f482611e62565b5b9050919050565b60008073ffffffffffffffffffffffffffffffffffffffff166002600084815260200190815260200160002060009054906101000a900473ffffffffffffffffffffffffffffffffffffffff1673ffffffffffffffffffffffffffffffffffffffff1614159050919050565b600033905090565b816004600083815260200190815260200160002060006101000a81548173ffffffffffffffffffffffffffffffffffffffff021916908373ffffffffffffffffffffffffffffffffffffffff160217905550808273ffffffffffffffffffffffffffffffffffffffff166113e383610c7a565b73ffffffffffffffffffffffffffffffffffffffff167f8c5be1e5ebec7d5bd14f71427d1e84f3dd0314c0f7b2291e5b200ac8c7c3b92560405160405180910390a45050565b6114338282610e84565b6114c2576114588173ffffffffffffffffffffffffffffffffffffffff166014611edc565b6114668360001c6020611edc565b6040516020016114779291906134a1565b6040516020818303038152906040526040517f08c379a00000000000000000000000000000000000000000000000000000000081526004016114b991906135a1565b60405180910390fd5b5050565b600081600001549050919050565b6114dd826112fc565b61151c576040517f08c379a000000000000000000000000000000000000000000000000000000000815260040161151390613743565b60405180910390fd5b80600660008481526020019081526020016000209080519060200190611543929190612b21565b505050565b6000611553826112fc565b611592576040517f08c379a0000000000000000000000000000000000000000000000000000000008152600401611589906136a3565b60405180910390fd5b600061159d83610c7a565b90508073ffffffffffffffffffffffffffffffffffffffff168473ffffffffffffffffffffffffffffffffffffffff16148061160c57508373ffffffffffffffffffffffffffffffffffffffff166115f484610691565b73ffffffffffffffffffffffffffffffffffffffff16145b8061161d575061161c81856111ee565b5b91505092915050565b8273ffffffffffffffffffffffffffffffffffffffff1661164682610c7a565b73ffffffffffffffffffffffffffffffffffffffff161461169c576040517f08c379a0000000000000000000000000000000000000000000000000000000008152600401611693906137c3565b60405180910390fd5b600073ffffffffffffffffffffffffffffffffffffffff168273ffffffffffffffffffffffffffffffffffffffff16141561170c576040517f08c379a000000000000000000000000000000000000000000000000000000000815260040161170390613663565b60405180910390fd5b6117178383836121d6565b611722600082611370565b6001600360008573ffffffffffffffffffffffffffffffffffffffff1673ffffffffffffffffffffffffffffffffffffffff16815260200190815260200160002060008282546117729190613a49565b925050819055506001600360008473ffffffffffffffffffffffffffffffffffffffff1673ffffffffffffffffffffffffffffffffffffffff16815260200190815260200160002060008282546117c99190613968565b92505081905550816002600083815260200190815260200160002060006101000a81548173ffffffffffffffffffffffffffffffffffffffff021916908373ffffffffffffffffffffffffffffffffffffffff160217905550808273ffffffffffffffffffffffffffffffffffffffff168473ffffffffffffffffffffffffffffffffffffffff167fddf252ad1be2c89b69c2b068fc378daa952ba7f163c4a11628f55a4df523b3ef60405160405180910390a4505050565b61188c8282610e84565b61195f5760016009600084815260200190815260200160002060000160008373ffffffffffffffffffffffffffffffffffffffff1673ffffffffffffffffffffffffffffffffffffffff16815260200190815260200160002060006101000a81548160ff021916908315150217905550611904611368565b73ffffffffffffffffffffffffffffffffffffffff168173ffffffffffffffffffffffffffffffffffffffff16837f2f8788117e7eff1d82e926ec794901d17c78024a50270940304540a733656f0d60405160405180910390a45b5050565b61196d8282610e84565b15611a415760006009600084815260200190815260200160002060000160008373ffffffffffffffffffffffffffffffffffffffff1673ffffffffffffffffffffffffffffffffffffffff16815260200190815260200160002060006101000a81548160ff0219169083151502179055506119e6611368565b73ffffffffffffffffffffffffffffffffffffffff168173ffffffffffffffffffffffffffffffffffffffff16837ff6391f5c32d9c69d2a47ea670b442974b53935d1edc7fd64eb21e047a839171b60405160405180910390a45b5050565b611a4d610c63565b611a8c576040517f08c379a0000000000000000000000000000000000000000000000000000000008152600401611a83906135e3565b60405180910390fd5b6000600860006101000a81548160ff0219169083151502179055507f5db9ee0a495bf2e6ff9c91a7834c1ba4fdd244a5e8aa4e537bd38aeae4b073aa611ad0611368565b604051611add91906134db565b60405180910390a1565b6001816000016000828254019250508190555050565b611b1782826040518060200160405280600081525061222e565b5050565b611b2481612289565b50565b611b2f610c63565b15611b6f576040517f08c379a0000000000000000000000000000000000000000000000000000000008152600401611b66906136c3565b60405180910390fd5b6001600860006101000a81548160ff0219169083151502179055507f62e78cea01bee320cd4e420270b5ea74000d11b0c9f74754ebdbfc544b05a258611bb3611368565b604051611bc091906134db565b60405180910390a1565b612710811115611c0f576040517f08c379a0000000000000000000000000000000000000000000000000000000008152600401611c0690613603565b60405180910390fd5b60405180604001604052808373ffffffffffffffffffffffffffffffffffffffff1681526020018262ffffff16815250600760008201518160000160006101000a81548173ffffffffffffffffffffffffffffffffffffffff021916908373ffffffffffffffffffffffffffffffffffffffff16021790555060208201518160000160146101000a81548162ffffff021916908362ffffff1602179055509050505050565b611cbf848484611626565b611ccb848484846122dc565b611d0a576040517f08c379a0000000000000000000000000000000000000000000000000000000008152600401611d0190613623565b60405180910390fd5b50505050565b6060611d1b826112fc565b611d5a576040517f08c379a0000000000000000000000000000000000000000000000000000000008152600401611d5190613783565b60405180910390fd5b6000600660008481526020019081526020016000208054611d7a90613b67565b80601f0160208091040260200160405190810160405280929190818152602001828054611da690613b67565b8015611df35780601f10611dc857610100808354040283529160200191611df3565b820191906000526020600020905b815481529060010190602001808311611dd657829003601f168201915b505050505090506000611e04612473565b9050600081511415611e1a578192505050611e5d565b600082511115611e4f578082604051602001611e3792919061347d565b60405160208183030381529060405292505050611e5d565b611e588461248a565b925050505b919050565b60007f2a55205a000000000000000000000000000000000000000000000000000000007bffffffffffffffffffffffffffffffffffffffffffffffffffffffff1916827bffffffffffffffffffffffffffffffffffffffffffffffffffffffff19161480611ed55750611ed482612531565b5b9050919050565b606060006002836002611eef91906139ef565b611ef99190613968565b67ffffffffffffffff811115611f38577f4e487b7100000000000000000000000000000000000000000000000000000000600052604160045260246000fd5b6040519080825280601f01601f191660200182016040528015611f6a5781602001600182028036833780820191505090505b5090507f300000000000000000000000000000000000000000000000000000000000000081600081518110611fc8577f4e487b7100000000000000000000000000000000000000000000000000000000600052603260045260246000fd5b60200101907effffffffffffffffffffffffffffffffffffffffffffffffffffffffffffff1916908160001a9053507f780000000000000000000000000000000000000000000000000000000000000081600181518110612052577f4e487b7100000000000000000000000000000000000000000000000000000000600052603260045260246000fd5b60200101907effffffffffffffffffffffffffffffffffffffffffffffffffffffffffffff1916908160001a9053506000600184600261209291906139ef565b61209c9190613968565b90505b6001811115612188577f3031323334353637383961626364656600000000000000000000000000000000600f861660108110612104577f4e487b7100000000000000000000000000000000000000000000000000000000600052603260045260246000fd5b1a60f81b828281518110612141577f4e487b7100000000000000000000000000000000000000000000000000000000600052603260045260246000fd5b60200101907effffffffffffffffffffffffffffffffffffffffffffffffffffffffffffff1916908160001a905350600485901c94508061218190613b3d565b905061209f565b50600084146121cc576040517f08c379a00000000000000000000000000000000000000000000000000000000081526004016121c3906135c3565b60405180910390fd5b8091505092915050565b6121de610c63565b1561221e576040517f08c379a0000000000000000000000000000000000000000000000000000000008152600401612215906136c3565b60405180910390fd5b612229838383612613565b505050565b6122388383612618565b61224560008484846122dc565b612284576040517f08c379a000000000000000000000000000000000000000000000000000000000815260040161227b90613623565b60405180910390fd5b505050565b612292816127e6565b60006006600083815260200190815260200160002080546122b290613b67565b9050146122d9576006600082815260200190815260200160002060006122d89190612ba7565b5b50565b60006122fd8473ffffffffffffffffffffffffffffffffffffffff166128f7565b15612466578373ffffffffffffffffffffffffffffffffffffffff1663150b7a02612326611368565b8786866040518563ffffffff1660e01b815260040161234894939291906134f6565b602060405180830381600087803b15801561236257600080fd5b505af192505050801561239357506040513d601f19601f820116820180604052508101906123909190612f87565b60015b612416573d80600081146123c3576040519150601f19603f3d011682016040523d82523d6000602084013e6123c8565b606091505b5060008151141561240e576040517f08c379a000000000000000000000000000000000000000000000000000000000815260040161240590613623565b60405180910390fd5b805181602001fd5b63150b7a0260e01b7bffffffffffffffffffffffffffffffffffffffffffffffffffffffff1916817bffffffffffffffffffffffffffffffffffffffffffffffffffffffff19161491505061246b565b600190505b949350505050565b606060405180602001604052806000815250905090565b6060612495826112fc565b6124d4576040517f08c379a00000000000000000000000000000000000000000000000000000000081526004016124cb906137e3565b60405180910390fd5b60006124de612473565b905060008151116124fe5760405180602001604052806000815250612529565b806125088461290a565b60405160200161251992919061347d565b6040516020818303038152906040525b915050919050565b60007f80ac58cd000000000000000000000000000000000000000000000000000000007bffffffffffffffffffffffffffffffffffffffffffffffffffffffff1916827bffffffffffffffffffffffffffffffffffffffffffffffffffffffff191614806125fc57507f5b5e139f000000000000000000000000000000000000000000000000000000007bffffffffffffffffffffffffffffffffffffffffffffffffffffffff1916827bffffffffffffffffffffffffffffffffffffffffffffffffffffffff1916145b8061260c575061260b82612ab7565b5b9050919050565b505050565b600073ffffffffffffffffffffffffffffffffffffffff168273ffffffffffffffffffffffffffffffffffffffff161415612688576040517f08c379a000000000000000000000000000000000000000000000000000000000815260040161267f90613763565b60405180910390fd5b612691816112fc565b156126d1576040517f08c379a00000000000000000000000000000000000000000000000000000000081526004016126c890613643565b60405180910390fd5b6126dd600083836121d6565b6001600360008473ffffffffffffffffffffffffffffffffffffffff1673ffffffffffffffffffffffffffffffffffffffff168152602001908152602001600020600082825461272d9190613968565b92505081905550816002600083815260200190815260200160002060006101000a81548173ffffffffffffffffffffffffffffffffffffffff021916908373ffffffffffffffffffffffffffffffffffffffff160217905550808273ffffffffffffffffffffffffffffffffffffffff16600073ffffffffffffffffffffffffffffffffffffffff167fddf252ad1be2c89b69c2b068fc378daa952ba7f163c4a11628f55a4df523b3ef60405160405180910390a45050565b60006127f182610c7a565b90506127ff816000846121d6565b61280a600083611370565b6001600360008373ffffffffffffffffffffffffffffffffffffffff1673ffffffffffffffffffffffffffffffffffffffff168152602001908152602001600020600082825461285a9190613a49565b925050819055506002600083815260200190815260200160002060006101000a81549073ffffffffffffffffffffffffffffffffffffffff021916905581600073ffffffffffffffffffffffffffffffffffffffff168273ffffffffffffffffffffffffffffffffffffffff167fddf252ad1be2c89b69c2b068fc378daa952ba7f163c4a11628f55a4df523b3ef60405160405180910390a45050565b600080823b905060008111915050919050565b60606000821415612952576040518060400160405280600181526020017f30000000000000000000000000000000000000000000000000000000000000008152509050612ab2565b600082905060005b6000821461298457808061296d90613bca565b915050600a8261297d91906139be565b915061295a565b60008167ffffffffffffffff8111156129c6577f4e487b7100000000000000000000000000000000000000000000000000000000600052604160045260246000fd5b6040519080825280601f01601f1916602001820160405280156129f85781602001600182028036833780820191505090505b5090505b60008514612aab57600182612a119190613a49565b9150600a85612a209190613c13565b6030612a2c9190613968565b60f81b818381518110612a68577f4e487b7100000000000000000000000000000000000000000000000000000000600052603260045260246000fd5b60200101907effffffffffffffffffffffffffffffffffffffffffffffffffffffffffffff1916908160001a905350600a85612aa491906139be565b94506129fc565b8093505050505b919050565b60007f01ffc9a7000000000000000000000000000000000000000000000000000000007bffffffffffffffffffffffffffffffffffffffffffffffffffffffff1916827bffffffffffffffffffffffffffffffffffffffffffffffffffffffff1916149050919050565b828054612b2d90613b67565b90600052602060002090601f016020900481019282612b4f5760008555612b96565b82601f10612b6857805160ff1916838001178555612b96565b82800160010185558215612b96579182015b82811115612b95578251825591602001919060010190612b7a565b5b509050612ba39190612be7565b5090565b508054612bb390613b67565b6000825580601f10612bc55750612be4565b601f016020900490600052602060002090810190612be39190612be7565b5b50565b5b80821115612c00576000816000905550600101612be8565b5090565b6000612c17612c12846138c3565b61389e565b905082815260208101848484011115612c2f57600080fd5b612c3a848285613afb565b509392505050565b6000612c55612c50846138f4565b61389e565b905082815260208101848484011115612c6d57600080fd5b612c78848285613afb565b509392505050565b600081359050612c8f81614323565b92915050565b600081359050612ca48161433a565b92915050565b600081359050612cb981614351565b92915050565b600081359050612cce81614368565b92915050565b600081519050612ce381614368565b92915050565b600082601f830112612cfa57600080fd5b8135612d0a848260208601612c04565b91505092915050565b600082601f830112612d2457600080fd5b8135612d34848260208601612c42565b91505092915050565b600081359050612d4c8161437f565b92915050565b600060208284031215612d6457600080fd5b6000612d7284828501612c80565b91505092915050565b60008060408385031215612d8e57600080fd5b6000612d9c85828601612c80565b9250506020612dad85828601612c80565b9150509250929050565b600080600060608486031215612dcc57600080fd5b6000612dda86828701612c80565b9350506020612deb86828701612c80565b9250506040612dfc86828701612d3d565b9150509250925092565b60008060008060808587031215612e1c57600080fd5b6000612e2a87828801612c80565b9450506020612e3b87828801612c80565b9350506040612e4c87828801612d3d565b925050606085013567ffffffffffffffff811115612e6957600080fd5b612e7587828801612ce9565b91505092959194509250565b60008060408385031215612e9457600080fd5b6000612ea285828601612c80565b9250506020612eb385828601612c95565b9150509250929050565b60008060408385031215612ed057600080fd5b6000612ede85828601612c80565b9250506020612eef85828601612d3d565b9150509250929050565b600060208284031215612f0b57600080fd5b6000612f1984828501612caa565b91505092915050565b60008060408385031215612f3557600080fd5b6000612f4385828601612caa565b9250506020612f5485828601612c80565b9150509250929050565b600060208284031215612f7057600080fd5b6000612f7e84828501612cbf565b91505092915050565b600060208284031215612f9957600080fd5b6000612fa784828501612cd4565b91505092915050565b600060208284031215612fc257600080fd5b600082013567ffffffffffffffff811115612fdc57600080fd5b612fe884828501612d13565b91505092915050565b60006020828403121561300357600080fd5b600061301184828501612d3d565b91505092915050565b6000806040838503121561302d57600080fd5b600061303b85828601612d3d565b925050602061304c85828601612d3d565b9150509250929050565b61305f81613a7d565b82525050565b61306e81613a8f565b82525050565b61307d81613a9b565b82525050565b600061308e82613925565b613098818561393b565b93506130a8818560208601613b0a565b6130b181613d00565b840191505092915050565b60006130c782613930565b6130d1818561394c565b93506130e1818560208601613b0a565b6130ea81613d00565b840191505092915050565b600061310082613930565b61310a818561395d565b935061311a818560208601613b0a565b80840191505092915050565b600061313360208361394c565b915061313e82613d11565b602082019050919050565b600061315660148361394c565b915061316182613d3a565b602082019050919050565b6000613179601a8361394c565b915061318482613d63565b602082019050919050565b600061319c60328361394c565b91506131a782613d8c565b604082019050919050565b60006131bf601c8361394c565b91506131ca82613ddb565b602082019050919050565b60006131e260248361394c565b91506131ed82613e04565b604082019050919050565b600061320560198361394c565b915061321082613e53565b602082019050919050565b6000613228602c8361394c565b915061323382613e7c565b604082019050919050565b600061324b60108361394c565b915061325682613ecb565b602082019050919050565b600061326e60388361394c565b915061327982613ef4565b604082019050919050565b6000613291602a8361394c565b915061329c82613f43565b604082019050919050565b60006132b460298361394c565b91506132bf82613f92565b604082019050919050565b60006132d7602e8361394c565b91506132e282613fe1565b604082019050919050565b60006132fa60208361394c565b915061330582614030565b602082019050919050565b600061331d60318361394c565b915061332882614059565b604082019050919050565b6000613340602c8361394c565b915061334b826140a8565b604082019050919050565b600061336360298361394c565b915061336e826140f7565b604082019050919050565b6000613386602f8361394c565b915061339182614146565b604082019050919050565b60006133a960218361394c565b91506133b482614195565b604082019050919050565b60006133cc60318361394c565b91506133d7826141e4565b604082019050919050565b60006133ef60178361395d565b91506133fa82614233565b601782019050919050565b600061341260308361394c565b915061341d8261425c565b604082019050919050565b600061343560118361395d565b9150613440826142ab565b601182019050919050565b6000613458602f8361394c565b9150613463826142d4565b604082019050919050565b61347781613af1565b82525050565b600061348982856130f5565b915061349582846130f5565b91508190509392505050565b60006134ac826133e2565b91506134b882856130f5565b91506134c382613428565b91506134cf82846130f5565b91508190509392505050565b60006020820190506134f06000830184613056565b92915050565b600060808201905061350b6000830187613056565b6135186020830186613056565b613525604083018561346e565b81810360608301526135378184613083565b905095945050505050565b60006040820190506135576000830185613056565b613564602083018461346e565b9392505050565b60006020820190506135806000830184613065565b92915050565b600060208201905061359b6000830184613074565b92915050565b600060208201905081810360008301526135bb81846130bc565b905092915050565b600060208201905081810360008301526135dc81613126565b9050919050565b600060208201905081810360008301526135fc81613149565b9050919050565b6000602082019050818103600083015261361c8161316c565b9050919050565b6000602082019050818103600083015261363c8161318f565b9050919050565b6000602082019050818103600083015261365c816131b2565b9050919050565b6000602082019050818103600083015261367c816131d5565b9050919050565b6000602082019050818103600083015261369c816131f8565b9050919050565b600060208201905081810360008301526136bc8161321b565b9050919050565b600060208201905081810360008301526136dc8161323e565b9050919050565b600060208201905081810360008301526136fc81613261565b9050919050565b6000602082019050818103600083015261371c81613284565b9050919050565b6000602082019050818103600083015261373c816132a7565b9050919050565b6000602082019050818103600083015261375c816132ca565b9050919050565b6000602082019050818103600083015261377c816132ed565b9050919050565b6000602082019050818103600083015261379c81613310565b9050919050565b600060208201905081810360008301526137bc81613333565b9050919050565b600060208201905081810360008301526137dc81613356565b9050919050565b600060208201905081810360008301526137fc81613379565b9050919050565b6000602082019050818103600083015261381c8161339c565b9050919050565b6000602082019050818103600083015261383c816133bf565b9050919050565b6000602082019050818103600083015261385c81613405565b9050919050565b6000602082019050818103600083015261387c8161344b565b9050919050565b6000602082019050613898600083018461346e565b92915050565b60006138a86138b9565b90506138b48282613b99565b919050565b6000604051905090565b600067ffffffffffffffff8211156138de576138dd613cd1565b5b6138e782613d00565b9050602081019050919050565b600067ffffffffffffffff82111561390f5761390e613cd1565b5b61391882613d00565b9050602081019050919050565b600081519050919050565b600081519050919050565b600082825260208201905092915050565b600082825260208201905092915050565b600081905092915050565b600061397382613af1565b915061397e83613af1565b9250827fffffffffffffffffffffffffffffffffffffffffffffffffffffffffffffffff038211156139b3576139b2613c44565b5b828201905092915050565b60006139c982613af1565b91506139d483613af1565b9250826139e4576139e3613c73565b5b828204905092915050565b60006139fa82613af1565b9150613a0583613af1565b9250817fffffffffffffffffffffffffffffffffffffffffffffffffffffffffffffffff0483118215151615613a3e57613a3d613c44565b5b828202905092915050565b6000613a5482613af1565b9150613a5f83613af1565b925082821015613a7257613a71613c44565b5b828203905092915050565b6000613a8882613ad1565b9050919050565b60008115159050919050565b6000819050919050565b60007fffffffff0000000000000000000000000000000000000000000000000000000082169050919050565b600073ffffffffffffffffffffffffffffffffffffffff82169050919050565b6000819050919050565b82818337600083830152505050565b60005b83811015613b28578082015181840152602081019050613b0d565b83811115613b37576000848401525b50505050565b6000613b4882613af1565b91506000821415613b5c57613b5b613c44565b5b600182039050919050565b60006002820490506001821680613b7f57607f821691505b60208210811415613b9357613b92613ca2565b5b50919050565b613ba282613d00565b810181811067ffffffffffffffff82111715613bc157613bc0613cd1565b5b80604052505050565b6000613bd582613af1565b91507fffffffffffffffffffffffffffffffffffffffffffffffffffffffffffffffff821415613c0857613c07613c44565b5b600182019050919050565b6000613c1e82613af1565b9150613c2983613af1565b925082613c3957613c38613c73565b5b828206905092915050565b7f4e487b7100000000000000000000000000000000000000000000000000000000600052601160045260246000fd5b7f4e487b7100000000000000000000000000000000000000000000000000000000600052601260045260246000fd5b7f4e487b7100000000000000000000000000000000000000000000000000000000600052602260045260246000fd5b7f4e487b7100000000000000000000000000000000000000000000000000000000600052604160045260246000fd5b6000601f19601f8301169050919050565b7f537472696e67733a20686578206c656e67746820696e73756666696369656e74600082015250565b7f5061757361626c653a206e6f7420706175736564000000000000000000000000600082015250565b7f45524332393831526f79616c746965733a20546f6f2068696768000000000000600082015250565b7f4552433732313a207472616e7366657220746f206e6f6e20455243373231526560008201527f63656976657220696d706c656d656e7465720000000000000000000000000000602082015250565b7f4552433732313a20746f6b656e20616c7265616479206d696e74656400000000600082015250565b7f4552433732313a207472616e7366657220746f20746865207a65726f2061646460008201527f7265737300000000000000000000000000000000000000000000000000000000602082015250565b7f4552433732313a20617070726f766520746f2063616c6c657200000000000000600082015250565b7f4552433732313a206f70657261746f7220717565727920666f72206e6f6e657860008201527f697374656e7420746f6b656e0000000000000000000000000000000000000000602082015250565b7f5061757361626c653a2070617573656400000000000000000000000000000000600082015250565b7f4552433732313a20617070726f76652063616c6c6572206973206e6f74206f7760008201527f6e6572206e6f7220617070726f76656420666f7220616c6c0000000000000000602082015250565b7f4552433732313a2062616c616e636520717565727920666f7220746865207a6560008201527f726f206164647265737300000000000000000000000000000000000000000000602082015250565b7f4552433732313a206f776e657220717565727920666f72206e6f6e657869737460008201527f656e7420746f6b656e0000000000000000000000000000000000000000000000602082015250565b7f45524337323155524953746f726167653a2055524920736574206f66206e6f6e60008201527f6578697374656e7420746f6b656e000000000000000000000000000000000000602082015250565b7f4552433732313a206d696e7420746f20746865207a65726f2061646472657373600082015250565b7f45524337323155524953746f726167653a2055524920717565727920666f722060008201527f6e6f6e6578697374656e7420746f6b656e000000000000000000000000000000602082015250565b7f4552433732313a20617070726f76656420717565727920666f72206e6f6e657860008201527f697374656e7420746f6b656e0000000000000000000000000000000000000000602082015250565b7f4552433732313a207472616e73666572206f6620746f6b656e2074686174206960008201527f73206e6f74206f776e0000000000000000000000000000000000000000000000602082015250565b7f4552433732314d657461646174613a2055524920717565727920666f72206e6f60008201527f6e6578697374656e7420746f6b656e0000000000000000000000000000000000602082015250565b7f4552433732313a20617070726f76616c20746f2063757272656e74206f776e6560008201527f7200000000000000000000000000000000000000000000000000000000000000602082015250565b7f4552433732313a207472616e736665722063616c6c6572206973206e6f74206f60008201527f776e6572206e6f7220617070726f766564000000000000000000000000000000602082015250565b7f416363657373436f6e74726f6c3a206163636f756e7420000000000000000000600082015250565b7f4552433732314275726e61626c653a2063616c6c6572206973206e6f74206f7760008201527f6e6572206e6f7220617070726f76656400000000000000000000000000000000602082015250565b7f206973206d697373696e6720726f6c6520000000000000000000000000000000600082015250565b7f416363657373436f6e74726f6c3a2063616e206f6e6c792072656e6f756e636560008201527f20726f6c657320666f722073656c660000000000000000000000000000000000602082015250565b61432c81613a7d565b811461433757600080fd5b50565b61434381613a8f565b811461434e57600080fd5b50565b61435a81613a9b565b811461436557600080fd5b50565b61437181613aa5565b811461437c57600080fd5b50565b61438881613af1565b811461439357600080fd5b5056fea2646970667358221220c770baddd2b0075fa653d4f955850b48522089aaf9157233df401e49f31d1a1a64736f6c6343000802003361723a2f2f6d6a6d5a6c32344950515744436b41504f7866657a64766d4266334a6f3576356f545f786846436e492d30",
  "linkReferences": {},
  "deployedLinkReferences": {}
}