{
  "_format": "hh-sol-artifact-1",
  "contractName": "AnvilTheForge",
  "sourceName": "contracts/TheForgeOLD.sol",
  "abi": [
    {
      "inputs": [],
      "stateMutability": "nonpayable",
      "type": "constructor"
    },
    {
      "anonymous": false,
      "inputs": [
        {
          "indexed": true,
          "internalType": "address",
          "name": "owner",
          "type": "address"
        },
        {
          "indexed": true,
          "internalType": "address",
          "name": "approved",
          "type": "address"
        },
        {
          "indexed": true,
          "internalType": "uint256",
          "name": "tokenId",
          "type": "uint256"
        }
      ],
      "name": "Approval",
      "type": "event"
    },
    {
      "anonymous": false,
      "inputs": [
        {
          "indexed": true,
          "internalType": "address",
          "name": "owner",
          "type": "address"
        },
        {
          "indexed": true,
          "internalType": "address",
          "name": "operator",
          "type": "address"
        },
        {
          "indexed": false,
          "internalType": "bool",
          "name": "approved",
          "type": "bool"
        }
      ],
      "name": "ApprovalForAll",
      "type": "event"
    },
    {
      "anonymous": false,
      "inputs": [
        {
          "indexed": false,
          "internalType": "address",
          "name": "account",
          "type": "address"
        }
      ],
      "name": "Paused",
      "type": "event"
    },
    {
      "anonymous": false,
      "inputs": [
        {
          "indexed": true,
          "internalType": "bytes32",
          "name": "role",
          "type": "bytes32"
        },
        {
          "indexed": true,
          "internalType": "bytes32",
          "name": "previousAdminRole",
          "type": "bytes32"
        },
        {
          "indexed": true,
          "internalType": "bytes32",
          "name": "newAdminRole",
          "type": "bytes32"
        }
      ],
      "name": "RoleAdminChanged",
      "type": "event"
    },
    {
      "anonymous": false,
      "inputs": [
        {
          "indexed": true,
          "internalType": "bytes32",
          "name": "role",
          "type": "bytes32"
        },
        {
          "indexed": true,
          "internalType": "address",
          "name": "account",
          "type": "address"
        },
        {
          "indexed": true,
          "internalType": "address",
          "name": "sender",
          "type": "address"
        }
      ],
      "name": "RoleGranted",
      "type": "event"
    },
    {
      "anonymous": false,
      "inputs": [
        {
          "indexed": true,
          "internalType": "bytes32",
          "name": "role",
          "type": "bytes32"
        },
        {
          "indexed": true,
          "internalType": "address",
          "name": "account",
          "type": "address"
        },
        {
          "indexed": true,
          "internalType": "address",
          "name": "sender",
          "type": "address"
        }
      ],
      "name": "RoleRevoked",
      "type": "event"
    },
    {
      "anonymous": false,
      "inputs": [
        {
          "indexed": true,
          "internalType": "address",
          "name": "from",
          "type": "address"
        },
        {
          "indexed": true,
          "internalType": "address",
          "name": "to",
          "type": "address"
        },
        {
          "indexed": true,
          "internalType": "uint256",
          "name": "tokenId",
          "type": "uint256"
        }
      ],
      "name": "Transfer",
      "type": "event"
    },
    {
      "anonymous": false,
      "inputs": [
        {
          "indexed": false,
          "internalType": "address",
          "name": "account",
          "type": "address"
        }
      ],
      "name": "Unpaused",
      "type": "event"
    },
    {
      "inputs": [],
      "name": "BURNER_ROLE",
      "outputs": [
        {
          "internalType": "bytes32",
          "name": "",
          "type": "bytes32"
        }
      ],
      "stateMutability": "view",
      "type": "function"
    },
    {
      "inputs": [],
      "name": "DEFAULT_ADMIN_ROLE",
      "outputs": [
        {
          "internalType": "bytes32",
          "name": "",
          "type": "bytes32"
        }
      ],
      "stateMutability": "view",
      "type": "function"
    },
    {
      "inputs": [],
      "name": "MINTER_ROLE",
      "outputs": [
        {
          "internalType": "bytes32",
          "name": "",
          "type": "bytes32"
        }
      ],
      "stateMutability": "view",
      "type": "function"
    },
    {
      "inputs": [],
      "name": "PAUSER_ROLE",
      "outputs": [
        {
          "internalType": "bytes32",
          "name": "",
          "type": "bytes32"
        }
      ],
      "stateMutability": "view",
      "type": "function"
    },
    {
      "inputs": [
        {
          "internalType": "address",
          "name": "to",
          "type": "address"
        },
        {
          "internalType": "uint256",
          "name": "tokenId",
          "type": "uint256"
        }
      ],
      "name": "approve",
      "outputs": [],
      "stateMutability": "nonpayable",
      "type": "function"
    },
    {
      "inputs": [
        {
          "internalType": "address",
          "name": "owner",
          "type": "address"
        }
      ],
      "name": "balanceOf",
      "outputs": [
        {
          "internalType": "uint256",
          "name": "",
          "type": "uint256"
        }
      ],
      "stateMutability": "view",
      "type": "function"
    },
    {
      "inputs": [
        {
          "internalType": "uint256",
          "name": "tokenId",
          "type": "uint256"
        }
      ],
      "name": "burn",
      "outputs": [],
      "stateMutability": "nonpayable",
      "type": "function"
    },
    {
      "inputs": [
        {
          "internalType": "uint256",
          "name": "tokenId",
          "type": "uint256"
        }
      ],
      "name": "forcedBurn",
      "outputs": [],
      "stateMutability": "nonpayable",
      "type": "function"
    },
    {
      "inputs": [
        {
          "internalType": "uint256",
          "name": "tokenId",
          "type": "uint256"
        }
      ],
      "name": "getApproved",
      "outputs": [
        {
          "internalType": "address",
          "name": "",
          "type": "address"
        }
      ],
      "stateMutability": "view",
      "type": "function"
    },
    {
      "inputs": [
        {
          "internalType": "bytes32",
          "name": "role",
          "type": "bytes32"
        }
      ],
      "name": "getRoleAdmin",
      "outputs": [
        {
          "internalType": "bytes32",
          "name": "",
          "type": "bytes32"
        }
      ],
      "stateMutability": "view",
      "type": "function"
    },
    {
      "inputs": [
        {
          "internalType": "bytes32",
          "name": "role",
          "type": "bytes32"
        },
        {
          "internalType": "address",
          "name": "account",
          "type": "address"
        }
      ],
      "name": "grantRole",
      "outputs": [],
      "stateMutability": "nonpayable",
      "type": "function"
    },
    {
      "inputs": [
        {
          "internalType": "bytes32",
          "name": "role",
          "type": "bytes32"
        },
        {
          "internalType": "address",
          "name": "account",
          "type": "address"
        }
      ],
      "name": "hasRole",
      "outputs": [
        {
          "internalType": "bool",
          "name": "",
          "type": "bool"
        }
      ],
      "stateMutability": "view",
      "type": "function"
    },
    {
      "inputs": [
        {
          "internalType": "address",
          "name": "owner",
          "type": "address"
        },
        {
          "internalType": "address",
          "name": "operator",
          "type": "address"
        }
      ],
      "name": "isApprovedForAll",
      "outputs": [
        {
          "internalType": "bool",
          "name": "",
          "type": "bool"
        }
      ],
      "stateMutability": "view",
      "type": "function"
    },
    {
      "inputs": [],
      "name": "name",
      "outputs": [
        {
          "internalType": "string",
          "name": "",
          "type": "string"
        }
      ],
      "stateMutability": "view",
      "type": "function"
    },
    {
      "inputs": [
        {
          "internalType": "uint256",
          "name": "tokenId",
          "type": "uint256"
        }
      ],
      "name": "ownerOf",
      "outputs": [
        {
          "internalType": "address",
          "name": "",
          "type": "address"
        }
      ],
      "stateMutability": "view",
      "type": "function"
    },
    {
      "inputs": [],
      "name": "pause",
      "outputs": [],
      "stateMutability": "nonpayable",
      "type": "function"
    },
    {
      "inputs": [],
      "name": "paused",
      "outputs": [
        {
          "internalType": "bool",
          "name": "",
          "type": "bool"
        }
      ],
      "stateMutability": "view",
      "type": "function"
    },
    {
      "inputs": [
        {
          "internalType": "bytes32",
          "name": "role",
          "type": "bytes32"
        },
        {
          "internalType": "address",
          "name": "account",
          "type": "address"
        }
      ],
      "name": "renounceRole",
      "outputs": [],
      "stateMutability": "nonpayable",
      "type": "function"
    },
    {
      "inputs": [
        {
          "internalType": "bytes32",
          "name": "role",
          "type": "bytes32"
        },
        {
          "internalType": "address",
          "name": "account",
          "type": "address"
        }
      ],
      "name": "revokeRole",
      "outputs": [],
      "stateMutability": "nonpayable",
      "type": "function"
    },
    {
      "inputs": [
        {
          "internalType": "address",
          "name": "to",
          "type": "address"
        },
        {
          "internalType": "string",
          "name": "uri",
          "type": "string"
        }
      ],
      "name": "safeMint",
      "outputs": [],
      "stateMutability": "nonpayable",
      "type": "function"
    },
    {
      "inputs": [
        {
          "internalType": "address",
          "name": "from",
          "type": "address"
        },
        {
          "internalType": "address",
          "name": "to",
          "type": "address"
        },
        {
          "internalType": "uint256",
          "name": "tokenId",
          "type": "uint256"
        }
      ],
      "name": "safeTransferFrom",
      "outputs": [],
      "stateMutability": "nonpayable",
      "type": "function"
    },
    {
      "inputs": [
        {
          "internalType": "address",
          "name": "from",
          "type": "address"
        },
        {
          "internalType": "address",
          "name": "to",
          "type": "address"
        },
        {
          "internalType": "uint256",
          "name": "tokenId",
          "type": "uint256"
        },
        {
          "internalType": "bytes",
          "name": "_data",
          "type": "bytes"
        }
      ],
      "name": "safeTransferFrom",
      "outputs": [],
      "stateMutability": "nonpayable",
      "type": "function"
    },
    {
      "inputs": [
        {
          "internalType": "address",
          "name": "operator",
          "type": "address"
        },
        {
          "internalType": "bool",
          "name": "approved",
          "type": "bool"
        }
      ],
      "name": "setApprovalForAll",
      "outputs": [],
      "stateMutability": "nonpayable",
      "type": "function"
    },
    {
      "inputs": [
        {
          "internalType": "bytes4",
          "name": "interfaceId",
          "type": "bytes4"
        }
      ],
      "name": "supportsInterface",
      "outputs": [
        {
          "internalType": "bool",
          "name": "",
          "type": "bool"
        }
      ],
      "stateMutability": "view",
      "type": "function"
    },
    {
      "inputs": [],
      "name": "symbol",
      "outputs": [
        {
          "internalType": "string",
          "name": "",
          "type": "string"
        }
      ],
      "stateMutability": "view",
      "type": "function"
    },
    {
      "inputs": [
        {
          "internalType": "uint256",
          "name": "tokenId",
          "type": "uint256"
        }
      ],
      "name": "tokenURI",
      "outputs": [
        {
          "internalType": "string",
          "name": "",
          "type": "string"
        }
      ],
      "stateMutability": "view",
      "type": "function"
    },
    {
      "inputs": [
        {
          "internalType": "address",
          "name": "from",
          "type": "address"
        },
        {
          "internalType": "address",
          "name": "to",
          "type": "address"
        },
        {
          "internalType": "uint256",
          "name": "tokenId",
          "type": "uint256"
        }
      ],
      "name": "transferFrom",
      "outputs": [],
      "stateMutability": "nonpayable",
      "type": "function"
    },
    {
      "inputs": [],
      "name": "unpause",
      "outputs": [],
      "stateMutability": "nonpayable",
      "type": "function"
    }
  ],
  "bytecode": "0x60806040523480156200001157600080fd5b506040518060400160405280600d81526020017f416e76696c546865466f726765000000000000000000000000000000000000008152506040518060400160405280600381526020017f4154460000000000000000000000000000000000000000000000000000000000815250816000908051906020019062000096929190620002f9565b508060019080519060200190620000af929190620002f9565b5050506000600760006101000a81548160ff021916908315150217905550620000e26000801b336200017e60201b60201c565b620001147f65d7a28e3265b37a6474929f336521b332c1681b933f6cb9f3376673440d862a336200017e60201b60201c565b620001467f9f2df0fed2c77648de5860a4cc508cd0818c85b8b8a1ab4ceeef8d981c8956a6336200017e60201b60201c565b620001787f3c11d16cbaffd01df69ce1c404f6340ee057498f5f00246190ea54220576a848336200017e60201b60201c565b6200040e565b6200019082826200019460201b60201c565b5050565b620001a682826200028660201b60201c565b620002825760016008600084815260200190815260200160002060000160008373ffffffffffffffffffffffffffffffffffffffff1673ffffffffffffffffffffffffffffffffffffffff16815260200190815260200160002060006101000a81548160ff02191690831515021790555062000227620002f160201b60201c565b73ffffffffffffffffffffffffffffffffffffffff168173ffffffffffffffffffffffffffffffffffffffff16837f2f8788117e7eff1d82e926ec794901d17c78024a50270940304540a733656f0d60405160405180910390a45b5050565b60006008600084815260200190815260200160002060000160008373ffffffffffffffffffffffffffffffffffffffff1673ffffffffffffffffffffffffffffffffffffffff16815260200190815260200160002060009054906101000a900460ff16905092915050565b600033905090565b8280546200030790620003a9565b90600052602060002090601f0160209004810192826200032b576000855562000377565b82601f106200034657805160ff191683800117855562000377565b8280016001018555821562000377579182015b828111156200037657825182559160200191906001019062000359565b5b5090506200038691906200038a565b5090565b5b80821115620003a55760008160009055506001016200038b565b5090565b60006002820490506001821680620003c257607f821691505b60208210811415620003d957620003d8620003df565b5b50919050565b7f4e487b7100000000000000000000000000000000000000000000000000000000600052602260045260246000fd5b613f34806200041e6000396000f3fe608060405234801561001057600080fd5b50600436106101c45760003560e01c80636a9f7602116100f9578063b88d4fde11610097578063d539139311610071578063d5391393146104db578063d547741f146104f9578063e63ab1e914610515578063e985e9c514610533576101c4565b8063b88d4fde14610473578063c87b56dd1461048f578063d204c45e146104bf576101c4565b806391d14854116100d357806391d14854146103eb57806395d89b411461041b578063a217fddf14610439578063a22cb46514610457576101c4565b80636a9f76021461039557806370a08231146103b15780638456cb59146103e1576101c4565b80632f2ff15d1161016657806342842e0e1161014057806342842e0e1461030f57806342966c681461032b5780635c975abb146103475780636352211e14610365576101c4565b80632f2ff15d146102cd57806336568abe146102e95780633f4ba83a14610305576101c4565b8063095ea7b3116101a2578063095ea7b31461024757806323b872dd14610263578063248a9ca31461027f578063282c51f3146102af576101c4565b806301ffc9a7146101c957806306fdde03146101f9578063081812fc14610217575b600080fd5b6101e360048036038101906101de9190612bd8565b610563565b6040516101f0919061311c565b60405180910390f35b610201610575565b60405161020e9190613152565b60405180910390f35b610231600480360381019061022c9190612c2a565b610607565b60405161023e91906130b5565b60405180910390f35b610261600480360381019061025c9190612b37565b61068c565b005b61027d600480360381019061027891906129dd565b6107a4565b005b61029960048036038101906102949190612b73565b610804565b6040516102a69190613137565b60405180910390f35b6102b7610824565b6040516102c49190613137565b60405180910390f35b6102e760048036038101906102e29190612b9c565b610848565b005b61030360048036038101906102fe9190612b9c565b610871565b005b61030d6108f4565b005b610329600480360381019061032491906129dd565b610931565b005b61034560048036038101906103409190612c2a565b610951565b005b61034f6109ad565b60405161035c919061311c565b60405180910390f35b61037f600480360381019061037a9190612c2a565b6109c4565b60405161038c91906130b5565b60405180910390f35b6103af60048036038101906103aa9190612c2a565b610a76565b005b6103cb60048036038101906103c69190612978565b610ab5565b6040516103d89190613414565b60405180910390f35b6103e9610b6d565b005b61040560048036038101906104009190612b9c565b610baa565b604051610412919061311c565b60405180910390f35b610423610c15565b6040516104309190613152565b60405180910390f35b610441610ca7565b60405161044e9190613137565b60405180910390f35b610471600480360381019061046c9190612aa7565b610cae565b005b61048d60048036038101906104889190612a2c565b610e2f565b005b6104a960048036038101906104a49190612c2a565b610e91565b6040516104b69190613152565b60405180910390f35b6104d960048036038101906104d49190612ae3565b610ea3565b005b6104e3610f07565b6040516104f09190613137565b60405180910390f35b610513600480360381019061050e9190612b9c565b610f2b565b005b61051d610f54565b60405161052a9190613137565b60405180910390f35b61054d600480360381019061054891906129a1565b610f78565b60405161055a919061311c565b60405180910390f35b600061056e8261100c565b9050919050565b606060008054610584906136f8565b80601f01602080910402602001604051908101604052809291908181526020018280546105b0906136f8565b80156105fd5780601f106105d2576101008083540402835291602001916105fd565b820191906000526020600020905b8154815290600101906020018083116105e057829003601f168201915b5050505050905090565b600061061282611086565b610651576040517f08c379a000000000000000000000000000000000000000000000000000000000815260040161064890613334565b60405180910390fd5b6004600083815260200190815260200160002060009054906101000a900473ffffffffffffffffffffffffffffffffffffffff169050919050565b6000610697826109c4565b90508073ffffffffffffffffffffffffffffffffffffffff168373ffffffffffffffffffffffffffffffffffffffff161415610708576040517f08c379a00000000000000000000000000000000000000000000000000000000081526004016106ff90613394565b60405180910390fd5b8073ffffffffffffffffffffffffffffffffffffffff166107276110f2565b73ffffffffffffffffffffffffffffffffffffffff1614806107565750610755816107506110f2565b610f78565b5b610795576040517f08c379a000000000000000000000000000000000000000000000000000000000815260040161078c90613274565b60405180910390fd5b61079f83836110fa565b505050565b6107b56107af6110f2565b826111b3565b6107f4576040517f08c379a00000000000000000000000000000000000000000000000000000000081526004016107eb906133b4565b60405180910390fd5b6107ff838383611291565b505050565b600060086000838152602001908152602001600020600101549050919050565b7f3c11d16cbaffd01df69ce1c404f6340ee057498f5f00246190ea54220576a84881565b61085182610804565b6108628161085d6110f2565b6114ed565b61086c838361158a565b505050565b6108796110f2565b73ffffffffffffffffffffffffffffffffffffffff168173ffffffffffffffffffffffffffffffffffffffff16146108e6576040517f08c379a00000000000000000000000000000000000000000000000000000000081526004016108dd906133f4565b60405180910390fd5b6108f0828261166b565b5050565b7f65d7a28e3265b37a6474929f336521b332c1681b933f6cb9f3376673440d862a610926816109216110f2565b6114ed565b61092e61174d565b50565b61094c83838360405180602001604052806000815250610e2f565b505050565b61096261095c6110f2565b826111b3565b6109a1576040517f08c379a0000000000000000000000000000000000000000000000000000000008152600401610998906133d4565b60405180910390fd5b6109aa816117ef565b50565b6000600760009054906101000a900460ff16905090565b6000806002600084815260200190815260200160002060009054906101000a900473ffffffffffffffffffffffffffffffffffffffff169050600073ffffffffffffffffffffffffffffffffffffffff168173ffffffffffffffffffffffffffffffffffffffff161415610a6d576040517f08c379a0000000000000000000000000000000000000000000000000000000008152600401610a64906132b4565b60405180910390fd5b80915050919050565b7f3c11d16cbaffd01df69ce1c404f6340ee057498f5f00246190ea54220576a848610aa881610aa36110f2565b6114ed565b610ab1826117ef565b5050565b60008073ffffffffffffffffffffffffffffffffffffffff168273ffffffffffffffffffffffffffffffffffffffff161415610b26576040517f08c379a0000000000000000000000000000000000000000000000000000000008152600401610b1d90613294565b60405180910390fd5b600360008373ffffffffffffffffffffffffffffffffffffffff1673ffffffffffffffffffffffffffffffffffffffff168152602001908152602001600020549050919050565b7f65d7a28e3265b37a6474929f336521b332c1681b933f6cb9f3376673440d862a610b9f81610b9a6110f2565b6114ed565b610ba76117fb565b50565b60006008600084815260200190815260200160002060000160008373ffffffffffffffffffffffffffffffffffffffff1673ffffffffffffffffffffffffffffffffffffffff16815260200190815260200160002060009054906101000a900460ff16905092915050565b606060018054610c24906136f8565b80601f0160208091040260200160405190810160405280929190818152602001828054610c50906136f8565b8015610c9d5780601f10610c7257610100808354040283529160200191610c9d565b820191906000526020600020905b815481529060010190602001808311610c8057829003601f168201915b5050505050905090565b6000801b81565b610cb66110f2565b73ffffffffffffffffffffffffffffffffffffffff168273ffffffffffffffffffffffffffffffffffffffff161415610d24576040517f08c379a0000000000000000000000000000000000000000000000000000000008152600401610d1b90613214565b60405180910390fd5b8060056000610d316110f2565b73ffffffffffffffffffffffffffffffffffffffff1673ffffffffffffffffffffffffffffffffffffffff16815260200190815260200160002060008473ffffffffffffffffffffffffffffffffffffffff1673ffffffffffffffffffffffffffffffffffffffff16815260200190815260200160002060006101000a81548160ff0219169083151502179055508173ffffffffffffffffffffffffffffffffffffffff16610dde6110f2565b73ffffffffffffffffffffffffffffffffffffffff167f17307eab39ab6107e8899845ad3d59bd9653f200f220920489ca2b5937696c3183604051610e23919061311c565b60405180910390a35050565b610e40610e3a6110f2565b836111b3565b610e7f576040517f08c379a0000000000000000000000000000000000000000000000000000000008152600401610e76906133b4565b60405180910390fd5b610e8b8484848461189e565b50505050565b6060610e9c826118fa565b9050919050565b7f9f2df0fed2c77648de5860a4cc508cd0818c85b8b8a1ab4ceeef8d981c8956a6610ed581610ed06110f2565b6114ed565b6000610ee16009611a4c565b9050610eed6009611a5a565b610ef78482611a70565b610f018184611a8e565b50505050565b7f9f2df0fed2c77648de5860a4cc508cd0818c85b8b8a1ab4ceeef8d981c8956a681565b610f3482610804565b610f4581610f406110f2565b6114ed565b610f4f838361166b565b505050565b7f65d7a28e3265b37a6474929f336521b332c1681b933f6cb9f3376673440d862a81565b6000600560008473ffffffffffffffffffffffffffffffffffffffff1673ffffffffffffffffffffffffffffffffffffffff16815260200190815260200160002060008373ffffffffffffffffffffffffffffffffffffffff1673ffffffffffffffffffffffffffffffffffffffff16815260200190815260200160002060009054906101000a900460ff16905092915050565b60007f7965db0b000000000000000000000000000000000000000000000000000000007bffffffffffffffffffffffffffffffffffffffffffffffffffffffff1916827bffffffffffffffffffffffffffffffffffffffffffffffffffffffff1916148061107f575061107e82611b02565b5b9050919050565b60008073ffffffffffffffffffffffffffffffffffffffff166002600084815260200190815260200160002060009054906101000a900473ffffffffffffffffffffffffffffffffffffffff1673ffffffffffffffffffffffffffffffffffffffff1614159050919050565b600033905090565b816004600083815260200190815260200160002060006101000a81548173ffffffffffffffffffffffffffffffffffffffff021916908373ffffffffffffffffffffffffffffffffffffffff160217905550808273ffffffffffffffffffffffffffffffffffffffff1661116d836109c4565b73ffffffffffffffffffffffffffffffffffffffff167f8c5be1e5ebec7d5bd14f71427d1e84f3dd0314c0f7b2291e5b200ac8c7c3b92560405160405180910390a45050565b60006111be82611086565b6111fd576040517f08c379a00000000000000000000000000000000000000000000000000000000081526004016111f490613234565b60405180910390fd5b6000611208836109c4565b90508073ffffffffffffffffffffffffffffffffffffffff168473ffffffffffffffffffffffffffffffffffffffff16148061127757508373ffffffffffffffffffffffffffffffffffffffff1661125f84610607565b73ffffffffffffffffffffffffffffffffffffffff16145b8061128857506112878185610f78565b5b91505092915050565b8273ffffffffffffffffffffffffffffffffffffffff166112b1826109c4565b73ffffffffffffffffffffffffffffffffffffffff1614611307576040517f08c379a00000000000000000000000000000000000000000000000000000000081526004016112fe90613354565b60405180910390fd5b600073ffffffffffffffffffffffffffffffffffffffff168273ffffffffffffffffffffffffffffffffffffffff161415611377576040517f08c379a000000000000000000000000000000000000000000000000000000000815260040161136e906131f4565b60405180910390fd5b611382838383611be4565b61138d6000826110fa565b6001600360008573ffffffffffffffffffffffffffffffffffffffff1673ffffffffffffffffffffffffffffffffffffffff16815260200190815260200160002060008282546113dd91906135da565b925050819055506001600360008473ffffffffffffffffffffffffffffffffffffffff1673ffffffffffffffffffffffffffffffffffffffff168152602001908152602001600020600082825461143491906134f9565b92505081905550816002600083815260200190815260200160002060006101000a81548173ffffffffffffffffffffffffffffffffffffffff021916908373ffffffffffffffffffffffffffffffffffffffff160217905550808273ffffffffffffffffffffffffffffffffffffffff168473ffffffffffffffffffffffffffffffffffffffff167fddf252ad1be2c89b69c2b068fc378daa952ba7f163c4a11628f55a4df523b3ef60405160405180910390a4505050565b6114f78282610baa565b6115865761151c8173ffffffffffffffffffffffffffffffffffffffff166014611c3c565b61152a8360001c6020611c3c565b60405160200161153b92919061307b565b6040516020818303038152906040526040517f08c379a000000000000000000000000000000000000000000000000000000000815260040161157d9190613152565b60405180910390fd5b5050565b6115948282610baa565b6116675760016008600084815260200190815260200160002060000160008373ffffffffffffffffffffffffffffffffffffffff1673ffffffffffffffffffffffffffffffffffffffff16815260200190815260200160002060006101000a81548160ff02191690831515021790555061160c6110f2565b73ffffffffffffffffffffffffffffffffffffffff168173ffffffffffffffffffffffffffffffffffffffff16837f2f8788117e7eff1d82e926ec794901d17c78024a50270940304540a733656f0d60405160405180910390a45b5050565b6116758282610baa565b156117495760006008600084815260200190815260200160002060000160008373ffffffffffffffffffffffffffffffffffffffff1673ffffffffffffffffffffffffffffffffffffffff16815260200190815260200160002060006101000a81548160ff0219169083151502179055506116ee6110f2565b73ffffffffffffffffffffffffffffffffffffffff168173ffffffffffffffffffffffffffffffffffffffff16837ff6391f5c32d9c69d2a47ea670b442974b53935d1edc7fd64eb21e047a839171b60405160405180910390a45b5050565b6117556109ad565b611794576040517f08c379a000000000000000000000000000000000000000000000000000000000815260040161178b90613194565b60405180910390fd5b6000600760006101000a81548160ff0219169083151502179055507f5db9ee0a495bf2e6ff9c91a7834c1ba4fdd244a5e8aa4e537bd38aeae4b073aa6117d86110f2565b6040516117e591906130b5565b60405180910390a1565b6117f881611f36565b50565b6118036109ad565b15611843576040517f08c379a000000000000000000000000000000000000000000000000000000000815260040161183a90613254565b60405180910390fd5b6001600760006101000a81548160ff0219169083151502179055507f62e78cea01bee320cd4e420270b5ea74000d11b0c9f74754ebdbfc544b05a2586118876110f2565b60405161189491906130b5565b60405180910390a1565b6118a9848484611291565b6118b584848484611f89565b6118f4576040517f08c379a00000000000000000000000000000000000000000000000000000000081526004016118eb906131b4565b60405180910390fd5b50505050565b606061190582611086565b611944576040517f08c379a000000000000000000000000000000000000000000000000000000000815260040161193b90613314565b60405180910390fd5b6000600660008481526020019081526020016000208054611964906136f8565b80601f0160208091040260200160405190810160405280929190818152602001828054611990906136f8565b80156119dd5780601f106119b2576101008083540402835291602001916119dd565b820191906000526020600020905b8154815290600101906020018083116119c057829003601f168201915b5050505050905060006119ee612120565b9050600081511415611a04578192505050611a47565b600082511115611a39578082604051602001611a21929190613057565b60405160208183030381529060405292505050611a47565b611a4284612137565b925050505b919050565b600081600001549050919050565b6001816000016000828254019250508190555050565b611a8a8282604051806020016040528060008152506121de565b5050565b611a9782611086565b611ad6576040517f08c379a0000000000000000000000000000000000000000000000000000000008152600401611acd906132d4565b60405180910390fd5b80600660008481526020019081526020016000209080519060200190611afd929190612747565b505050565b60007f80ac58cd000000000000000000000000000000000000000000000000000000007bffffffffffffffffffffffffffffffffffffffffffffffffffffffff1916827bffffffffffffffffffffffffffffffffffffffffffffffffffffffff19161480611bcd57507f5b5e139f000000000000000000000000000000000000000000000000000000007bffffffffffffffffffffffffffffffffffffffffffffffffffffffff1916827bffffffffffffffffffffffffffffffffffffffffffffffffffffffff1916145b80611bdd5750611bdc82612239565b5b9050919050565b611bec6109ad565b15611c2c576040517f08c379a0000000000000000000000000000000000000000000000000000000008152600401611c2390613254565b60405180910390fd5b611c378383836122a3565b505050565b606060006002836002611c4f9190613580565b611c5991906134f9565b67ffffffffffffffff811115611c98577f4e487b7100000000000000000000000000000000000000000000000000000000600052604160045260246000fd5b6040519080825280601f01601f191660200182016040528015611cca5781602001600182028036833780820191505090505b5090507f300000000000000000000000000000000000000000000000000000000000000081600081518110611d28577f4e487b7100000000000000000000000000000000000000000000000000000000600052603260045260246000fd5b60200101907effffffffffffffffffffffffffffffffffffffffffffffffffffffffffffff1916908160001a9053507f780000000000000000000000000000000000000000000000000000000000000081600181518110611db2577f4e487b7100000000000000000000000000000000000000000000000000000000600052603260045260246000fd5b60200101907effffffffffffffffffffffffffffffffffffffffffffffffffffffffffffff1916908160001a90535060006001846002611df29190613580565b611dfc91906134f9565b90505b6001811115611ee8577f3031323334353637383961626364656600000000000000000000000000000000600f861660108110611e64577f4e487b7100000000000000000000000000000000000000000000000000000000600052603260045260246000fd5b1a60f81b828281518110611ea1577f4e487b7100000000000000000000000000000000000000000000000000000000600052603260045260246000fd5b60200101907effffffffffffffffffffffffffffffffffffffffffffffffffffffffffffff1916908160001a905350600485901c945080611ee1906136ce565b9050611dff565b5060008414611f2c576040517f08c379a0000000000000000000000000000000000000000000000000000000008152600401611f2390613174565b60405180910390fd5b8091505092915050565b611f3f816122a8565b6000600660008381526020019081526020016000208054611f5f906136f8565b905014611f8657600660008281526020019081526020016000206000611f8591906127cd565b5b50565b6000611faa8473ffffffffffffffffffffffffffffffffffffffff166123b9565b15612113578373ffffffffffffffffffffffffffffffffffffffff1663150b7a02611fd36110f2565b8786866040518563ffffffff1660e01b8152600401611ff594939291906130d0565b602060405180830381600087803b15801561200f57600080fd5b505af192505050801561204057506040513d601f19601f8201168201806040525081019061203d9190612c01565b60015b6120c3573d8060008114612070576040519150601f19603f3d011682016040523d82523d6000602084013e612075565b606091505b506000815114156120bb576040517f08c379a00000000000000000000000000000000000000000000000000000000081526004016120b2906131b4565b60405180910390fd5b805181602001fd5b63150b7a0260e01b7bffffffffffffffffffffffffffffffffffffffffffffffffffffffff1916817bffffffffffffffffffffffffffffffffffffffffffffffffffffffff191614915050612118565b600190505b949350505050565b606060405180602001604052806000815250905090565b606061214282611086565b612181576040517f08c379a000000000000000000000000000000000000000000000000000000000815260040161217890613374565b60405180910390fd5b600061218b612120565b905060008151116121ab57604051806020016040528060008152506121d6565b806121b5846123cc565b6040516020016121c6929190613057565b6040516020818303038152906040525b915050919050565b6121e88383612579565b6121f56000848484611f89565b612234576040517f08c379a000000000000000000000000000000000000000000000000000000000815260040161222b906131b4565b60405180910390fd5b505050565b60007f01ffc9a7000000000000000000000000000000000000000000000000000000007bffffffffffffffffffffffffffffffffffffffffffffffffffffffff1916827bffffffffffffffffffffffffffffffffffffffffffffffffffffffff1916149050919050565b505050565b60006122b3826109c4565b90506122c181600084611be4565b6122cc6000836110fa565b6001600360008373ffffffffffffffffffffffffffffffffffffffff1673ffffffffffffffffffffffffffffffffffffffff168152602001908152602001600020600082825461231c91906135da565b925050819055506002600083815260200190815260200160002060006101000a81549073ffffffffffffffffffffffffffffffffffffffff021916905581600073ffffffffffffffffffffffffffffffffffffffff168273ffffffffffffffffffffffffffffffffffffffff167fddf252ad1be2c89b69c2b068fc378daa952ba7f163c4a11628f55a4df523b3ef60405160405180910390a45050565b600080823b905060008111915050919050565b60606000821415612414576040518060400160405280600181526020017f30000000000000000000000000000000000000000000000000000000000000008152509050612574565b600082905060005b6000821461244657808061242f9061375b565b915050600a8261243f919061354f565b915061241c565b60008167ffffffffffffffff811115612488577f4e487b7100000000000000000000000000000000000000000000000000000000600052604160045260246000fd5b6040519080825280601f01601f1916602001820160405280156124ba5781602001600182028036833780820191505090505b5090505b6000851461256d576001826124d391906135da565b9150600a856124e291906137a4565b60306124ee91906134f9565b60f81b81838151811061252a577f4e487b7100000000000000000000000000000000000000000000000000000000600052603260045260246000fd5b60200101907effffffffffffffffffffffffffffffffffffffffffffffffffffffffffffff1916908160001a905350600a85612566919061354f565b94506124be565b8093505050505b919050565b600073ffffffffffffffffffffffffffffffffffffffff168273ffffffffffffffffffffffffffffffffffffffff1614156125e9576040517f08c379a00000000000000000000000000000000000000000000000000000000081526004016125e0906132f4565b60405180910390fd5b6125f281611086565b15612632576040517f08c379a0000000000000000000000000000000000000000000000000000000008152600401612629906131d4565b60405180910390fd5b61263e60008383611be4565b6001600360008473ffffffffffffffffffffffffffffffffffffffff1673ffffffffffffffffffffffffffffffffffffffff168152602001908152602001600020600082825461268e91906134f9565b92505081905550816002600083815260200190815260200160002060006101000a81548173ffffffffffffffffffffffffffffffffffffffff021916908373ffffffffffffffffffffffffffffffffffffffff160217905550808273ffffffffffffffffffffffffffffffffffffffff16600073ffffffffffffffffffffffffffffffffffffffff167fddf252ad1be2c89b69c2b068fc378daa952ba7f163c4a11628f55a4df523b3ef60405160405180910390a45050565b828054612753906136f8565b90600052602060002090601f01602090048101928261277557600085556127bc565b82601f1061278e57805160ff19168380011785556127bc565b828001600101855582156127bc579182015b828111156127bb5782518255916020019190600101906127a0565b5b5090506127c9919061280d565b5090565b5080546127d9906136f8565b6000825580601f106127eb575061280a565b601f016020900490600052602060002090810190612809919061280d565b5b50565b5b8082111561282657600081600090555060010161280e565b5090565b600061283d61283884613454565b61342f565b90508281526020810184848401111561285557600080fd5b61286084828561368c565b509392505050565b600061287b61287684613485565b61342f565b90508281526020810184848401111561289357600080fd5b61289e84828561368c565b509392505050565b6000813590506128b581613e8b565b92915050565b6000813590506128ca81613ea2565b92915050565b6000813590506128df81613eb9565b92915050565b6000813590506128f481613ed0565b92915050565b60008151905061290981613ed0565b92915050565b600082601f83011261292057600080fd5b813561293084826020860161282a565b91505092915050565b600082601f83011261294a57600080fd5b813561295a848260208601612868565b91505092915050565b60008135905061297281613ee7565b92915050565b60006020828403121561298a57600080fd5b6000612998848285016128a6565b91505092915050565b600080604083850312156129b457600080fd5b60006129c2858286016128a6565b92505060206129d3858286016128a6565b9150509250929050565b6000806000606084860312156129f257600080fd5b6000612a00868287016128a6565b9350506020612a11868287016128a6565b9250506040612a2286828701612963565b9150509250925092565b60008060008060808587031215612a4257600080fd5b6000612a50878288016128a6565b9450506020612a61878288016128a6565b9350506040612a7287828801612963565b925050606085013567ffffffffffffffff811115612a8f57600080fd5b612a9b8782880161290f565b91505092959194509250565b60008060408385031215612aba57600080fd5b6000612ac8858286016128a6565b9250506020612ad9858286016128bb565b9150509250929050565b60008060408385031215612af657600080fd5b6000612b04858286016128a6565b925050602083013567ffffffffffffffff811115612b2157600080fd5b612b2d85828601612939565b9150509250929050565b60008060408385031215612b4a57600080fd5b6000612b58858286016128a6565b9250506020612b6985828601612963565b9150509250929050565b600060208284031215612b8557600080fd5b6000612b93848285016128d0565b91505092915050565b60008060408385031215612baf57600080fd5b6000612bbd858286016128d0565b9250506020612bce858286016128a6565b9150509250929050565b600060208284031215612bea57600080fd5b6000612bf8848285016128e5565b91505092915050565b600060208284031215612c1357600080fd5b6000612c21848285016128fa565b91505092915050565b600060208284031215612c3c57600080fd5b6000612c4a84828501612963565b91505092915050565b612c5c8161360e565b82525050565b612c6b81613620565b82525050565b612c7a8161362c565b82525050565b6000612c8b826134b6565b612c9581856134cc565b9350612ca581856020860161369b565b612cae81613891565b840191505092915050565b6000612cc4826134c1565b612cce81856134dd565b9350612cde81856020860161369b565b612ce781613891565b840191505092915050565b6000612cfd826134c1565b612d0781856134ee565b9350612d1781856020860161369b565b80840191505092915050565b6000612d306020836134dd565b9150612d3b826138a2565b602082019050919050565b6000612d536014836134dd565b9150612d5e826138cb565b602082019050919050565b6000612d766032836134dd565b9150612d81826138f4565b604082019050919050565b6000612d99601c836134dd565b9150612da482613943565b602082019050919050565b6000612dbc6024836134dd565b9150612dc78261396c565b604082019050919050565b6000612ddf6019836134dd565b9150612dea826139bb565b602082019050919050565b6000612e02602c836134dd565b9150612e0d826139e4565b604082019050919050565b6000612e256010836134dd565b9150612e3082613a33565b602082019050919050565b6000612e486038836134dd565b9150612e5382613a5c565b604082019050919050565b6000612e6b602a836134dd565b9150612e7682613aab565b604082019050919050565b6000612e8e6029836134dd565b9150612e9982613afa565b604082019050919050565b6000612eb1602e836134dd565b9150612ebc82613b49565b604082019050919050565b6000612ed46020836134dd565b9150612edf82613b98565b602082019050919050565b6000612ef76031836134dd565b9150612f0282613bc1565b604082019050919050565b6000612f1a602c836134dd565b9150612f2582613c10565b604082019050919050565b6000612f3d6029836134dd565b9150612f4882613c5f565b604082019050919050565b6000612f60602f836134dd565b9150612f6b82613cae565b604082019050919050565b6000612f836021836134dd565b9150612f8e82613cfd565b604082019050919050565b6000612fa66031836134dd565b9150612fb182613d4c565b604082019050919050565b6000612fc96017836134ee565b9150612fd482613d9b565b601782019050919050565b6000612fec6030836134dd565b9150612ff782613dc4565b604082019050919050565b600061300f6011836134ee565b915061301a82613e13565b601182019050919050565b6000613032602f836134dd565b915061303d82613e3c565b604082019050919050565b61305181613682565b82525050565b60006130638285612cf2565b915061306f8284612cf2565b91508190509392505050565b600061308682612fbc565b91506130928285612cf2565b915061309d82613002565b91506130a98284612cf2565b91508190509392505050565b60006020820190506130ca6000830184612c53565b92915050565b60006080820190506130e56000830187612c53565b6130f26020830186612c53565b6130ff6040830185613048565b81810360608301526131118184612c80565b905095945050505050565b60006020820190506131316000830184612c62565b92915050565b600060208201905061314c6000830184612c71565b92915050565b6000602082019050818103600083015261316c8184612cb9565b905092915050565b6000602082019050818103600083015261318d81612d23565b9050919050565b600060208201905081810360008301526131ad81612d46565b9050919050565b600060208201905081810360008301526131cd81612d69565b9050919050565b600060208201905081810360008301526131ed81612d8c565b9050919050565b6000602082019050818103600083015261320d81612daf565b9050919050565b6000602082019050818103600083015261322d81612dd2565b9050919050565b6000602082019050818103600083015261324d81612df5565b9050919050565b6000602082019050818103600083015261326d81612e18565b9050919050565b6000602082019050818103600083015261328d81612e3b565b9050919050565b600060208201905081810360008301526132ad81612e5e565b9050919050565b600060208201905081810360008301526132cd81612e81565b9050919050565b600060208201905081810360008301526132ed81612ea4565b9050919050565b6000602082019050818103600083015261330d81612ec7565b9050919050565b6000602082019050818103600083015261332d81612eea565b9050919050565b6000602082019050818103600083015261334d81612f0d565b9050919050565b6000602082019050818103600083015261336d81612f30565b9050919050565b6000602082019050818103600083015261338d81612f53565b9050919050565b600060208201905081810360008301526133ad81612f76565b9050919050565b600060208201905081810360008301526133cd81612f99565b9050919050565b600060208201905081810360008301526133ed81612fdf565b9050919050565b6000602082019050818103600083015261340d81613025565b9050919050565b60006020820190506134296000830184613048565b92915050565b600061343961344a565b9050613445828261372a565b919050565b6000604051905090565b600067ffffffffffffffff82111561346f5761346e613862565b5b61347882613891565b9050602081019050919050565b600067ffffffffffffffff8211156134a05761349f613862565b5b6134a982613891565b9050602081019050919050565b600081519050919050565b600081519050919050565b600082825260208201905092915050565b600082825260208201905092915050565b600081905092915050565b600061350482613682565b915061350f83613682565b9250827fffffffffffffffffffffffffffffffffffffffffffffffffffffffffffffffff03821115613544576135436137d5565b5b828201905092915050565b600061355a82613682565b915061356583613682565b92508261357557613574613804565b5b828204905092915050565b600061358b82613682565b915061359683613682565b9250817fffffffffffffffffffffffffffffffffffffffffffffffffffffffffffffffff04831182151516156135cf576135ce6137d5565b5b828202905092915050565b60006135e582613682565b91506135f083613682565b925082821015613603576136026137d5565b5b828203905092915050565b600061361982613662565b9050919050565b60008115159050919050565b6000819050919050565b60007fffffffff0000000000000000000000000000000000000000000000000000000082169050919050565b600073ffffffffffffffffffffffffffffffffffffffff82169050919050565b6000819050919050565b82818337600083830152505050565b60005b838110156136b957808201518184015260208101905061369e565b838111156136c8576000848401525b50505050565b60006136d982613682565b915060008214156136ed576136ec6137d5565b5b600182039050919050565b6000600282049050600182168061371057607f821691505b6020821081141561372457613723613833565b5b50919050565b61373382613891565b810181811067ffffffffffffffff8211171561375257613751613862565b5b80604052505050565b600061376682613682565b91507fffffffffffffffffffffffffffffffffffffffffffffffffffffffffffffffff821415613799576137986137d5565b5b600182019050919050565b60006137af82613682565b91506137ba83613682565b9250826137ca576137c9613804565b5b828206905092915050565b7f4e487b7100000000000000000000000000000000000000000000000000000000600052601160045260246000fd5b7f4e487b7100000000000000000000000000000000000000000000000000000000600052601260045260246000fd5b7f4e487b7100000000000000000000000000000000000000000000000000000000600052602260045260246000fd5b7f4e487b7100000000000000000000000000000000000000000000000000000000600052604160045260246000fd5b6000601f19601f8301169050919050565b7f537472696e67733a20686578206c656e67746820696e73756666696369656e74600082015250565b7f5061757361626c653a206e6f7420706175736564000000000000000000000000600082015250565b7f4552433732313a207472616e7366657220746f206e6f6e20455243373231526560008201527f63656976657220696d706c656d656e7465720000000000000000000000000000602082015250565b7f4552433732313a20746f6b656e20616c7265616479206d696e74656400000000600082015250565b7f4552433732313a207472616e7366657220746f20746865207a65726f2061646460008201527f7265737300000000000000000000000000000000000000000000000000000000602082015250565b7f4552433732313a20617070726f766520746f2063616c6c657200000000000000600082015250565b7f4552433732313a206f70657261746f7220717565727920666f72206e6f6e657860008201527f697374656e7420746f6b656e0000000000000000000000000000000000000000602082015250565b7f5061757361626c653a2070617573656400000000000000000000000000000000600082015250565b7f4552433732313a20617070726f76652063616c6c6572206973206e6f74206f7760008201527f6e6572206e6f7220617070726f76656420666f7220616c6c0000000000000000602082015250565b7f4552433732313a2062616c616e636520717565727920666f7220746865207a6560008201527f726f206164647265737300000000000000000000000000000000000000000000602082015250565b7f4552433732313a206f776e657220717565727920666f72206e6f6e657869737460008201527f656e7420746f6b656e0000000000000000000000000000000000000000000000602082015250565b7f45524337323155524953746f726167653a2055524920736574206f66206e6f6e60008201527f6578697374656e7420746f6b656e000000000000000000000000000000000000602082015250565b7f4552433732313a206d696e7420746f20746865207a65726f2061646472657373600082015250565b7f45524337323155524953746f726167653a2055524920717565727920666f722060008201527f6e6f6e6578697374656e7420746f6b656e000000000000000000000000000000602082015250565b7f4552433732313a20617070726f76656420717565727920666f72206e6f6e657860008201527f697374656e7420746f6b656e0000000000000000000000000000000000000000602082015250565b7f4552433732313a207472616e73666572206f6620746f6b656e2074686174206960008201527f73206e6f74206f776e0000000000000000000000000000000000000000000000602082015250565b7f4552433732314d657461646174613a2055524920717565727920666f72206e6f60008201527f6e6578697374656e7420746f6b656e0000000000000000000000000000000000602082015250565b7f4552433732313a20617070726f76616c20746f2063757272656e74206f776e6560008201527f7200000000000000000000000000000000000000000000000000000000000000602082015250565b7f4552433732313a207472616e736665722063616c6c6572206973206e6f74206f60008201527f776e6572206e6f7220617070726f766564000000000000000000000000000000602082015250565b7f416363657373436f6e74726f6c3a206163636f756e7420000000000000000000600082015250565b7f4552433732314275726e61626c653a2063616c6c6572206973206e6f74206f7760008201527f6e6572206e6f7220617070726f76656400000000000000000000000000000000602082015250565b7f206973206d697373696e6720726f6c6520000000000000000000000000000000600082015250565b7f416363657373436f6e74726f6c3a2063616e206f6e6c792072656e6f756e636560008201527f20726f6c657320666f722073656c660000000000000000000000000000000000602082015250565b613e948161360e565b8114613e9f57600080fd5b50565b613eab81613620565b8114613eb657600080fd5b50565b613ec28161362c565b8114613ecd57600080fd5b50565b613ed981613636565b8114613ee457600080fd5b50565b613ef081613682565b8114613efb57600080fd5b5056fea2646970667358221220940a87bcbb14ad685f3289f8f434cffaa475ebb4a49fb3ebdedaa5e5728a1a7664736f6c63430008020033",
  "linkReferences": {},
  "deployedLinkReferences": {}
}