{
  "_format": "hh-sol-artifact-1",
  "contractName": "TheForge",
  "sourceName": "contracts/TheForge.sol",
  "abi": [
    {
      "inputs": [],
      "stateMutability": "nonpayable",
      "type": "constructor"
    },
    {
      "anonymous": false,
      "inputs": [
        {
          "indexed": true,
          "internalType": "address",
          "name": "account",
          "type": "address"
        },
        {
          "indexed": true,
          "internalType": "address",
          "name": "operator",
          "type": "address"
        },
        {
          "indexed": false,
          "internalType": "bool",
          "name": "approved",
          "type": "bool"
        }
      ],
      "name": "ApprovalForAll",
      "type": "event"
    },
    {
      "anonymous": false,
      "inputs": [
        {
          "indexed": false,
          "internalType": "address",
          "name": "account",
          "type": "address"
        }
      ],
      "name": "Paused",
      "type": "event"
    },
    {
      "anonymous": false,
      "inputs": [
        {
          "indexed": true,
          "internalType": "bytes32",
          "name": "role",
          "type": "bytes32"
        },
        {
          "indexed": true,
          "internalType": "bytes32",
          "name": "previousAdminRole",
          "type": "bytes32"
        },
        {
          "indexed": true,
          "internalType": "bytes32",
          "name": "newAdminRole",
          "type": "bytes32"
        }
      ],
      "name": "RoleAdminChanged",
      "type": "event"
    },
    {
      "anonymous": false,
      "inputs": [
        {
          "indexed": true,
          "internalType": "bytes32",
          "name": "role",
          "type": "bytes32"
        },
        {
          "indexed": true,
          "internalType": "address",
          "name": "account",
          "type": "address"
        },
        {
          "indexed": true,
          "internalType": "address",
          "name": "sender",
          "type": "address"
        }
      ],
      "name": "RoleGranted",
      "type": "event"
    },
    {
      "anonymous": false,
      "inputs": [
        {
          "indexed": true,
          "internalType": "bytes32",
          "name": "role",
          "type": "bytes32"
        },
        {
          "indexed": true,
          "internalType": "address",
          "name": "account",
          "type": "address"
        },
        {
          "indexed": true,
          "internalType": "address",
          "name": "sender",
          "type": "address"
        }
      ],
      "name": "RoleRevoked",
      "type": "event"
    },
    {
      "anonymous": false,
      "inputs": [
        {
          "indexed": true,
          "internalType": "address",
          "name": "operator",
          "type": "address"
        },
        {
          "indexed": true,
          "internalType": "address",
          "name": "from",
          "type": "address"
        },
        {
          "indexed": true,
          "internalType": "address",
          "name": "to",
          "type": "address"
        },
        {
          "indexed": false,
          "internalType": "uint256[]",
          "name": "ids",
          "type": "uint256[]"
        },
        {
          "indexed": false,
          "internalType": "uint256[]",
          "name": "values",
          "type": "uint256[]"
        }
      ],
      "name": "TransferBatch",
      "type": "event"
    },
    {
      "anonymous": false,
      "inputs": [
        {
          "indexed": true,
          "internalType": "address",
          "name": "operator",
          "type": "address"
        },
        {
          "indexed": true,
          "internalType": "address",
          "name": "from",
          "type": "address"
        },
        {
          "indexed": true,
          "internalType": "address",
          "name": "to",
          "type": "address"
        },
        {
          "indexed": false,
          "internalType": "uint256",
          "name": "id",
          "type": "uint256"
        },
        {
          "indexed": false,
          "internalType": "uint256",
          "name": "value",
          "type": "uint256"
        }
      ],
      "name": "TransferSingle",
      "type": "event"
    },
    {
      "anonymous": false,
      "inputs": [
        {
          "indexed": false,
          "internalType": "string",
          "name": "value",
          "type": "string"
        },
        {
          "indexed": true,
          "internalType": "uint256",
          "name": "id",
          "type": "uint256"
        }
      ],
      "name": "URI",
      "type": "event"
    },
    {
      "anonymous": false,
      "inputs": [
        {
          "indexed": false,
          "internalType": "address",
          "name": "account",
          "type": "address"
        }
      ],
      "name": "Unpaused",
      "type": "event"
    },
    {
      "inputs": [],
      "name": "DEFAULT_ADMIN_ROLE",
      "outputs": [
        {
          "internalType": "bytes32",
          "name": "",
          "type": "bytes32"
        }
      ],
      "stateMutability": "view",
      "type": "function"
    },
    {
      "inputs": [],
      "name": "MINTER_ROLE",
      "outputs": [
        {
          "internalType": "bytes32",
          "name": "",
          "type": "bytes32"
        }
      ],
      "stateMutability": "view",
      "type": "function"
    },
    {
      "inputs": [],
      "name": "PAUSER_ROLE",
      "outputs": [
        {
          "internalType": "bytes32",
          "name": "",
          "type": "bytes32"
        }
      ],
      "stateMutability": "view",
      "type": "function"
    },
    {
      "inputs": [],
      "name": "URI_SETTER_ROLE",
      "outputs": [
        {
          "internalType": "bytes32",
          "name": "",
          "type": "bytes32"
        }
      ],
      "stateMutability": "view",
      "type": "function"
    },
    {
      "inputs": [
        {
          "internalType": "address[]",
          "name": "accounts",
          "type": "address[]"
        },
        {
          "internalType": "uint256[]",
          "name": "amounts",
          "type": "uint256[]"
        }
      ],
      "name": "addInvite",
      "outputs": [],
      "stateMutability": "nonpayable",
      "type": "function"
    },
    {
      "inputs": [
        {
          "internalType": "address",
          "name": "account",
          "type": "address"
        },
        {
          "internalType": "uint256",
          "name": "id",
          "type": "uint256"
        }
      ],
      "name": "balanceOf",
      "outputs": [
        {
          "internalType": "uint256",
          "name": "",
          "type": "uint256"
        }
      ],
      "stateMutability": "view",
      "type": "function"
    },
    {
      "inputs": [
        {
          "internalType": "address[]",
          "name": "accounts",
          "type": "address[]"
        },
        {
          "internalType": "uint256[]",
          "name": "ids",
          "type": "uint256[]"
        }
      ],
      "name": "balanceOfBatch",
      "outputs": [
        {
          "internalType": "uint256[]",
          "name": "",
          "type": "uint256[]"
        }
      ],
      "stateMutability": "view",
      "type": "function"
    },
    {
      "inputs": [
        {
          "internalType": "address",
          "name": "account",
          "type": "address"
        },
        {
          "internalType": "uint256",
          "name": "id",
          "type": "uint256"
        },
        {
          "internalType": "uint256",
          "name": "value",
          "type": "uint256"
        }
      ],
      "name": "burn",
      "outputs": [],
      "stateMutability": "nonpayable",
      "type": "function"
    },
    {
      "inputs": [
        {
          "internalType": "address",
          "name": "account",
          "type": "address"
        },
        {
          "internalType": "uint256[]",
          "name": "ids",
          "type": "uint256[]"
        },
        {
          "internalType": "uint256[]",
          "name": "values",
          "type": "uint256[]"
        }
      ],
      "name": "burnBatch",
      "outputs": [],
      "stateMutability": "nonpayable",
      "type": "function"
    },
    {
      "inputs": [
        {
          "internalType": "address",
          "name": "account",
          "type": "address"
        },
        {
          "internalType": "uint256",
          "name": "id",
          "type": "uint256"
        },
        {
          "internalType": "uint256",
          "name": "amount",
          "type": "uint256"
        },
        {
          "internalType": "bytes",
          "name": "data",
          "type": "bytes"
        }
      ],
      "name": "forceMint",
      "outputs": [],
      "stateMutability": "nonpayable",
      "type": "function"
    },
    {
      "inputs": [
        {
          "internalType": "bytes32",
          "name": "role",
          "type": "bytes32"
        }
      ],
      "name": "getRoleAdmin",
      "outputs": [
        {
          "internalType": "bytes32",
          "name": "",
          "type": "bytes32"
        }
      ],
      "stateMutability": "view",
      "type": "function"
    },
    {
      "inputs": [
        {
          "internalType": "bytes32",
          "name": "role",
          "type": "bytes32"
        },
        {
          "internalType": "address",
          "name": "account",
          "type": "address"
        }
      ],
      "name": "grantRole",
      "outputs": [],
      "stateMutability": "nonpayable",
      "type": "function"
    },
    {
      "inputs": [
        {
          "internalType": "address",
          "name": "account",
          "type": "address"
        }
      ],
      "name": "hasInvite",
      "outputs": [
        {
          "internalType": "uint256",
          "name": "",
          "type": "uint256"
        }
      ],
      "stateMutability": "view",
      "type": "function"
    },
    {
      "inputs": [
        {
          "internalType": "bytes32",
          "name": "role",
          "type": "bytes32"
        },
        {
          "internalType": "address",
          "name": "account",
          "type": "address"
        }
      ],
      "name": "hasRole",
      "outputs": [
        {
          "internalType": "bool",
          "name": "",
          "type": "bool"
        }
      ],
      "stateMutability": "view",
      "type": "function"
    },
    {
      "inputs": [
        {
          "internalType": "address",
          "name": "account",
          "type": "address"
        },
        {
          "internalType": "address",
          "name": "operator",
          "type": "address"
        }
      ],
      "name": "isApprovedForAll",
      "outputs": [
        {
          "internalType": "bool",
          "name": "",
          "type": "bool"
        }
      ],
      "stateMutability": "view",
      "type": "function"
    },
    {
      "inputs": [
        {
          "internalType": "address",
          "name": "invitee",
          "type": "address"
        }
      ],
      "name": "mint",
      "outputs": [],
      "stateMutability": "nonpayable",
      "type": "function"
    },
    {
      "inputs": [],
      "name": "pause",
      "outputs": [],
      "stateMutability": "nonpayable",
      "type": "function"
    },
    {
      "inputs": [],
      "name": "paused",
      "outputs": [
        {
          "internalType": "bool",
          "name": "",
          "type": "bool"
        }
      ],
      "stateMutability": "view",
      "type": "function"
    },
    {
      "inputs": [
        {
          "internalType": "bytes32",
          "name": "role",
          "type": "bytes32"
        },
        {
          "internalType": "address",
          "name": "account",
          "type": "address"
        }
      ],
      "name": "renounceRole",
      "outputs": [],
      "stateMutability": "nonpayable",
      "type": "function"
    },
    {
      "inputs": [
        {
          "internalType": "address[]",
          "name": "accounts",
          "type": "address[]"
        }
      ],
      "name": "resetInvite",
      "outputs": [],
      "stateMutability": "nonpayable",
      "type": "function"
    },
    {
      "inputs": [
        {
          "internalType": "bytes32",
          "name": "role",
          "type": "bytes32"
        },
        {
          "internalType": "address",
          "name": "account",
          "type": "address"
        }
      ],
      "name": "revokeRole",
      "outputs": [],
      "stateMutability": "nonpayable",
      "type": "function"
    },
    {
      "inputs": [
        {
          "internalType": "uint256",
          "name": "",
          "type": "uint256"
        },
        {
          "internalType": "uint256",
          "name": "value",
          "type": "uint256"
        }
      ],
      "name": "royaltyInfo",
      "outputs": [
        {
          "internalType": "address",
          "name": "receiver",
          "type": "address"
        },
        {
          "internalType": "uint256",
          "name": "royaltyAmount",
          "type": "uint256"
        }
      ],
      "stateMutability": "view",
      "type": "function"
    },
    {
      "inputs": [
        {
          "internalType": "address",
          "name": "from",
          "type": "address"
        },
        {
          "internalType": "address",
          "name": "to",
          "type": "address"
        },
        {
          "internalType": "uint256[]",
          "name": "ids",
          "type": "uint256[]"
        },
        {
          "internalType": "uint256[]",
          "name": "amounts",
          "type": "uint256[]"
        },
        {
          "internalType": "bytes",
          "name": "data",
          "type": "bytes"
        }
      ],
      "name": "safeBatchTransferFrom",
      "outputs": [],
      "stateMutability": "nonpayable",
      "type": "function"
    },
    {
      "inputs": [
        {
          "internalType": "address",
          "name": "from",
          "type": "address"
        },
        {
          "internalType": "address",
          "name": "to",
          "type": "address"
        },
        {
          "internalType": "uint256",
          "name": "id",
          "type": "uint256"
        },
        {
          "internalType": "uint256",
          "name": "amount",
          "type": "uint256"
        },
        {
          "internalType": "bytes",
          "name": "data",
          "type": "bytes"
        }
      ],
      "name": "safeTransferFrom",
      "outputs": [],
      "stateMutability": "nonpayable",
      "type": "function"
    },
    {
      "inputs": [
        {
          "internalType": "address",
          "name": "operator",
          "type": "address"
        },
        {
          "internalType": "bool",
          "name": "approved",
          "type": "bool"
        }
      ],
      "name": "setApprovalForAll",
      "outputs": [],
      "stateMutability": "nonpayable",
      "type": "function"
    },
    {
      "inputs": [
        {
          "internalType": "address",
          "name": "recipient",
          "type": "address"
        },
        {
          "internalType": "uint256",
          "name": "value",
          "type": "uint256"
        }
      ],
      "name": "setRoyalties",
      "outputs": [],
      "stateMutability": "nonpayable",
      "type": "function"
    },
    {
      "inputs": [
        {
          "internalType": "string",
          "name": "newuri",
          "type": "string"
        }
      ],
      "name": "setURI",
      "outputs": [],
      "stateMutability": "nonpayable",
      "type": "function"
    },
    {
      "inputs": [
        {
          "internalType": "bytes4",
          "name": "interfaceId",
          "type": "bytes4"
        }
      ],
      "name": "supportsInterface",
      "outputs": [
        {
          "internalType": "bool",
          "name": "",
          "type": "bool"
        }
      ],
      "stateMutability": "view",
      "type": "function"
    },
    {
      "inputs": [],
      "name": "unpause",
      "outputs": [],
      "stateMutability": "nonpayable",
      "type": "function"
    },
    {
      "inputs": [
        {
          "internalType": "uint256",
          "name": "",
          "type": "uint256"
        }
      ],
      "name": "uri",
      "outputs": [
        {
          "internalType": "string",
          "name": "",
          "type": "string"
        }
      ],
      "stateMutability": "view",
      "type": "function"
    }
  ],
  "bytecode": "0x60806040523480156200001157600080fd5b506040518060600160405280603081526020016200519d603091396200003d816200010a60201b60201c565b506000600560006101000a81548160ff0219169083151502179055506200006e6000801b336200012660201b60201c565b620000a07f7804d923f43a17d325d77e781528e0793b2edd9890ab45fc64efd7b4b427744c336200012660201b60201c565b620000d27f65d7a28e3265b37a6474929f336521b332c1681b933f6cb9f3376673440d862a336200012660201b60201c565b620001047f9f2df0fed2c77648de5860a4cc508cd0818c85b8b8a1ab4ceeef8d981c8956a6336200012660201b60201c565b620003b6565b806002908051906020019062000122929190620002a1565b5050565b6200013882826200013c60201b60201c565b5050565b6200014e82826200022e60201b60201c565b6200022a5760016004600084815260200190815260200160002060000160008373ffffffffffffffffffffffffffffffffffffffff1673ffffffffffffffffffffffffffffffffffffffff16815260200190815260200160002060006101000a81548160ff021916908315150217905550620001cf6200029960201b60201c565b73ffffffffffffffffffffffffffffffffffffffff168173ffffffffffffffffffffffffffffffffffffffff16837f2f8788117e7eff1d82e926ec794901d17c78024a50270940304540a733656f0d60405160405180910390a45b5050565b60006004600084815260200190815260200160002060000160008373ffffffffffffffffffffffffffffffffffffffff1673ffffffffffffffffffffffffffffffffffffffff16815260200190815260200160002060009054906101000a900460ff16905092915050565b600033905090565b828054620002af9062000351565b90600052602060002090601f016020900481019282620002d357600085556200031f565b82601f10620002ee57805160ff19168380011785556200031f565b828001600101855582156200031f579182015b828111156200031e57825182559160200191906001019062000301565b5b5090506200032e919062000332565b5090565b5b808211156200034d57600081600090555060010162000333565b5090565b600060028204905060018216806200036a57607f821691505b6020821081141562000381576200038062000387565b5b50919050565b7f4e487b7100000000000000000000000000000000000000000000000000000000600052602260045260246000fd5b614dd780620003c66000396000f3fe608060405234801561001057600080fd5b50600436106101d95760003560e01c80636b20c45411610104578063d5391393116100a2578063ed3c84be11610071578063ed3c84be14610551578063f09066d21461056d578063f242432a14610589578063f5298aca146105a5576101d9565b8063d5391393146104c9578063d547741f146104e7578063e63ab1e914610503578063e985e9c514610521576101d9565b80638c7ea24b116100de5780638c7ea24b1461044357806391d148541461045f578063a217fddf1461048f578063a22cb465146104ad576101d9565b80636b20c454146103ff5780637f3457101461041b5780638456cb5914610439576101d9565b80632eb2c2d61161017c5780633f4ba83a1161014b5780633f4ba83a1461038b5780634e1273f4146103955780635c975abb146103c55780636a627842146103e3576101d9565b80632eb2c2d61461031b5780632f2ff15d1461033757806334616da51461035357806336568abe1461036f576101d9565b80630e89341c116101b85780630e89341c1461025a578063126ff8711461028a578063248a9ca3146102ba5780632a55205a146102ea576101d9565b8062fdd58e146101de57806301ffc9a71461020e57806302fe53051461023e575b600080fd5b6101f860048036038101906101f391906135df565b6105c1565b60405161020591906141c6565b60405180910390f35b610228600480360381019061022391906137f7565b61068a565b6040516102359190613eee565b60405180910390f35b61025860048036038101906102539190613849565b61069c565b005b610274600480360381019061026f919061388a565b6106db565b6040516102819190613f24565b60405180910390f35b6102a4600480360381019061029f9190613371565b61076f565b6040516102b191906141c6565b60405180910390f35b6102d460048036038101906102cf9190613792565b6107b8565b6040516102e19190613f09565b60405180910390f35b61030460048036038101906102ff91906138b3565b6107d8565b604051610312929190613e6c565b60405180910390f35b610335600480360381019061033091906133d6565b610898565b005b610351600480360381019061034c91906137bb565b610939565b005b61036d600480360381019061036891906136e5565b610962565b005b610389600480360381019061038491906137bb565b610a3d565b005b610393610ac0565b005b6103af60048036038101906103aa9190613726565b610afd565b6040516103bc9190613e95565b60405180910390f35b6103cd610cae565b6040516103da9190613eee565b60405180910390f35b6103fd60048036038101906103f89190613371565b610cc5565b005b61041960048036038101906104149190613524565b610dbc565b005b610423610e59565b6040516104309190613f09565b60405180910390f35b610441610e7d565b005b61045d600480360381019061045891906135df565b610eba565b005b610479600480360381019061047491906137bb565b610ede565b6040516104869190613eee565b60405180910390f35b610497610f49565b6040516104a49190613f09565b60405180910390f35b6104c760048036038101906104c291906135a3565b610f50565b005b6104d16110d1565b6040516104de9190613f09565b60405180910390f35b61050160048036038101906104fc91906137bb565b6110f5565b005b61050b61111e565b6040516105189190613f09565b60405180910390f35b61053b6004803603810190610536919061339a565b611142565b6040516105489190613eee565b60405180910390f35b61056b60048036038101906105669190613726565b6111d6565b005b6105876004803603810190610582919061366a565b611347565b005b6105a3600480360381019061059e9190613495565b61138c565b005b6105bf60048036038101906105ba919061361b565b61142d565b005b60008073ffffffffffffffffffffffffffffffffffffffff168373ffffffffffffffffffffffffffffffffffffffff161415610632576040517f08c379a000000000000000000000000000000000000000000000000000000000815260040161062990614006565b60405180910390fd5b60008083815260200190815260200160002060008473ffffffffffffffffffffffffffffffffffffffff1673ffffffffffffffffffffffffffffffffffffffff16815260200190815260200160002054905092915050565b6000610695826114ca565b9050919050565b7f7804d923f43a17d325d77e781528e0793b2edd9890ab45fc64efd7b4b427744c6106ce816106c9611544565b61154c565b6106d7826115e9565b5050565b6060600280546106ea90614530565b80601f016020809104026020016040519081016040528092919081815260200182805461071690614530565b80156107635780601f1061073857610100808354040283529160200191610763565b820191906000526020600020905b81548152906001019060200180831161074657829003601f168201915b50505050509050919050565b6000600660008373ffffffffffffffffffffffffffffffffffffffff1673ffffffffffffffffffffffffffffffffffffffff168152602001908152602001600020549050919050565b600060046000838152602001908152602001600020600101549050919050565b600080600060036040518060400160405290816000820160009054906101000a900473ffffffffffffffffffffffffffffffffffffffff1673ffffffffffffffffffffffffffffffffffffffff1673ffffffffffffffffffffffffffffffffffffffff1681526020016000820160149054906101000a900462ffffff1662ffffff1662ffffff1681525050905080600001519250612710816020015162ffffff168561088491906143ec565b61088e91906143bb565b9150509250929050565b6108a0611544565b73ffffffffffffffffffffffffffffffffffffffff168573ffffffffffffffffffffffffffffffffffffffff1614806108e657506108e5856108e0611544565b611142565b5b610925576040517f08c379a000000000000000000000000000000000000000000000000000000000815260040161091c906140a6565b60405180910390fd5b6109328585858585611603565b5050505050565b610942826107b8565b6109538161094e611544565b61154c565b61095d8383611963565b505050565b7f9f2df0fed2c77648de5860a4cc508cd0818c85b8b8a1ab4ceeef8d981c8956a66109948161098f611544565b61154c565b60005b8251811015610a38576000600660008584815181106109df577f4e487b7100000000000000000000000000000000000000000000000000000000600052603260045260246000fd5b602002602001015173ffffffffffffffffffffffffffffffffffffffff1673ffffffffffffffffffffffffffffffffffffffff168152602001908152602001600020819055508080610a3090614593565b915050610997565b505050565b610a45611544565b73ffffffffffffffffffffffffffffffffffffffff168173ffffffffffffffffffffffffffffffffffffffff1614610ab2576040517f08c379a0000000000000000000000000000000000000000000000000000000008152600401610aa9906141a6565b60405180910390fd5b610abc8282611a44565b5050565b7f65d7a28e3265b37a6474929f336521b332c1681b933f6cb9f3376673440d862a610af281610aed611544565b61154c565b610afa611b26565b50565b60608151835114610b43576040517f08c379a0000000000000000000000000000000000000000000000000000000008152600401610b3a90614126565b60405180910390fd5b6000835167ffffffffffffffff811115610b86577f4e487b7100000000000000000000000000000000000000000000000000000000600052604160045260246000fd5b604051908082528060200260200182016040528015610bb45781602001602082028036833780820191505090505b50905060005b8451811015610ca357610c4d858281518110610bff577f4e487b7100000000000000000000000000000000000000000000000000000000600052603260045260246000fd5b6020026020010151858381518110610c40577f4e487b7100000000000000000000000000000000000000000000000000000000600052603260045260246000fd5b60200260200101516105c1565b828281518110610c86577f4e487b7100000000000000000000000000000000000000000000000000000000600052603260045260246000fd5b60200260200101818152505080610c9c90614593565b9050610bba565b508091505092915050565b6000600560009054906101000a900460ff16905090565b6000600660003373ffffffffffffffffffffffffffffffffffffffff1673ffffffffffffffffffffffffffffffffffffffff1681526020019081526020016000205411610d47576040517f08c379a0000000000000000000000000000000000000000000000000000000008152600401610d3e90614186565b60405180910390fd5b600660003373ffffffffffffffffffffffffffffffffffffffff1673ffffffffffffffffffffffffffffffffffffffff1681526020019081526020016000206000815480929190610d9790614506565b9190505550610db9816000600160405180602001604052806000815250611bc8565b50565b610dc4611544565b73ffffffffffffffffffffffffffffffffffffffff168373ffffffffffffffffffffffffffffffffffffffff161480610e0a5750610e0983610e04611544565b611142565b5b610e49576040517f08c379a0000000000000000000000000000000000000000000000000000000008152600401610e4090614046565b60405180910390fd5b610e54838383611d5e565b505050565b7f7804d923f43a17d325d77e781528e0793b2edd9890ab45fc64efd7b4b427744c81565b7f65d7a28e3265b37a6474929f336521b332c1681b933f6cb9f3376673440d862a610eaf81610eaa611544565b61154c565b610eb761205b565b50565b6000801b610ecf81610eca611544565b61154c565b610ed983836120fe565b505050565b60006004600084815260200190815260200160002060000160008373ffffffffffffffffffffffffffffffffffffffff1673ffffffffffffffffffffffffffffffffffffffff16815260200190815260200160002060009054906101000a900460ff16905092915050565b6000801b81565b8173ffffffffffffffffffffffffffffffffffffffff16610f6f611544565b73ffffffffffffffffffffffffffffffffffffffff161415610fc6576040517f08c379a0000000000000000000000000000000000000000000000000000000008152600401610fbd90614106565b60405180910390fd5b8060016000610fd3611544565b73ffffffffffffffffffffffffffffffffffffffff1673ffffffffffffffffffffffffffffffffffffffff16815260200190815260200160002060008473ffffffffffffffffffffffffffffffffffffffff1673ffffffffffffffffffffffffffffffffffffffff16815260200190815260200160002060006101000a81548160ff0219169083151502179055508173ffffffffffffffffffffffffffffffffffffffff16611080611544565b73ffffffffffffffffffffffffffffffffffffffff167f17307eab39ab6107e8899845ad3d59bd9653f200f220920489ca2b5937696c31836040516110c59190613eee565b60405180910390a35050565b7f9f2df0fed2c77648de5860a4cc508cd0818c85b8b8a1ab4ceeef8d981c8956a681565b6110fe826107b8565b61110f8161110a611544565b61154c565b6111198383611a44565b505050565b7f65d7a28e3265b37a6474929f336521b332c1681b933f6cb9f3376673440d862a81565b6000600160008473ffffffffffffffffffffffffffffffffffffffff1673ffffffffffffffffffffffffffffffffffffffff16815260200190815260200160002060008373ffffffffffffffffffffffffffffffffffffffff1673ffffffffffffffffffffffffffffffffffffffff16815260200190815260200160002060009054906101000a900460ff16905092915050565b7f9f2df0fed2c77648de5860a4cc508cd0818c85b8b8a1ab4ceeef8d981c8956a661120881611203611544565b61154c565b815183511461124c576040517f08c379a000000000000000000000000000000000000000000000000000000000815260040161124390613f66565b60405180910390fd5b60005b835181101561134157828181518110611291577f4e487b7100000000000000000000000000000000000000000000000000000000600052603260045260246000fd5b6020026020010151600660008684815181106112d6577f4e487b7100000000000000000000000000000000000000000000000000000000600052603260045260246000fd5b602002602001015173ffffffffffffffffffffffffffffffffffffffff1673ffffffffffffffffffffffffffffffffffffffff16815260200190815260200160002060008282546113279190614365565b92505081905550808061133990614593565b91505061124f565b50505050565b7f9f2df0fed2c77648de5860a4cc508cd0818c85b8b8a1ab4ceeef8d981c8956a661137981611374611544565b61154c565b61138585858585611bc8565b5050505050565b611394611544565b73ffffffffffffffffffffffffffffffffffffffff168573ffffffffffffffffffffffffffffffffffffffff1614806113da57506113d9856113d4611544565b611142565b5b611419576040517f08c379a000000000000000000000000000000000000000000000000000000000815260040161141090614046565b60405180910390fd5b61142685858585856121e8565b5050505050565b611435611544565b73ffffffffffffffffffffffffffffffffffffffff168373ffffffffffffffffffffffffffffffffffffffff16148061147b575061147a83611475611544565b611142565b5b6114ba576040517f08c379a00000000000000000000000000000000000000000000000000000000081526004016114b190614046565b60405180910390fd5b6114c583838361246a565b505050565b60007f7965db0b000000000000000000000000000000000000000000000000000000007bffffffffffffffffffffffffffffffffffffffffffffffffffffffff1916827bffffffffffffffffffffffffffffffffffffffffffffffffffffffff1916148061153d575061153c82612687565b5b9050919050565b600033905090565b6115568282610ede565b6115e55761157b8173ffffffffffffffffffffffffffffffffffffffff166014612701565b6115898360001c6020612701565b60405160200161159a929190613d55565b6040516020818303038152906040526040517f08c379a00000000000000000000000000000000000000000000000000000000081526004016115dc9190613f24565b60405180910390fd5b5050565b80600290805190602001906115ff929190613054565b5050565b8151835114611647576040517f08c379a000000000000000000000000000000000000000000000000000000000815260040161163e90614146565b60405180910390fd5b600073ffffffffffffffffffffffffffffffffffffffff168473ffffffffffffffffffffffffffffffffffffffff1614156116b7576040517f08c379a00000000000000000000000000000000000000000000000000000000081526004016116ae90614086565b60405180910390fd5b60006116c1611544565b90506116d18187878787876129fb565b60005b84518110156118ce576000858281518110611718577f4e487b7100000000000000000000000000000000000000000000000000000000600052603260045260246000fd5b60200260200101519050600085838151811061175d577f4e487b7100000000000000000000000000000000000000000000000000000000600052603260045260246000fd5b60200260200101519050600080600084815260200190815260200160002060008b73ffffffffffffffffffffffffffffffffffffffff1673ffffffffffffffffffffffffffffffffffffffff168152602001908152602001600020549050818110156117fe576040517f08c379a00000000000000000000000000000000000000000000000000000000081526004016117f5906140e6565b60405180910390fd5b81810360008085815260200190815260200160002060008c73ffffffffffffffffffffffffffffffffffffffff1673ffffffffffffffffffffffffffffffffffffffff168152602001908152602001600020819055508160008085815260200190815260200160002060008b73ffffffffffffffffffffffffffffffffffffffff1673ffffffffffffffffffffffffffffffffffffffff16815260200190815260200160002060008282546118b39190614365565b92505081905550505050806118c790614593565b90506116d4565b508473ffffffffffffffffffffffffffffffffffffffff168673ffffffffffffffffffffffffffffffffffffffff168273ffffffffffffffffffffffffffffffffffffffff167f4a39dc06d4c0dbc64b70af90fd698a233a518aa5d07e595d983b8c0526c8f7fb8787604051611945929190613eb7565b60405180910390a461195b818787878787612a59565b505050505050565b61196d8282610ede565b611a405760016004600084815260200190815260200160002060000160008373ffffffffffffffffffffffffffffffffffffffff1673ffffffffffffffffffffffffffffffffffffffff16815260200190815260200160002060006101000a81548160ff0219169083151502179055506119e5611544565b73ffffffffffffffffffffffffffffffffffffffff168173ffffffffffffffffffffffffffffffffffffffff16837f2f8788117e7eff1d82e926ec794901d17c78024a50270940304540a733656f0d60405160405180910390a45b5050565b611a4e8282610ede565b15611b225760006004600084815260200190815260200160002060000160008373ffffffffffffffffffffffffffffffffffffffff1673ffffffffffffffffffffffffffffffffffffffff16815260200190815260200160002060006101000a81548160ff021916908315150217905550611ac7611544565b73ffffffffffffffffffffffffffffffffffffffff168173ffffffffffffffffffffffffffffffffffffffff16837ff6391f5c32d9c69d2a47ea670b442974b53935d1edc7fd64eb21e047a839171b60405160405180910390a45b5050565b611b2e610cae565b611b6d576040517f08c379a0000000000000000000000000000000000000000000000000000000008152600401611b6490613fc6565b60405180910390fd5b6000600560006101000a81548160ff0219169083151502179055507f5db9ee0a495bf2e6ff9c91a7834c1ba4fdd244a5e8aa4e537bd38aeae4b073aa611bb1611544565b604051611bbe9190613d8f565b60405180910390a1565b600073ffffffffffffffffffffffffffffffffffffffff168473ffffffffffffffffffffffffffffffffffffffff161415611c38576040517f08c379a0000000000000000000000000000000000000000000000000000000008152600401611c2f90614166565b60405180910390fd5b6000611c42611544565b9050611c6381600087611c5488612c40565b611c5d88612c40565b876129fb565b8260008086815260200190815260200160002060008773ffffffffffffffffffffffffffffffffffffffff1673ffffffffffffffffffffffffffffffffffffffff1681526020019081526020016000206000828254611cc29190614365565b925050819055508473ffffffffffffffffffffffffffffffffffffffff16600073ffffffffffffffffffffffffffffffffffffffff168273ffffffffffffffffffffffffffffffffffffffff167fc3d58168c5ae7397731d063d5bbf3d657854427343f4c083240f7aacaa2d0f628787604051611d409291906141e1565b60405180910390a4611d5781600087878787612d06565b5050505050565b600073ffffffffffffffffffffffffffffffffffffffff168373ffffffffffffffffffffffffffffffffffffffff161415611dce576040517f08c379a0000000000000000000000000000000000000000000000000000000008152600401611dc5906140c6565b60405180910390fd5b8051825114611e12576040517f08c379a0000000000000000000000000000000000000000000000000000000008152600401611e0990614146565b60405180910390fd5b6000611e1c611544565b9050611e3c818560008686604051806020016040528060008152506129fb565b60005b8351811015611fd5576000848281518110611e83577f4e487b7100000000000000000000000000000000000000000000000000000000600052603260045260246000fd5b602002602001015190506000848381518110611ec8577f4e487b7100000000000000000000000000000000000000000000000000000000600052603260045260246000fd5b60200260200101519050600080600084815260200190815260200160002060008973ffffffffffffffffffffffffffffffffffffffff1673ffffffffffffffffffffffffffffffffffffffff16815260200190815260200160002054905081811015611f69576040517f08c379a0000000000000000000000000000000000000000000000000000000008152600401611f6090614026565b60405180910390fd5b81810360008085815260200190815260200160002060008a73ffffffffffffffffffffffffffffffffffffffff1673ffffffffffffffffffffffffffffffffffffffff168152602001908152602001600020819055505050508080611fcd90614593565b915050611e3f565b50600073ffffffffffffffffffffffffffffffffffffffff168473ffffffffffffffffffffffffffffffffffffffff168273ffffffffffffffffffffffffffffffffffffffff167f4a39dc06d4c0dbc64b70af90fd698a233a518aa5d07e595d983b8c0526c8f7fb868660405161204d929190613eb7565b60405180910390a450505050565b612063610cae565b156120a3576040517f08c379a000000000000000000000000000000000000000000000000000000000815260040161209a90614066565b60405180910390fd5b6001600560006101000a81548160ff0219169083151502179055507f62e78cea01bee320cd4e420270b5ea74000d11b0c9f74754ebdbfc544b05a2586120e7611544565b6040516120f49190613d8f565b60405180910390a1565b612710811115612143576040517f08c379a000000000000000000000000000000000000000000000000000000000815260040161213a90613fe6565b60405180910390fd5b60405180604001604052808373ffffffffffffffffffffffffffffffffffffffff1681526020018262ffffff16815250600360008201518160000160006101000a81548173ffffffffffffffffffffffffffffffffffffffff021916908373ffffffffffffffffffffffffffffffffffffffff16021790555060208201518160000160146101000a81548162ffffff021916908362ffffff1602179055509050505050565b600073ffffffffffffffffffffffffffffffffffffffff168473ffffffffffffffffffffffffffffffffffffffff161415612258576040517f08c379a000000000000000000000000000000000000000000000000000000000815260040161224f90614086565b60405180910390fd5b6000612262611544565b905061228281878761227388612c40565b61227c88612c40565b876129fb565b600080600086815260200190815260200160002060008873ffffffffffffffffffffffffffffffffffffffff1673ffffffffffffffffffffffffffffffffffffffff16815260200190815260200160002054905083811015612319576040517f08c379a0000000000000000000000000000000000000000000000000000000008152600401612310906140e6565b60405180910390fd5b83810360008087815260200190815260200160002060008973ffffffffffffffffffffffffffffffffffffffff1673ffffffffffffffffffffffffffffffffffffffff168152602001908152602001600020819055508360008087815260200190815260200160002060008873ffffffffffffffffffffffffffffffffffffffff1673ffffffffffffffffffffffffffffffffffffffff16815260200190815260200160002060008282546123ce9190614365565b925050819055508573ffffffffffffffffffffffffffffffffffffffff168773ffffffffffffffffffffffffffffffffffffffff168373ffffffffffffffffffffffffffffffffffffffff167fc3d58168c5ae7397731d063d5bbf3d657854427343f4c083240f7aacaa2d0f62888860405161244b9291906141e1565b60405180910390a4612461828888888888612d06565b50505050505050565b600073ffffffffffffffffffffffffffffffffffffffff168373ffffffffffffffffffffffffffffffffffffffff1614156124da576040517f08c379a00000000000000000000000000000000000000000000000000000000081526004016124d1906140c6565b60405180910390fd5b60006124e4611544565b9050612514818560006124f687612c40565b6124ff87612c40565b604051806020016040528060008152506129fb565b600080600085815260200190815260200160002060008673ffffffffffffffffffffffffffffffffffffffff1673ffffffffffffffffffffffffffffffffffffffff168152602001908152602001600020549050828110156125ab576040517f08c379a00000000000000000000000000000000000000000000000000000000081526004016125a290614026565b60405180910390fd5b82810360008086815260200190815260200160002060008773ffffffffffffffffffffffffffffffffffffffff1673ffffffffffffffffffffffffffffffffffffffff16815260200190815260200160002081905550600073ffffffffffffffffffffffffffffffffffffffff168573ffffffffffffffffffffffffffffffffffffffff168373ffffffffffffffffffffffffffffffffffffffff167fc3d58168c5ae7397731d063d5bbf3d657854427343f4c083240f7aacaa2d0f6287876040516126789291906141e1565b60405180910390a45050505050565b60007f2a55205a000000000000000000000000000000000000000000000000000000007bffffffffffffffffffffffffffffffffffffffffffffffffffffffff1916827bffffffffffffffffffffffffffffffffffffffffffffffffffffffff191614806126fa57506126f982612eed565b5b9050919050565b60606000600283600261271491906143ec565b61271e9190614365565b67ffffffffffffffff81111561275d577f4e487b7100000000000000000000000000000000000000000000000000000000600052604160045260246000fd5b6040519080825280601f01601f19166020018201604052801561278f5781602001600182028036833780820191505090505b5090507f3000000000000000000000000000000000000000000000000000000000000000816000815181106127ed577f4e487b7100000000000000000000000000000000000000000000000000000000600052603260045260246000fd5b60200101907effffffffffffffffffffffffffffffffffffffffffffffffffffffffffffff1916908160001a9053507f780000000000000000000000000000000000000000000000000000000000000081600181518110612877577f4e487b7100000000000000000000000000000000000000000000000000000000600052603260045260246000fd5b60200101907effffffffffffffffffffffffffffffffffffffffffffffffffffffffffffff1916908160001a905350600060018460026128b791906143ec565b6128c19190614365565b90505b60018111156129ad577f3031323334353637383961626364656600000000000000000000000000000000600f861660108110612929577f4e487b7100000000000000000000000000000000000000000000000000000000600052603260045260246000fd5b1a60f81b828281518110612966577f4e487b7100000000000000000000000000000000000000000000000000000000600052603260045260246000fd5b60200101907effffffffffffffffffffffffffffffffffffffffffffffffffffffffffffff1916908160001a905350600485901c9450806129a690614506565b90506128c4565b50600084146129f1576040517f08c379a00000000000000000000000000000000000000000000000000000000081526004016129e890613f86565b60405180910390fd5b8091505092915050565b612a03610cae565b15612a43576040517f08c379a0000000000000000000000000000000000000000000000000000000008152600401612a3a90614066565b60405180910390fd5b612a51868686868686612fcf565b505050505050565b612a788473ffffffffffffffffffffffffffffffffffffffff16612fd7565b15612c38578373ffffffffffffffffffffffffffffffffffffffff1663bc197c8187878686866040518663ffffffff1660e01b8152600401612abe959493929190613daa565b602060405180830381600087803b158015612ad857600080fd5b505af1925050508015612b0957506040513d601f19601f82011682018060405250810190612b069190613820565b60015b612baf57612b15614698565b806308c379a01415612b725750612b2a614c98565b80612b355750612b74565b806040517f08c379a0000000000000000000000000000000000000000000000000000000008152600401612b699190613f24565b60405180910390fd5b505b6040517f08c379a0000000000000000000000000000000000000000000000000000000008152600401612ba690613f46565b60405180910390fd5b63bc197c8160e01b7bffffffffffffffffffffffffffffffffffffffffffffffffffffffff1916817bffffffffffffffffffffffffffffffffffffffffffffffffffffffff191614612c36576040517f08c379a0000000000000000000000000000000000000000000000000000000008152600401612c2d90613fa6565b60405180910390fd5b505b505050505050565b60606000600167ffffffffffffffff811115612c85577f4e487b7100000000000000000000000000000000000000000000000000000000600052604160045260246000fd5b604051908082528060200260200182016040528015612cb35781602001602082028036833780820191505090505b5090508281600081518110612cf1577f4e487b7100000000000000000000000000000000000000000000000000000000600052603260045260246000fd5b60200260200101818152505080915050919050565b612d258473ffffffffffffffffffffffffffffffffffffffff16612fd7565b15612ee5578373ffffffffffffffffffffffffffffffffffffffff1663f23a6e6187878686866040518663ffffffff1660e01b8152600401612d6b959493929190613e12565b602060405180830381600087803b158015612d8557600080fd5b505af1925050508015612db657506040513d601f19601f82011682018060405250810190612db39190613820565b60015b612e5c57612dc2614698565b806308c379a01415612e1f5750612dd7614c98565b80612de25750612e21565b806040517f08c379a0000000000000000000000000000000000000000000000000000000008152600401612e169190613f24565b60405180910390fd5b505b6040517f08c379a0000000000000000000000000000000000000000000000000000000008152600401612e5390613f46565b60405180910390fd5b63f23a6e6160e01b7bffffffffffffffffffffffffffffffffffffffffffffffffffffffff1916817bffffffffffffffffffffffffffffffffffffffffffffffffffffffff191614612ee3576040517f08c379a0000000000000000000000000000000000000000000000000000000008152600401612eda90613fa6565b60405180910390fd5b505b505050505050565b60007fd9b67a26000000000000000000000000000000000000000000000000000000007bffffffffffffffffffffffffffffffffffffffffffffffffffffffff1916827bffffffffffffffffffffffffffffffffffffffffffffffffffffffff19161480612fb857507f0e89341c000000000000000000000000000000000000000000000000000000007bffffffffffffffffffffffffffffffffffffffffffffffffffffffff1916827bffffffffffffffffffffffffffffffffffffffffffffffffffffffff1916145b80612fc85750612fc782612fea565b5b9050919050565b505050505050565b600080823b905060008111915050919050565b60007f01ffc9a7000000000000000000000000000000000000000000000000000000007bffffffffffffffffffffffffffffffffffffffffffffffffffffffff1916827bffffffffffffffffffffffffffffffffffffffffffffffffffffffff1916149050919050565b82805461306090614530565b90600052602060002090601f01602090048101928261308257600085556130c9565b82601f1061309b57805160ff19168380011785556130c9565b828001600101855582156130c9579182015b828111156130c85782518255916020019190600101906130ad565b5b5090506130d691906130da565b5090565b5b808211156130f35760008160009055506001016130db565b5090565b600061310a6131058461422f565b61420a565b9050808382526020820190508285602086028201111561312957600080fd5b60005b85811015613159578161313f888261324b565b84526020840193506020830192505060018101905061312c565b5050509392505050565b60006131766131718461425b565b61420a565b9050808382526020820190508285602086028201111561319557600080fd5b60005b858110156131c557816131ab888261335c565b845260208401935060208301925050600181019050613198565b5050509392505050565b60006131e26131dd84614287565b61420a565b9050828152602081018484840111156131fa57600080fd5b6132058482856144c4565b509392505050565b600061322061321b846142b8565b61420a565b90508281526020810184848401111561323857600080fd5b6132438482856144c4565b509392505050565b60008135905061325a81614d2e565b92915050565b600082601f83011261327157600080fd5b81356132818482602086016130f7565b91505092915050565b600082601f83011261329b57600080fd5b81356132ab848260208601613163565b91505092915050565b6000813590506132c381614d45565b92915050565b6000813590506132d881614d5c565b92915050565b6000813590506132ed81614d73565b92915050565b60008151905061330281614d73565b92915050565b600082601f83011261331957600080fd5b81356133298482602086016131cf565b91505092915050565b600082601f83011261334357600080fd5b813561335384826020860161320d565b91505092915050565b60008135905061336b81614d8a565b92915050565b60006020828403121561338357600080fd5b60006133918482850161324b565b91505092915050565b600080604083850312156133ad57600080fd5b60006133bb8582860161324b565b92505060206133cc8582860161324b565b9150509250929050565b600080600080600060a086880312156133ee57600080fd5b60006133fc8882890161324b565b955050602061340d8882890161324b565b945050604086013567ffffffffffffffff81111561342a57600080fd5b6134368882890161328a565b935050606086013567ffffffffffffffff81111561345357600080fd5b61345f8882890161328a565b925050608086013567ffffffffffffffff81111561347c57600080fd5b61348888828901613308565b9150509295509295909350565b600080600080600060a086880312156134ad57600080fd5b60006134bb8882890161324b565b95505060206134cc8882890161324b565b94505060406134dd8882890161335c565b93505060606134ee8882890161335c565b925050608086013567ffffffffffffffff81111561350b57600080fd5b61351788828901613308565b9150509295509295909350565b60008060006060848603121561353957600080fd5b60006135478682870161324b565b935050602084013567ffffffffffffffff81111561356457600080fd5b6135708682870161328a565b925050604084013567ffffffffffffffff81111561358d57600080fd5b6135998682870161328a565b9150509250925092565b600080604083850312156135b657600080fd5b60006135c48582860161324b565b92505060206135d5858286016132b4565b9150509250929050565b600080604083850312156135f257600080fd5b60006136008582860161324b565b92505060206136118582860161335c565b9150509250929050565b60008060006060848603121561363057600080fd5b600061363e8682870161324b565b935050602061364f8682870161335c565b92505060406136608682870161335c565b9150509250925092565b6000806000806080858703121561368057600080fd5b600061368e8782880161324b565b945050602061369f8782880161335c565b93505060406136b08782880161335c565b925050606085013567ffffffffffffffff8111156136cd57600080fd5b6136d987828801613308565b91505092959194509250565b6000602082840312156136f757600080fd5b600082013567ffffffffffffffff81111561371157600080fd5b61371d84828501613260565b91505092915050565b6000806040838503121561373957600080fd5b600083013567ffffffffffffffff81111561375357600080fd5b61375f85828601613260565b925050602083013567ffffffffffffffff81111561377c57600080fd5b6137888582860161328a565b9150509250929050565b6000602082840312156137a457600080fd5b60006137b2848285016132c9565b91505092915050565b600080604083850312156137ce57600080fd5b60006137dc858286016132c9565b92505060206137ed8582860161324b565b9150509250929050565b60006020828403121561380957600080fd5b6000613817848285016132de565b91505092915050565b60006020828403121561383257600080fd5b6000613840848285016132f3565b91505092915050565b60006020828403121561385b57600080fd5b600082013567ffffffffffffffff81111561387557600080fd5b61388184828501613332565b91505092915050565b60006020828403121561389c57600080fd5b60006138aa8482850161335c565b91505092915050565b600080604083850312156138c657600080fd5b60006138d48582860161335c565b92505060206138e58582860161335c565b9150509250929050565b60006138fb8383613d37565b60208301905092915050565b61391081614446565b82525050565b6000613921826142f9565b61392b8185614327565b9350613936836142e9565b8060005b8381101561396757815161394e88826138ef565b97506139598361431a565b92505060018101905061393a565b5085935050505092915050565b61397d81614458565b82525050565b61398c81614464565b82525050565b600061399d82614304565b6139a78185614338565b93506139b78185602086016144d3565b6139c0816146ba565b840191505092915050565b60006139d68261430f565b6139e08185614349565b93506139f08185602086016144d3565b6139f9816146ba565b840191505092915050565b6000613a0f8261430f565b613a19818561435a565b9350613a298185602086016144d3565b80840191505092915050565b6000613a42603483614349565b9150613a4d826146d8565b604082019050919050565b6000613a65603283614349565b9150613a7082614727565b604082019050919050565b6000613a88602083614349565b9150613a9382614776565b602082019050919050565b6000613aab602883614349565b9150613ab68261479f565b604082019050919050565b6000613ace601483614349565b9150613ad9826147ee565b602082019050919050565b6000613af1601a83614349565b9150613afc82614817565b602082019050919050565b6000613b14602b83614349565b9150613b1f82614840565b604082019050919050565b6000613b37602483614349565b9150613b428261488f565b604082019050919050565b6000613b5a602983614349565b9150613b65826148de565b604082019050919050565b6000613b7d601083614349565b9150613b888261492d565b602082019050919050565b6000613ba0602583614349565b9150613bab82614956565b604082019050919050565b6000613bc3603283614349565b9150613bce826149a5565b604082019050919050565b6000613be6602383614349565b9150613bf1826149f4565b604082019050919050565b6000613c09602a83614349565b9150613c1482614a43565b604082019050919050565b6000613c2c60178361435a565b9150613c3782614a92565b601782019050919050565b6000613c4f602983614349565b9150613c5a82614abb565b604082019050919050565b6000613c72602983614349565b9150613c7d82614b0a565b604082019050919050565b6000613c95602883614349565b9150613ca082614b59565b604082019050919050565b6000613cb8602183614349565b9150613cc382614ba8565b604082019050919050565b6000613cdb601783614349565b9150613ce682614bf7565b602082019050919050565b6000613cfe60118361435a565b9150613d0982614c20565b601182019050919050565b6000613d21602f83614349565b9150613d2c82614c49565b604082019050919050565b613d40816144ba565b82525050565b613d4f816144ba565b82525050565b6000613d6082613c1f565b9150613d6c8285613a04565b9150613d7782613cf1565b9150613d838284613a04565b91508190509392505050565b6000602082019050613da46000830184613907565b92915050565b600060a082019050613dbf6000830188613907565b613dcc6020830187613907565b8181036040830152613dde8186613916565b90508181036060830152613df28185613916565b90508181036080830152613e068184613992565b90509695505050505050565b600060a082019050613e276000830188613907565b613e346020830187613907565b613e416040830186613d46565b613e4e6060830185613d46565b8181036080830152613e608184613992565b90509695505050505050565b6000604082019050613e816000830185613907565b613e8e6020830184613d46565b9392505050565b60006020820190508181036000830152613eaf8184613916565b905092915050565b60006040820190508181036000830152613ed18185613916565b90508181036020830152613ee58184613916565b90509392505050565b6000602082019050613f036000830184613974565b92915050565b6000602082019050613f1e6000830184613983565b92915050565b60006020820190508181036000830152613f3e81846139cb565b905092915050565b60006020820190508181036000830152613f5f81613a35565b9050919050565b60006020820190508181036000830152613f7f81613a58565b9050919050565b60006020820190508181036000830152613f9f81613a7b565b9050919050565b60006020820190508181036000830152613fbf81613a9e565b9050919050565b60006020820190508181036000830152613fdf81613ac1565b9050919050565b60006020820190508181036000830152613fff81613ae4565b9050919050565b6000602082019050818103600083015261401f81613b07565b9050919050565b6000602082019050818103600083015261403f81613b2a565b9050919050565b6000602082019050818103600083015261405f81613b4d565b9050919050565b6000602082019050818103600083015261407f81613b70565b9050919050565b6000602082019050818103600083015261409f81613b93565b9050919050565b600060208201905081810360008301526140bf81613bb6565b9050919050565b600060208201905081810360008301526140df81613bd9565b9050919050565b600060208201905081810360008301526140ff81613bfc565b9050919050565b6000602082019050818103600083015261411f81613c42565b9050919050565b6000602082019050818103600083015261413f81613c65565b9050919050565b6000602082019050818103600083015261415f81613c88565b9050919050565b6000602082019050818103600083015261417f81613cab565b9050919050565b6000602082019050818103600083015261419f81613cce565b9050919050565b600060208201905081810360008301526141bf81613d14565b9050919050565b60006020820190506141db6000830184613d46565b92915050565b60006040820190506141f66000830185613d46565b6142036020830184613d46565b9392505050565b6000614214614225565b90506142208282614562565b919050565b6000604051905090565b600067ffffffffffffffff82111561424a57614249614669565b5b602082029050602081019050919050565b600067ffffffffffffffff82111561427657614275614669565b5b602082029050602081019050919050565b600067ffffffffffffffff8211156142a2576142a1614669565b5b6142ab826146ba565b9050602081019050919050565b600067ffffffffffffffff8211156142d3576142d2614669565b5b6142dc826146ba565b9050602081019050919050565b6000819050602082019050919050565b600081519050919050565b600081519050919050565b600081519050919050565b6000602082019050919050565b600082825260208201905092915050565b600082825260208201905092915050565b600082825260208201905092915050565b600081905092915050565b6000614370826144ba565b915061437b836144ba565b9250827fffffffffffffffffffffffffffffffffffffffffffffffffffffffffffffffff038211156143b0576143af6145dc565b5b828201905092915050565b60006143c6826144ba565b91506143d1836144ba565b9250826143e1576143e061460b565b5b828204905092915050565b60006143f7826144ba565b9150614402836144ba565b9250817fffffffffffffffffffffffffffffffffffffffffffffffffffffffffffffffff048311821515161561443b5761443a6145dc565b5b828202905092915050565b60006144518261449a565b9050919050565b60008115159050919050565b6000819050919050565b60007fffffffff0000000000000000000000000000000000000000000000000000000082169050919050565b600073ffffffffffffffffffffffffffffffffffffffff82169050919050565b6000819050919050565b82818337600083830152505050565b60005b838110156144f15780820151818401526020810190506144d6565b83811115614500576000848401525b50505050565b6000614511826144ba565b91506000821415614525576145246145dc565b5b600182039050919050565b6000600282049050600182168061454857607f821691505b6020821081141561455c5761455b61463a565b5b50919050565b61456b826146ba565b810181811067ffffffffffffffff8211171561458a57614589614669565b5b80604052505050565b600061459e826144ba565b91507fffffffffffffffffffffffffffffffffffffffffffffffffffffffffffffffff8214156145d1576145d06145dc565b5b600182019050919050565b7f4e487b7100000000000000000000000000000000000000000000000000000000600052601160045260246000fd5b7f4e487b7100000000000000000000000000000000000000000000000000000000600052601260045260246000fd5b7f4e487b7100000000000000000000000000000000000000000000000000000000600052602260045260246000fd5b7f4e487b7100000000000000000000000000000000000000000000000000000000600052604160045260246000fd5b600060033d11156146b75760046000803e6146b46000516146cb565b90505b90565b6000601f19601f8301169050919050565b60008160e01c9050919050565b7f455243313135353a207472616e7366657220746f206e6f6e204552433131353560008201527f526563656976657220696d706c656d656e746572000000000000000000000000602082015250565b7f496e707574206572726f72202d206163636f756e747320616e6420616d6f756e60008201527f7473206c656e677468206d69736d617463680000000000000000000000000000602082015250565b7f537472696e67733a20686578206c656e67746820696e73756666696369656e74600082015250565b7f455243313135353a204552433131353552656365697665722072656a6563746560008201527f6420746f6b656e73000000000000000000000000000000000000000000000000602082015250565b7f5061757361626c653a206e6f7420706175736564000000000000000000000000600082015250565b7f45524332393831526f79616c746965733a20546f6f2068696768000000000000600082015250565b7f455243313135353a2062616c616e636520717565727920666f7220746865207a60008201527f65726f2061646472657373000000000000000000000000000000000000000000602082015250565b7f455243313135353a206275726e20616d6f756e7420657863656564732062616c60008201527f616e636500000000000000000000000000000000000000000000000000000000602082015250565b7f455243313135353a2063616c6c6572206973206e6f74206f776e6572206e6f7260008201527f20617070726f7665640000000000000000000000000000000000000000000000602082015250565b7f5061757361626c653a2070617573656400000000000000000000000000000000600082015250565b7f455243313135353a207472616e7366657220746f20746865207a65726f20616460008201527f6472657373000000000000000000000000000000000000000000000000000000602082015250565b7f455243313135353a207472616e736665722063616c6c6572206973206e6f742060008201527f6f776e6572206e6f7220617070726f7665640000000000000000000000000000602082015250565b7f455243313135353a206275726e2066726f6d20746865207a65726f206164647260008201527f6573730000000000000000000000000000000000000000000000000000000000602082015250565b7f455243313135353a20696e73756666696369656e742062616c616e636520666f60008201527f72207472616e7366657200000000000000000000000000000000000000000000602082015250565b7f416363657373436f6e74726f6c3a206163636f756e7420000000000000000000600082015250565b7f455243313135353a2073657474696e6720617070726f76616c2073746174757360008201527f20666f722073656c660000000000000000000000000000000000000000000000602082015250565b7f455243313135353a206163636f756e747320616e6420696473206c656e67746860008201527f206d69736d617463680000000000000000000000000000000000000000000000602082015250565b7f455243313135353a2069647320616e6420616d6f756e7473206c656e6774682060008201527f6d69736d61746368000000000000000000000000000000000000000000000000602082015250565b7f455243313135353a206d696e7420746f20746865207a65726f2061646472657360008201527f7300000000000000000000000000000000000000000000000000000000000000602082015250565b7f4e6f20617661696c61626c6520696e7669746174696f6e000000000000000000600082015250565b7f206973206d697373696e6720726f6c6520000000000000000000000000000000600082015250565b7f416363657373436f6e74726f6c3a2063616e206f6e6c792072656e6f756e636560008201527f20726f6c657320666f722073656c660000000000000000000000000000000000602082015250565b600060443d1015614ca857614d2b565b614cb0614225565b60043d036004823e80513d602482011167ffffffffffffffff82111715614cd8575050614d2b565b808201805167ffffffffffffffff811115614cf65750505050614d2b565b80602083010160043d038501811115614d13575050505050614d2b565b614d2282602001850186614562565b82955050505050505b90565b614d3781614446565b8114614d4257600080fd5b50565b614d4e81614458565b8114614d5957600080fd5b50565b614d6581614464565b8114614d7057600080fd5b50565b614d7c8161446e565b8114614d8757600080fd5b50565b614d93816144ba565b8114614d9e57600080fd5b5056fea2646970667358221220d9f44420938f1f7327de0c2d2109bd3c86ac54d5e3b4fe99607769dadf0e530b64736f6c6343000802003361723a2f2f587648484d617148336f626477704d535041376c795873626c4c674858524b6f66477943504b6479614f30",
  "linkReferences": {},
  "deployedLinkReferences": {}
}