{
    "_format": "hh-sol-artifact-1",
    "contractName": "TheForge",
    "sourceName": "contracts/TheForge.sol",
    "abi": [
        {
            "inputs": [],
            "stateMutability": "nonpayable",
            "type": "constructor"
        },
        {
            "anonymous": false,
            "inputs": [
                {
                    "indexed": true,
                    "internalType": "address",
                    "name": "owner",
                    "type": "address"
                },
                {
                    "indexed": true,
                    "internalType": "address",
                    "name": "approved",
                    "type": "address"
                },
                {
                    "indexed": true,
                    "internalType": "uint256",
                    "name": "tokenId",
                    "type": "uint256"
                }
            ],
            "name": "Approval",
            "type": "event"
        },
        {
            "anonymous": false,
            "inputs": [
                {
                    "indexed": true,
                    "internalType": "address",
                    "name": "owner",
                    "type": "address"
                },
                {
                    "indexed": true,
                    "internalType": "address",
                    "name": "operator",
                    "type": "address"
                },
                {
                    "indexed": false,
                    "internalType": "bool",
                    "name": "approved",
                    "type": "bool"
                }
            ],
            "name": "ApprovalForAll",
            "type": "event"
        },
        {
            "anonymous": false,
            "inputs": [
                {
                    "indexed": true,
                    "internalType": "address",
                    "name": "previousOwner",
                    "type": "address"
                },
                {
                    "indexed": true,
                    "internalType": "address",
                    "name": "newOwner",
                    "type": "address"
                }
            ],
            "name": "OwnershipTransferred",
            "type": "event"
        },
        {
            "anonymous": false,
            "inputs": [
                {
                    "indexed": false,
                    "internalType": "address",
                    "name": "account",
                    "type": "address"
                }
            ],
            "name": "Paused",
            "type": "event"
        },
        {
            "anonymous": false,
            "inputs": [
                {
                    "indexed": true,
                    "internalType": "address",
                    "name": "from",
                    "type": "address"
                },
                {
                    "indexed": true,
                    "internalType": "address",
                    "name": "to",
                    "type": "address"
                },
                {
                    "indexed": true,
                    "internalType": "uint256",
                    "name": "tokenId",
                    "type": "uint256"
                }
            ],
            "name": "Transfer",
            "type": "event"
        },
        {
            "anonymous": false,
            "inputs": [
                {
                    "indexed": false,
                    "internalType": "address",
                    "name": "account",
                    "type": "address"
                }
            ],
            "name": "Unpaused",
            "type": "event"
        },
        {
            "inputs": [],
            "name": "AddressVS",
            "outputs": [
                {
                    "internalType": "address",
                    "name": "",
                    "type": "address"
                }
            ],
            "stateMutability": "view",
            "type": "function"
        },
        {
            "inputs": [
                {
                    "internalType": "address",
                    "name": "_AddressVS",
                    "type": "address"
                }
            ],
            "name": "_setAddressVerifySignature",
            "outputs": [],
            "stateMutability": "nonpayable",
            "type": "function"
        },
        {
            "inputs": [
                {
                    "internalType": "address",
                    "name": "to",
                    "type": "address"
                },
                {
                    "internalType": "uint256",
                    "name": "tokenId",
                    "type": "uint256"
                }
            ],
            "name": "approve",
            "outputs": [],
            "stateMutability": "nonpayable",
            "type": "function"
        },
        {
            "inputs": [
                {
                    "internalType": "address",
                    "name": "owner",
                    "type": "address"
                }
            ],
            "name": "balanceOf",
            "outputs": [
                {
                    "internalType": "uint256",
                    "name": "",
                    "type": "uint256"
                }
            ],
            "stateMutability": "view",
            "type": "function"
        },
        {
            "inputs": [
                {
                    "internalType": "uint256",
                    "name": "tokenId",
                    "type": "uint256"
                }
            ],
            "name": "burn",
            "outputs": [],
            "stateMutability": "nonpayable",
            "type": "function"
        },
        {
            "inputs": [
                {
                    "internalType": "address",
                    "name": "_signer",
                    "type": "address"
                },
                {
                    "internalType": "address",
                    "name": "_to",
                    "type": "address"
                },
                {
                    "internalType": "bytes",
                    "name": "signature",
                    "type": "bytes"
                }
            ],
            "name": "callVerify",
            "outputs": [
                {
                    "internalType": "bool",
                    "name": "",
                    "type": "bool"
                }
            ],
            "stateMutability": "view",
            "type": "function"
        },
        {
            "inputs": [
                {
                    "internalType": "uint256",
                    "name": "tokenId",
                    "type": "uint256"
                }
            ],
            "name": "getApproved",
            "outputs": [
                {
                    "internalType": "address",
                    "name": "",
                    "type": "address"
                }
            ],
            "stateMutability": "view",
            "type": "function"
        },
        {
            "inputs": [
                {
                    "internalType": "address",
                    "name": "owner",
                    "type": "address"
                },
                {
                    "internalType": "address",
                    "name": "operator",
                    "type": "address"
                }
            ],
            "name": "isApprovedForAll",
            "outputs": [
                {
                    "internalType": "bool",
                    "name": "",
                    "type": "bool"
                }
            ],
            "stateMutability": "view",
            "type": "function"
        },
        {
            "inputs": [],
            "name": "name",
            "outputs": [
                {
                    "internalType": "string",
                    "name": "",
                    "type": "string"
                }
            ],
            "stateMutability": "view",
            "type": "function"
        },
        {
            "inputs": [],
            "name": "owner",
            "outputs": [
                {
                    "internalType": "address",
                    "name": "",
                    "type": "address"
                }
            ],
            "stateMutability": "view",
            "type": "function"
        },
        {
            "inputs": [
                {
                    "internalType": "uint256",
                    "name": "tokenId",
                    "type": "uint256"
                }
            ],
            "name": "ownerOf",
            "outputs": [
                {
                    "internalType": "address",
                    "name": "",
                    "type": "address"
                }
            ],
            "stateMutability": "view",
            "type": "function"
        },
        {
            "inputs": [],
            "name": "pause",
            "outputs": [],
            "stateMutability": "nonpayable",
            "type": "function"
        },
        {
            "inputs": [],
            "name": "paused",
            "outputs": [
                {
                    "internalType": "bool",
                    "name": "",
                    "type": "bool"
                }
            ],
            "stateMutability": "view",
            "type": "function"
        },
        {
            "inputs": [],
            "name": "renounceOwnership",
            "outputs": [],
            "stateMutability": "nonpayable",
            "type": "function"
        },
        {
            "inputs": [
                {
                    "internalType": "address",
                    "name": "to",
                    "type": "address"
                },
                {
                    "internalType": "address",
                    "name": "invintingAddress",
                    "type": "address"
                },
                {
                    "internalType": "bytes",
                    "name": "invitationSignature",
                    "type": "bytes"
                }
            ],
            "name": "safeMint",
            "outputs": [],
            "stateMutability": "nonpayable",
            "type": "function"
        },
        {
            "inputs": [
                {
                    "internalType": "address",
                    "name": "from",
                    "type": "address"
                },
                {
                    "internalType": "address",
                    "name": "to",
                    "type": "address"
                },
                {
                    "internalType": "uint256",
                    "name": "tokenId",
                    "type": "uint256"
                }
            ],
            "name": "safeTransferFrom",
            "outputs": [],
            "stateMutability": "nonpayable",
            "type": "function"
        },
        {
            "inputs": [
                {
                    "internalType": "address",
                    "name": "from",
                    "type": "address"
                },
                {
                    "internalType": "address",
                    "name": "to",
                    "type": "address"
                },
                {
                    "internalType": "uint256",
                    "name": "tokenId",
                    "type": "uint256"
                },
                {
                    "internalType": "bytes",
                    "name": "_data",
                    "type": "bytes"
                }
            ],
            "name": "safeTransferFrom",
            "outputs": [],
            "stateMutability": "nonpayable",
            "type": "function"
        },
        {
            "inputs": [
                {
                    "internalType": "address",
                    "name": "operator",
                    "type": "address"
                },
                {
                    "internalType": "bool",
                    "name": "approved",
                    "type": "bool"
                }
            ],
            "name": "setApprovalForAll",
            "outputs": [],
            "stateMutability": "nonpayable",
            "type": "function"
        },
        {
            "inputs": [
                {
                    "internalType": "bytes4",
                    "name": "interfaceId",
                    "type": "bytes4"
                }
            ],
            "name": "supportsInterface",
            "outputs": [
                {
                    "internalType": "bool",
                    "name": "",
                    "type": "bool"
                }
            ],
            "stateMutability": "view",
            "type": "function"
        },
        {
            "inputs": [],
            "name": "symbol",
            "outputs": [
                {
                    "internalType": "string",
                    "name": "",
                    "type": "string"
                }
            ],
            "stateMutability": "view",
            "type": "function"
        },
        {
            "inputs": [
                {
                    "internalType": "uint256",
                    "name": "index",
                    "type": "uint256"
                }
            ],
            "name": "tokenByIndex",
            "outputs": [
                {
                    "internalType": "uint256",
                    "name": "",
                    "type": "uint256"
                }
            ],
            "stateMutability": "view",
            "type": "function"
        },
        {
            "inputs": [
                {
                    "internalType": "address",
                    "name": "owner",
                    "type": "address"
                },
                {
                    "internalType": "uint256",
                    "name": "index",
                    "type": "uint256"
                }
            ],
            "name": "tokenOfOwnerByIndex",
            "outputs": [
                {
                    "internalType": "uint256",
                    "name": "",
                    "type": "uint256"
                }
            ],
            "stateMutability": "view",
            "type": "function"
        },
        {
            "inputs": [
                {
                    "internalType": "uint256",
                    "name": "tokenId",
                    "type": "uint256"
                }
            ],
            "name": "tokenURI",
            "outputs": [
                {
                    "internalType": "string",
                    "name": "",
                    "type": "string"
                }
            ],
            "stateMutability": "view",
            "type": "function"
        },
        {
            "inputs": [],
            "name": "totalSupply",
            "outputs": [
                {
                    "internalType": "uint256",
                    "name": "",
                    "type": "uint256"
                }
            ],
            "stateMutability": "view",
            "type": "function"
        },
        {
            "inputs": [
                {
                    "internalType": "address",
                    "name": "from",
                    "type": "address"
                },
                {
                    "internalType": "address",
                    "name": "to",
                    "type": "address"
                },
                {
                    "internalType": "uint256",
                    "name": "tokenId",
                    "type": "uint256"
                }
            ],
            "name": "transferFrom",
            "outputs": [],
            "stateMutability": "nonpayable",
            "type": "function"
        },
        {
            "inputs": [
                {
                    "internalType": "address",
                    "name": "newOwner",
                    "type": "address"
                }
            ],
            "name": "transferOwnership",
            "outputs": [],
            "stateMutability": "nonpayable",
            "type": "function"
        },
        {
            "inputs": [],
            "name": "unpause",
            "outputs": [],
            "stateMutability": "nonpayable",
            "type": "function"
        }
    ],
    "bytecode": "0x60806040526040518060800160405280605081526020016200433660509139600d908051906020019062000035929190620001f3565b503480156200004357600080fd5b506040518060400160405280600e81526020017f546865466f72676548616d6d65720000000000000000000000000000000000008152506040518060400160405280600381526020017f54464800000000000000000000000000000000000000000000000000000000008152508160009080519060200190620000c8929190620001f3565b508060019080519060200190620000e1929190620001f3565b5050506000600b60006101000a81548160ff0219169083151502179055506200011f620001136200012560201b60201c565b6200012d60201b60201c565b62000308565b600033905090565b6000600b60019054906101000a900473ffffffffffffffffffffffffffffffffffffffff16905081600b60016101000a81548173ffffffffffffffffffffffffffffffffffffffff021916908373ffffffffffffffffffffffffffffffffffffffff1602179055508173ffffffffffffffffffffffffffffffffffffffff168173ffffffffffffffffffffffffffffffffffffffff167f8be0079c531659141344cd1fd0a4f28419497f9722a3daafe3b4186f6b6457e060405160405180910390a35050565b8280546200020190620002a3565b90600052602060002090601f01602090048101928262000225576000855562000271565b82601f106200024057805160ff191683800117855562000271565b8280016001018555821562000271579182015b828111156200027057825182559160200191906001019062000253565b5b50905062000280919062000284565b5090565b5b808211156200029f57600081600090555060010162000285565b5090565b60006002820490506001821680620002bc57607f821691505b60208210811415620002d357620002d2620002d9565b5b50919050565b7f4e487b7100000000000000000000000000000000000000000000000000000000600052602260045260246000fd5b61401e80620003186000396000f3fe608060405234801561001057600080fd5b50600436106101a95760003560e01c806370a08231116100f9578063a22cb46511610097578063c87b56dd11610071578063c87b56dd14610494578063d02adf60146104c4578063e985e9c5146104e0578063f2fde38b14610510576101a9565b8063a22cb4651461042c578063b88d4fde14610448578063c1d1068f14610464576101a9565b80638456cb59116100d35780638456cb59146103c85780638da5cb5b146103d257806395d89b41146103f05780639d73404d1461040e576101a9565b806370a0823114610372578063715018a6146103a2578063826898a7146103ac576101a9565b80632f745c591161016657806342966c681161014057806342966c68146102d85780634f6ccce7146102f45780635c975abb146103245780636352211e14610342576101a9565b80632f745c59146102825780633f4ba83a146102b257806342842e0e146102bc576101a9565b806301ffc9a7146101ae57806306fdde03146101de578063081812fc146101fc578063095ea7b31461022c57806318160ddd1461024857806323b872dd14610266575b600080fd5b6101c860048036038101906101c39190612e6c565b61052c565b6040516101d591906138c6565b60405180910390f35b6101e661053e565b6040516101f391906138e1565b60405180910390f35b61021660048036038101906102119190612ebe565b6105d0565b6040516102239190613821565b60405180910390f35b61024660048036038101906102419190612e07565b610655565b005b61025061076d565b60405161025d9190613be3565b60405180910390f35b610280600480360381019061027b9190612d01565b61077a565b005b61029c60048036038101906102979190612e07565b6107da565b6040516102a99190613be3565b60405180910390f35b6102ba61087f565b005b6102d660048036038101906102d19190612d01565b610905565b005b6102f260048036038101906102ed9190612ebe565b610925565b005b61030e60048036038101906103099190612ebe565b610981565b60405161031b9190613be3565b60405180910390f35b61032c610a18565b60405161033991906138c6565b60405180910390f35b61035c60048036038101906103579190612ebe565b610a2f565b6040516103699190613821565b60405180910390f35b61038c60048036038101906103879190612c35565b610ae1565b6040516103999190613be3565b60405180910390f35b6103aa610b99565b005b6103c660048036038101906103c19190612c35565b610c21565b005b6103d0610c65565b005b6103da610ceb565b6040516103e79190613821565b60405180910390f35b6103f8610d15565b60405161040591906138e1565b60405180910390f35b610416610da7565b6040516104239190613821565b60405180910390f35b61044660048036038101906104419190612dcb565b610dcd565b005b610462600480360381019061045d9190612d50565b610f4e565b005b61047e60048036038101906104799190612c9a565b610fb0565b60405161048b91906138c6565b60405180910390f35b6104ae60048036038101906104a99190612ebe565b6110cb565b6040516104bb91906138e1565b60405180910390f35b6104de60048036038101906104d99190612c9a565b6110dd565b005b6104fa60048036038101906104f59190612c5e565b6111ad565b60405161050791906138c6565b60405180910390f35b61052a60048036038101906105259190612c35565b611241565b005b600061053782611339565b9050919050565b60606000805461054d90613e13565b80601f016020809104026020016040519081016040528092919081815260200182805461057990613e13565b80156105c65780601f1061059b576101008083540402835291602001916105c6565b820191906000526020600020905b8154815290600101906020018083116105a957829003601f168201915b5050505050905090565b60006105db826113b3565b61061a576040517f08c379a000000000000000000000000000000000000000000000000000000000815260040161061190613ae3565b60405180910390fd5b6004600083815260200190815260200160002060009054906101000a900473ffffffffffffffffffffffffffffffffffffffff169050919050565b600061066082610a2f565b90508073ffffffffffffffffffffffffffffffffffffffff168373ffffffffffffffffffffffffffffffffffffffff1614156106d1576040517f08c379a00000000000000000000000000000000000000000000000000000000081526004016106c890613b63565b60405180910390fd5b8073ffffffffffffffffffffffffffffffffffffffff166106f061141f565b73ffffffffffffffffffffffffffffffffffffffff16148061071f575061071e8161071961141f565b6111ad565b5b61075e576040517f08c379a000000000000000000000000000000000000000000000000000000000815260040161075590613a23565b60405180910390fd5b6107688383611427565b505050565b6000600880549050905090565b61078b61078561141f565b826114e0565b6107ca576040517f08c379a00000000000000000000000000000000000000000000000000000000081526004016107c190613b83565b60405180910390fd5b6107d58383836115be565b505050565b60006107e583610ae1565b8210610826576040517f08c379a000000000000000000000000000000000000000000000000000000000815260040161081d90613923565b60405180910390fd5b600660008473ffffffffffffffffffffffffffffffffffffffff1673ffffffffffffffffffffffffffffffffffffffff168152602001908152602001600020600083815260200190815260200160002054905092915050565b61088761141f565b73ffffffffffffffffffffffffffffffffffffffff166108a5610ceb565b73ffffffffffffffffffffffffffffffffffffffff16146108fb576040517f08c379a00000000000000000000000000000000000000000000000000000000081526004016108f290613b03565b60405180910390fd5b61090361181a565b565b61092083838360405180602001604052806000815250610f4e565b505050565b61093661093061141f565b826114e0565b610975576040517f08c379a000000000000000000000000000000000000000000000000000000000815260040161096c90613bc3565b60405180910390fd5b61097e816118bc565b50565b600061098b61076d565b82106109cc576040517f08c379a00000000000000000000000000000000000000000000000000000000081526004016109c390613ba3565b60405180910390fd5b60088281548110610a06577f4e487b7100000000000000000000000000000000000000000000000000000000600052603260045260246000fd5b90600052602060002001549050919050565b6000600b60009054906101000a900460ff16905090565b6000806002600084815260200190815260200160002060009054906101000a900473ffffffffffffffffffffffffffffffffffffffff169050600073ffffffffffffffffffffffffffffffffffffffff168173ffffffffffffffffffffffffffffffffffffffff161415610ad8576040517f08c379a0000000000000000000000000000000000000000000000000000000008152600401610acf90613a63565b60405180910390fd5b80915050919050565b60008073ffffffffffffffffffffffffffffffffffffffff168273ffffffffffffffffffffffffffffffffffffffff161415610b52576040517f08c379a0000000000000000000000000000000000000000000000000000000008152600401610b4990613a43565b60405180910390fd5b600360008373ffffffffffffffffffffffffffffffffffffffff1673ffffffffffffffffffffffffffffffffffffffff168152602001908152602001600020549050919050565b610ba161141f565b73ffffffffffffffffffffffffffffffffffffffff16610bbf610ceb565b73ffffffffffffffffffffffffffffffffffffffff1614610c15576040517f08c379a0000000000000000000000000000000000000000000000000000000008152600401610c0c90613b03565b60405180910390fd5b610c1f60006118c8565b565b80600e60006101000a81548173ffffffffffffffffffffffffffffffffffffffff021916908373ffffffffffffffffffffffffffffffffffffffff16021790555050565b610c6d61141f565b73ffffffffffffffffffffffffffffffffffffffff16610c8b610ceb565b73ffffffffffffffffffffffffffffffffffffffff1614610ce1576040517f08c379a0000000000000000000000000000000000000000000000000000000008152600401610cd890613b03565b60405180910390fd5b610ce961198e565b565b6000600b60019054906101000a900473ffffffffffffffffffffffffffffffffffffffff16905090565b606060018054610d2490613e13565b80601f0160208091040260200160405190810160405280929190818152602001828054610d5090613e13565b8015610d9d5780601f10610d7257610100808354040283529160200191610d9d565b820191906000526020600020905b815481529060010190602001808311610d8057829003601f168201915b5050505050905090565b600e60009054906101000a900473ffffffffffffffffffffffffffffffffffffffff1681565b610dd561141f565b73ffffffffffffffffffffffffffffffffffffffff168273ffffffffffffffffffffffffffffffffffffffff161415610e43576040517f08c379a0000000000000000000000000000000000000000000000000000000008152600401610e3a906139c3565b60405180910390fd5b8060056000610e5061141f565b73ffffffffffffffffffffffffffffffffffffffff1673ffffffffffffffffffffffffffffffffffffffff16815260200190815260200160002060008473ffffffffffffffffffffffffffffffffffffffff1673ffffffffffffffffffffffffffffffffffffffff16815260200190815260200160002060006101000a81548160ff0219169083151502179055508173ffffffffffffffffffffffffffffffffffffffff16610efd61141f565b73ffffffffffffffffffffffffffffffffffffffff167f17307eab39ab6107e8899845ad3d59bd9653f200f220920489ca2b5937696c3183604051610f4291906138c6565b60405180910390a35050565b610f5f610f5961141f565b836114e0565b610f9e576040517f08c379a0000000000000000000000000000000000000000000000000000000008152600401610f9590613b83565b60405180910390fd5b610faa84848484611a31565b50505050565b60008073ffffffffffffffffffffffffffffffffffffffff16600e60009054906101000a900473ffffffffffffffffffffffffffffffffffffffff1673ffffffffffffffffffffffffffffffffffffffff16141561100d57600080fd5b6000600e60009054906101000a900473ffffffffffffffffffffffffffffffffffffffff1690508073ffffffffffffffffffffffffffffffffffffffff166342920a468686866040518463ffffffff1660e01b81526004016110719392919061383c565b60206040518083038186803b15801561108957600080fd5b505afa15801561109d573d6000803e3d6000fd5b505050506040513d601f19601f820116820180604052508101906110c19190612e43565b9150509392505050565b60606110d682611a8d565b9050919050565b6110e8828483610fb0565b6110f157600080fd5b60006110fd600c611bdf565b9050611109600c611bed565b6111138482611c03565b6111a781600d805461112490613e13565b80601f016020809104026020016040519081016040528092919081815260200182805461115090613e13565b801561119d5780601f106111725761010080835404028352916020019161119d565b820191906000526020600020905b81548152906001019060200180831161118057829003601f168201915b5050505050611c21565b50505050565b6000600560008473ffffffffffffffffffffffffffffffffffffffff1673ffffffffffffffffffffffffffffffffffffffff16815260200190815260200160002060008373ffffffffffffffffffffffffffffffffffffffff1673ffffffffffffffffffffffffffffffffffffffff16815260200190815260200160002060009054906101000a900460ff16905092915050565b61124961141f565b73ffffffffffffffffffffffffffffffffffffffff16611267610ceb565b73ffffffffffffffffffffffffffffffffffffffff16146112bd576040517f08c379a00000000000000000000000000000000000000000000000000000000081526004016112b490613b03565b60405180910390fd5b600073ffffffffffffffffffffffffffffffffffffffff168173ffffffffffffffffffffffffffffffffffffffff16141561132d576040517f08c379a000000000000000000000000000000000000000000000000000000000815260040161132490613963565b60405180910390fd5b611336816118c8565b50565b60007f780e9d63000000000000000000000000000000000000000000000000000000007bffffffffffffffffffffffffffffffffffffffffffffffffffffffff1916827bffffffffffffffffffffffffffffffffffffffffffffffffffffffff191614806113ac57506113ab82611c95565b5b9050919050565b60008073ffffffffffffffffffffffffffffffffffffffff166002600084815260200190815260200160002060009054906101000a900473ffffffffffffffffffffffffffffffffffffffff1673ffffffffffffffffffffffffffffffffffffffff1614159050919050565b600033905090565b816004600083815260200190815260200160002060006101000a81548173ffffffffffffffffffffffffffffffffffffffff021916908373ffffffffffffffffffffffffffffffffffffffff160217905550808273ffffffffffffffffffffffffffffffffffffffff1661149a83610a2f565b73ffffffffffffffffffffffffffffffffffffffff167f8c5be1e5ebec7d5bd14f71427d1e84f3dd0314c0f7b2291e5b200ac8c7c3b92560405160405180910390a45050565b60006114eb826113b3565b61152a576040517f08c379a0000000000000000000000000000000000000000000000000000000008152600401611521906139e3565b60405180910390fd5b600061153583610a2f565b90508073ffffffffffffffffffffffffffffffffffffffff168473ffffffffffffffffffffffffffffffffffffffff1614806115a457508373ffffffffffffffffffffffffffffffffffffffff1661158c846105d0565b73ffffffffffffffffffffffffffffffffffffffff16145b806115b557506115b481856111ad565b5b91505092915050565b8273ffffffffffffffffffffffffffffffffffffffff166115de82610a2f565b73ffffffffffffffffffffffffffffffffffffffff1614611634576040517f08c379a000000000000000000000000000000000000000000000000000000000815260040161162b90613b23565b60405180910390fd5b600073ffffffffffffffffffffffffffffffffffffffff168273ffffffffffffffffffffffffffffffffffffffff1614156116a4576040517f08c379a000000000000000000000000000000000000000000000000000000000815260040161169b906139a3565b60405180910390fd5b6116af838383611d77565b6116ba600082611427565b6001600360008573ffffffffffffffffffffffffffffffffffffffff1673ffffffffffffffffffffffffffffffffffffffff168152602001908152602001600020600082825461170a9190613d29565b925050819055506001600360008473ffffffffffffffffffffffffffffffffffffffff1673ffffffffffffffffffffffffffffffffffffffff16815260200190815260200160002060008282546117619190613ca2565b92505081905550816002600083815260200190815260200160002060006101000a81548173ffffffffffffffffffffffffffffffffffffffff021916908373ffffffffffffffffffffffffffffffffffffffff160217905550808273ffffffffffffffffffffffffffffffffffffffff168473ffffffffffffffffffffffffffffffffffffffff167fddf252ad1be2c89b69c2b068fc378daa952ba7f163c4a11628f55a4df523b3ef60405160405180910390a4505050565b611822610a18565b611861576040517f08c379a000000000000000000000000000000000000000000000000000000000815260040161185890613903565b60405180910390fd5b6000600b60006101000a81548160ff0219169083151502179055507f5db9ee0a495bf2e6ff9c91a7834c1ba4fdd244a5e8aa4e537bd38aeae4b073aa6118a561141f565b6040516118b29190613821565b60405180910390a1565b6118c581611dcf565b50565b6000600b60019054906101000a900473ffffffffffffffffffffffffffffffffffffffff16905081600b60016101000a81548173ffffffffffffffffffffffffffffffffffffffff021916908373ffffffffffffffffffffffffffffffffffffffff1602179055508173ffffffffffffffffffffffffffffffffffffffff168173ffffffffffffffffffffffffffffffffffffffff167f8be0079c531659141344cd1fd0a4f28419497f9722a3daafe3b4186f6b6457e060405160405180910390a35050565b611996610a18565b156119d6576040517f08c379a00000000000000000000000000000000000000000000000000000000081526004016119cd90613a03565b60405180910390fd5b6001600b60006101000a81548160ff0219169083151502179055507f62e78cea01bee320cd4e420270b5ea74000d11b0c9f74754ebdbfc544b05a258611a1a61141f565b604051611a279190613821565b60405180910390a1565b611a3c8484846115be565b611a4884848484611e22565b611a87576040517f08c379a0000000000000000000000000000000000000000000000000000000008152600401611a7e90613943565b60405180910390fd5b50505050565b6060611a98826113b3565b611ad7576040517f08c379a0000000000000000000000000000000000000000000000000000000008152600401611ace90613ac3565b60405180910390fd5b6000600a60008481526020019081526020016000208054611af790613e13565b80601f0160208091040260200160405190810160405280929190818152602001828054611b2390613e13565b8015611b705780601f10611b4557610100808354040283529160200191611b70565b820191906000526020600020905b815481529060010190602001808311611b5357829003601f168201915b505050505090506000611b81611fb9565b9050600081511415611b97578192505050611bda565b600082511115611bcc578082604051602001611bb49291906137fd565b60405160208183030381529060405292505050611bda565b611bd584611fd0565b925050505b919050565b600081600001549050919050565b6001816000016000828254019250508190555050565b611c1d828260405180602001604052806000815250612077565b5050565b611c2a826113b3565b611c69576040517f08c379a0000000000000000000000000000000000000000000000000000000008152600401611c6090613a83565b60405180910390fd5b80600a60008481526020019081526020016000209080519060200190611c90929190612a6c565b505050565b60007f80ac58cd000000000000000000000000000000000000000000000000000000007bffffffffffffffffffffffffffffffffffffffffffffffffffffffff1916827bffffffffffffffffffffffffffffffffffffffffffffffffffffffff19161480611d6057507f5b5e139f000000000000000000000000000000000000000000000000000000007bffffffffffffffffffffffffffffffffffffffffffffffffffffffff1916827bffffffffffffffffffffffffffffffffffffffffffffffffffffffff1916145b80611d705750611d6f826120d2565b5b9050919050565b611d7f610a18565b15611dbf576040517f08c379a0000000000000000000000000000000000000000000000000000000008152600401611db690613a03565b60405180910390fd5b611dca83838361213c565b505050565b611dd881612250565b6000600a60008381526020019081526020016000208054611df890613e13565b905014611e1f57600a60008281526020019081526020016000206000611e1e9190612af2565b5b50565b6000611e438473ffffffffffffffffffffffffffffffffffffffff16612361565b15611fac578373ffffffffffffffffffffffffffffffffffffffff1663150b7a02611e6c61141f565b8786866040518563ffffffff1660e01b8152600401611e8e949392919061387a565b602060405180830381600087803b158015611ea857600080fd5b505af1925050508015611ed957506040513d601f19601f82011682018060405250810190611ed69190612e95565b60015b611f5c573d8060008114611f09576040519150601f19603f3d011682016040523d82523d6000602084013e611f0e565b606091505b50600081511415611f54576040517f08c379a0000000000000000000000000000000000000000000000000000000008152600401611f4b90613943565b60405180910390fd5b805181602001fd5b63150b7a0260e01b7bffffffffffffffffffffffffffffffffffffffffffffffffffffffff1916817bffffffffffffffffffffffffffffffffffffffffffffffffffffffff191614915050611fb1565b600190505b949350505050565b606060405180602001604052806000815250905090565b6060611fdb826113b3565b61201a576040517f08c379a000000000000000000000000000000000000000000000000000000000815260040161201190613b43565b60405180910390fd5b6000612024611fb9565b90506000815111612044576040518060200160405280600081525061206f565b8061204e84612374565b60405160200161205f9291906137fd565b6040516020818303038152906040525b915050919050565b6120818383612521565b61208e6000848484611e22565b6120cd576040517f08c379a00000000000000000000000000000000000000000000000000000000081526004016120c490613943565b60405180910390fd5b505050565b60007f01ffc9a7000000000000000000000000000000000000000000000000000000007bffffffffffffffffffffffffffffffffffffffffffffffffffffffff1916827bffffffffffffffffffffffffffffffffffffffffffffffffffffffff1916149050919050565b6121478383836126ef565b600073ffffffffffffffffffffffffffffffffffffffff168373ffffffffffffffffffffffffffffffffffffffff16141561218a57612185816126f4565b6121c9565b8173ffffffffffffffffffffffffffffffffffffffff168373ffffffffffffffffffffffffffffffffffffffff16146121c8576121c7838261273d565b5b5b600073ffffffffffffffffffffffffffffffffffffffff168273ffffffffffffffffffffffffffffffffffffffff16141561220c57612207816128aa565b61224b565b8273ffffffffffffffffffffffffffffffffffffffff168273ffffffffffffffffffffffffffffffffffffffff161461224a5761224982826129ed565b5b5b505050565b600061225b82610a2f565b905061226981600084611d77565b612274600083611427565b6001600360008373ffffffffffffffffffffffffffffffffffffffff1673ffffffffffffffffffffffffffffffffffffffff16815260200190815260200160002060008282546122c49190613d29565b925050819055506002600083815260200190815260200160002060006101000a81549073ffffffffffffffffffffffffffffffffffffffff021916905581600073ffffffffffffffffffffffffffffffffffffffff168273ffffffffffffffffffffffffffffffffffffffff167fddf252ad1be2c89b69c2b068fc378daa952ba7f163c4a11628f55a4df523b3ef60405160405180910390a45050565b600080823b905060008111915050919050565b606060008214156123bc576040518060400160405280600181526020017f3000000000000000000000000000000000000000000000000000000000000000815250905061251c565b600082905060005b600082146123ee5780806123d790613e45565b915050600a826123e79190613cf8565b91506123c4565b60008167ffffffffffffffff811115612430577f4e487b7100000000000000000000000000000000000000000000000000000000600052604160045260246000fd5b6040519080825280601f01601f1916602001820160405280156124625781602001600182028036833780820191505090505b5090505b600085146125155760018261247b9190613d29565b9150600a8561248a9190613e8e565b60306124969190613ca2565b60f81b8183815181106124d2577f4e487b7100000000000000000000000000000000000000000000000000000000600052603260045260246000fd5b60200101907effffffffffffffffffffffffffffffffffffffffffffffffffffffffffffff1916908160001a905350600a8561250e9190613cf8565b9450612466565b8093505050505b919050565b600073ffffffffffffffffffffffffffffffffffffffff168273ffffffffffffffffffffffffffffffffffffffff161415612591576040517f08c379a000000000000000000000000000000000000000000000000000000000815260040161258890613aa3565b60405180910390fd5b61259a816113b3565b156125da576040517f08c379a00000000000000000000000000000000000000000000000000000000081526004016125d190613983565b60405180910390fd5b6125e660008383611d77565b6001600360008473ffffffffffffffffffffffffffffffffffffffff1673ffffffffffffffffffffffffffffffffffffffff16815260200190815260200160002060008282546126369190613ca2565b92505081905550816002600083815260200190815260200160002060006101000a81548173ffffffffffffffffffffffffffffffffffffffff021916908373ffffffffffffffffffffffffffffffffffffffff160217905550808273ffffffffffffffffffffffffffffffffffffffff16600073ffffffffffffffffffffffffffffffffffffffff167fddf252ad1be2c89b69c2b068fc378daa952ba7f163c4a11628f55a4df523b3ef60405160405180910390a45050565b505050565b6008805490506009600083815260200190815260200160002081905550600881908060018154018082558091505060019003906000526020600020016000909190919091505550565b6000600161274a84610ae1565b6127549190613d29565b9050600060076000848152602001908152602001600020549050818114612839576000600660008673ffffffffffffffffffffffffffffffffffffffff1673ffffffffffffffffffffffffffffffffffffffff168152602001908152602001600020600084815260200190815260200160002054905080600660008773ffffffffffffffffffffffffffffffffffffffff1673ffffffffffffffffffffffffffffffffffffffff168152602001908152602001600020600084815260200190815260200160002081905550816007600083815260200190815260200160002081905550505b6007600084815260200190815260200160002060009055600660008573ffffffffffffffffffffffffffffffffffffffff1673ffffffffffffffffffffffffffffffffffffffff16815260200190815260200160002060008381526020019081526020016000206000905550505050565b600060016008805490506128be9190613d29565b9050600060096000848152602001908152602001600020549050600060088381548110612914577f4e487b7100000000000000000000000000000000000000000000000000000000600052603260045260246000fd5b90600052602060002001549050806008838154811061295c577f4e487b7100000000000000000000000000000000000000000000000000000000600052603260045260246000fd5b9060005260206000200181905550816009600083815260200190815260200160002081905550600960008581526020019081526020016000206000905560088054806129d1577f4e487b7100000000000000000000000000000000000000000000000000000000600052603160045260246000fd5b6001900381819060005260206000200160009055905550505050565b60006129f883610ae1565b905081600660008573ffffffffffffffffffffffffffffffffffffffff1673ffffffffffffffffffffffffffffffffffffffff168152602001908152602001600020600083815260200190815260200160002081905550806007600084815260200190815260200160002081905550505050565b828054612a7890613e13565b90600052602060002090601f016020900481019282612a9a5760008555612ae1565b82601f10612ab357805160ff1916838001178555612ae1565b82800160010185558215612ae1579182015b82811115612ae0578251825591602001919060010190612ac5565b5b509050612aee9190612b32565b5090565b508054612afe90613e13565b6000825580601f10612b105750612b2f565b601f016020900490600052602060002090810190612b2e9190612b32565b5b50565b5b80821115612b4b576000816000905550600101612b33565b5090565b6000612b62612b5d84613c2f565b613bfe565b905082815260208101848484011115612b7a57600080fd5b612b85848285613dd1565b509392505050565b600081359050612b9c81613f8c565b92915050565b600081359050612bb181613fa3565b92915050565b600081519050612bc681613fa3565b92915050565b600081359050612bdb81613fba565b92915050565b600081519050612bf081613fba565b92915050565b600082601f830112612c0757600080fd5b8135612c17848260208601612b4f565b91505092915050565b600081359050612c2f81613fd1565b92915050565b600060208284031215612c4757600080fd5b6000612c5584828501612b8d565b91505092915050565b60008060408385031215612c7157600080fd5b6000612c7f85828601612b8d565b9250506020612c9085828601612b8d565b9150509250929050565b600080600060608486031215612caf57600080fd5b6000612cbd86828701612b8d565b9350506020612cce86828701612b8d565b925050604084013567ffffffffffffffff811115612ceb57600080fd5b612cf786828701612bf6565b9150509250925092565b600080600060608486031215612d1657600080fd5b6000612d2486828701612b8d565b9350506020612d3586828701612b8d565b9250506040612d4686828701612c20565b9150509250925092565b60008060008060808587031215612d6657600080fd5b6000612d7487828801612b8d565b9450506020612d8587828801612b8d565b9350506040612d9687828801612c20565b925050606085013567ffffffffffffffff811115612db357600080fd5b612dbf87828801612bf6565b91505092959194509250565b60008060408385031215612dde57600080fd5b6000612dec85828601612b8d565b9250506020612dfd85828601612ba2565b9150509250929050565b60008060408385031215612e1a57600080fd5b6000612e2885828601612b8d565b9250506020612e3985828601612c20565b9150509250929050565b600060208284031215612e5557600080fd5b6000612e6384828501612bb7565b91505092915050565b600060208284031215612e7e57600080fd5b6000612e8c84828501612bcc565b91505092915050565b600060208284031215612ea757600080fd5b6000612eb584828501612be1565b91505092915050565b600060208284031215612ed057600080fd5b6000612ede84828501612c20565b91505092915050565b612ef081613d5d565b82525050565b612eff81613d6f565b82525050565b6000612f1082613c5f565b612f1a8185613c75565b9350612f2a818560208601613de0565b612f3381613f7b565b840191505092915050565b6000612f4982613c6a565b612f538185613c86565b9350612f63818560208601613de0565b612f6c81613f7b565b840191505092915050565b6000612f8282613c6a565b612f8c8185613c97565b9350612f9c818560208601613de0565b80840191505092915050565b6000612fb5601483613c86565b91507f5061757361626c653a206e6f74207061757365640000000000000000000000006000830152602082019050919050565b6000612ff5602b83613c86565b91507f455243373231456e756d657261626c653a206f776e657220696e646578206f7560008301527f74206f6620626f756e64730000000000000000000000000000000000000000006020830152604082019050919050565b600061305b603283613c86565b91507f4552433732313a207472616e7366657220746f206e6f6e20455243373231526560008301527f63656976657220696d706c656d656e74657200000000000000000000000000006020830152604082019050919050565b60006130c1602683613c86565b91507f4f776e61626c653a206e6577206f776e657220697320746865207a65726f206160008301527f64647265737300000000000000000000000000000000000000000000000000006020830152604082019050919050565b6000613127601c83613c86565b91507f4552433732313a20746f6b656e20616c7265616479206d696e746564000000006000830152602082019050919050565b6000613167602483613c86565b91507f4552433732313a207472616e7366657220746f20746865207a65726f2061646460008301527f72657373000000000000000000000000000000000000000000000000000000006020830152604082019050919050565b60006131cd601983613c86565b91507f4552433732313a20617070726f766520746f2063616c6c6572000000000000006000830152602082019050919050565b600061320d602c83613c86565b91507f4552433732313a206f70657261746f7220717565727920666f72206e6f6e657860008301527f697374656e7420746f6b656e00000000000000000000000000000000000000006020830152604082019050919050565b6000613273601083613c86565b91507f5061757361626c653a20706175736564000000000000000000000000000000006000830152602082019050919050565b60006132b3603883613c86565b91507f4552433732313a20617070726f76652063616c6c6572206973206e6f74206f7760008301527f6e6572206e6f7220617070726f76656420666f7220616c6c00000000000000006020830152604082019050919050565b6000613319602a83613c86565b91507f4552433732313a2062616c616e636520717565727920666f7220746865207a6560008301527f726f2061646472657373000000000000000000000000000000000000000000006020830152604082019050919050565b600061337f602983613c86565b91507f4552433732313a206f776e657220717565727920666f72206e6f6e657869737460008301527f656e7420746f6b656e00000000000000000000000000000000000000000000006020830152604082019050919050565b60006133e5602e83613c86565b91507f45524337323155524953746f726167653a2055524920736574206f66206e6f6e60008301527f6578697374656e7420746f6b656e0000000000000000000000000000000000006020830152604082019050919050565b600061344b602083613c86565b91507f4552433732313a206d696e7420746f20746865207a65726f20616464726573736000830152602082019050919050565b600061348b603183613c86565b91507f45524337323155524953746f726167653a2055524920717565727920666f722060008301527f6e6f6e6578697374656e7420746f6b656e0000000000000000000000000000006020830152604082019050919050565b60006134f1602c83613c86565b91507f4552433732313a20617070726f76656420717565727920666f72206e6f6e657860008301527f697374656e7420746f6b656e00000000000000000000000000000000000000006020830152604082019050919050565b6000613557602083613c86565b91507f4f776e61626c653a2063616c6c6572206973206e6f7420746865206f776e65726000830152602082019050919050565b6000613597602983613c86565b91507f4552433732313a207472616e73666572206f6620746f6b656e2074686174206960008301527f73206e6f74206f776e00000000000000000000000000000000000000000000006020830152604082019050919050565b60006135fd602f83613c86565b91507f4552433732314d657461646174613a2055524920717565727920666f72206e6f60008301527f6e6578697374656e7420746f6b656e00000000000000000000000000000000006020830152604082019050919050565b6000613663602183613c86565b91507f4552433732313a20617070726f76616c20746f2063757272656e74206f776e6560008301527f72000000000000000000000000000000000000000000000000000000000000006020830152604082019050919050565b60006136c9603183613c86565b91507f4552433732313a207472616e736665722063616c6c6572206973206e6f74206f60008301527f776e6572206e6f7220617070726f7665640000000000000000000000000000006020830152604082019050919050565b600061372f602c83613c86565b91507f455243373231456e756d657261626c653a20676c6f62616c20696e646578206f60008301527f7574206f6620626f756e647300000000000000000000000000000000000000006020830152604082019050919050565b6000613795603083613c86565b91507f4552433732314275726e61626c653a2063616c6c6572206973206e6f74206f7760008301527f6e6572206e6f7220617070726f766564000000000000000000000000000000006020830152604082019050919050565b6137f781613dc7565b82525050565b60006138098285612f77565b91506138158284612f77565b91508190509392505050565b60006020820190506138366000830184612ee7565b92915050565b60006060820190506138516000830186612ee7565b61385e6020830185612ee7565b81810360408301526138708184612f05565b9050949350505050565b600060808201905061388f6000830187612ee7565b61389c6020830186612ee7565b6138a960408301856137ee565b81810360608301526138bb8184612f05565b905095945050505050565b60006020820190506138db6000830184612ef6565b92915050565b600060208201905081810360008301526138fb8184612f3e565b905092915050565b6000602082019050818103600083015261391c81612fa8565b9050919050565b6000602082019050818103600083015261393c81612fe8565b9050919050565b6000602082019050818103600083015261395c8161304e565b9050919050565b6000602082019050818103600083015261397c816130b4565b9050919050565b6000602082019050818103600083015261399c8161311a565b9050919050565b600060208201905081810360008301526139bc8161315a565b9050919050565b600060208201905081810360008301526139dc816131c0565b9050919050565b600060208201905081810360008301526139fc81613200565b9050919050565b60006020820190508181036000830152613a1c81613266565b9050919050565b60006020820190508181036000830152613a3c816132a6565b9050919050565b60006020820190508181036000830152613a5c8161330c565b9050919050565b60006020820190508181036000830152613a7c81613372565b9050919050565b60006020820190508181036000830152613a9c816133d8565b9050919050565b60006020820190508181036000830152613abc8161343e565b9050919050565b60006020820190508181036000830152613adc8161347e565b9050919050565b60006020820190508181036000830152613afc816134e4565b9050919050565b60006020820190508181036000830152613b1c8161354a565b9050919050565b60006020820190508181036000830152613b3c8161358a565b9050919050565b60006020820190508181036000830152613b5c816135f0565b9050919050565b60006020820190508181036000830152613b7c81613656565b9050919050565b60006020820190508181036000830152613b9c816136bc565b9050919050565b60006020820190508181036000830152613bbc81613722565b9050919050565b60006020820190508181036000830152613bdc81613788565b9050919050565b6000602082019050613bf860008301846137ee565b92915050565b6000604051905081810181811067ffffffffffffffff82111715613c2557613c24613f4c565b5b8060405250919050565b600067ffffffffffffffff821115613c4a57613c49613f4c565b5b601f19601f8301169050602081019050919050565b600081519050919050565b600081519050919050565b600082825260208201905092915050565b600082825260208201905092915050565b600081905092915050565b6000613cad82613dc7565b9150613cb883613dc7565b9250827fffffffffffffffffffffffffffffffffffffffffffffffffffffffffffffffff03821115613ced57613cec613ebf565b5b828201905092915050565b6000613d0382613dc7565b9150613d0e83613dc7565b925082613d1e57613d1d613eee565b5b828204905092915050565b6000613d3482613dc7565b9150613d3f83613dc7565b925082821015613d5257613d51613ebf565b5b828203905092915050565b6000613d6882613da7565b9050919050565b60008115159050919050565b60007fffffffff0000000000000000000000000000000000000000000000000000000082169050919050565b600073ffffffffffffffffffffffffffffffffffffffff82169050919050565b6000819050919050565b82818337600083830152505050565b60005b83811015613dfe578082015181840152602081019050613de3565b83811115613e0d576000848401525b50505050565b60006002820490506001821680613e2b57607f821691505b60208210811415613e3f57613e3e613f1d565b5b50919050565b6000613e5082613dc7565b91507fffffffffffffffffffffffffffffffffffffffffffffffffffffffffffffffff821415613e8357613e82613ebf565b5b600182019050919050565b6000613e9982613dc7565b9150613ea483613dc7565b925082613eb457613eb3613eee565b5b828206905092915050565b7f4e487b7100000000000000000000000000000000000000000000000000000000600052601160045260246000fd5b7f4e487b7100000000000000000000000000000000000000000000000000000000600052601260045260246000fd5b7f4e487b7100000000000000000000000000000000000000000000000000000000600052602260045260246000fd5b7f4e487b7100000000000000000000000000000000000000000000000000000000600052604160045260246000fd5b6000601f19601f8301169050919050565b613f9581613d5d565b8114613fa057600080fd5b50565b613fac81613d6f565b8114613fb757600080fd5b50565b613fc381613d7b565b8114613fce57600080fd5b50565b613fda81613dc7565b8114613fe557600080fd5b5056fea2646970667358221220fb509f444c5cefce6417b56bab8c764b49eb421aa765f662c08bedf3ca2485ad64736f6c6343000800003368747470733a2f2f676174657761792e70696e6174612e636c6f75642f697066732f516d576f6142706d756e5673564d715658426f7336326632595454545634563945453263667656614c33614e5252",
    "linkReferences": {},
    "deployedLinkReferences": {}
}