{
  "_format": "hh-sol-artifact-1",
  "contractName": "TheForge",
  "sourceName": "contracts/KipitForge.sol",
  "abi": [
    {
      "inputs": [],
      "stateMutability": "nonpayable",
      "type": "constructor"
    },
    {
      "anonymous": false,
      "inputs": [
        {
          "indexed": true,
          "internalType": "address",
          "name": "account",
          "type": "address"
        },
        {
          "indexed": true,
          "internalType": "address",
          "name": "operator",
          "type": "address"
        },
        {
          "indexed": false,
          "internalType": "bool",
          "name": "approved",
          "type": "bool"
        }
      ],
      "name": "ApprovalForAll",
      "type": "event"
    },
    {
      "anonymous": false,
      "inputs": [
        {
          "indexed": false,
          "internalType": "address",
          "name": "account",
          "type": "address"
        }
      ],
      "name": "Paused",
      "type": "event"
    },
    {
      "anonymous": false,
      "inputs": [
        {
          "indexed": true,
          "internalType": "bytes32",
          "name": "role",
          "type": "bytes32"
        },
        {
          "indexed": true,
          "internalType": "bytes32",
          "name": "previousAdminRole",
          "type": "bytes32"
        },
        {
          "indexed": true,
          "internalType": "bytes32",
          "name": "newAdminRole",
          "type": "bytes32"
        }
      ],
      "name": "RoleAdminChanged",
      "type": "event"
    },
    {
      "anonymous": false,
      "inputs": [
        {
          "indexed": true,
          "internalType": "bytes32",
          "name": "role",
          "type": "bytes32"
        },
        {
          "indexed": true,
          "internalType": "address",
          "name": "account",
          "type": "address"
        },
        {
          "indexed": true,
          "internalType": "address",
          "name": "sender",
          "type": "address"
        }
      ],
      "name": "RoleGranted",
      "type": "event"
    },
    {
      "anonymous": false,
      "inputs": [
        {
          "indexed": true,
          "internalType": "bytes32",
          "name": "role",
          "type": "bytes32"
        },
        {
          "indexed": true,
          "internalType": "address",
          "name": "account",
          "type": "address"
        },
        {
          "indexed": true,
          "internalType": "address",
          "name": "sender",
          "type": "address"
        }
      ],
      "name": "RoleRevoked",
      "type": "event"
    },
    {
      "anonymous": false,
      "inputs": [
        {
          "indexed": true,
          "internalType": "address",
          "name": "operator",
          "type": "address"
        },
        {
          "indexed": true,
          "internalType": "address",
          "name": "from",
          "type": "address"
        },
        {
          "indexed": true,
          "internalType": "address",
          "name": "to",
          "type": "address"
        },
        {
          "indexed": false,
          "internalType": "uint256[]",
          "name": "ids",
          "type": "uint256[]"
        },
        {
          "indexed": false,
          "internalType": "uint256[]",
          "name": "values",
          "type": "uint256[]"
        }
      ],
      "name": "TransferBatch",
      "type": "event"
    },
    {
      "anonymous": false,
      "inputs": [
        {
          "indexed": true,
          "internalType": "address",
          "name": "operator",
          "type": "address"
        },
        {
          "indexed": true,
          "internalType": "address",
          "name": "from",
          "type": "address"
        },
        {
          "indexed": true,
          "internalType": "address",
          "name": "to",
          "type": "address"
        },
        {
          "indexed": false,
          "internalType": "uint256",
          "name": "id",
          "type": "uint256"
        },
        {
          "indexed": false,
          "internalType": "uint256",
          "name": "value",
          "type": "uint256"
        }
      ],
      "name": "TransferSingle",
      "type": "event"
    },
    {
      "anonymous": false,
      "inputs": [
        {
          "indexed": false,
          "internalType": "string",
          "name": "value",
          "type": "string"
        },
        {
          "indexed": true,
          "internalType": "uint256",
          "name": "id",
          "type": "uint256"
        }
      ],
      "name": "URI",
      "type": "event"
    },
    {
      "anonymous": false,
      "inputs": [
        {
          "indexed": false,
          "internalType": "address",
          "name": "account",
          "type": "address"
        }
      ],
      "name": "Unpaused",
      "type": "event"
    },
    {
      "inputs": [],
      "name": "DEFAULT_ADMIN_ROLE",
      "outputs": [
        {
          "internalType": "bytes32",
          "name": "",
          "type": "bytes32"
        }
      ],
      "stateMutability": "view",
      "type": "function"
    },
    {
      "inputs": [],
      "name": "MINTER_ROLE",
      "outputs": [
        {
          "internalType": "bytes32",
          "name": "",
          "type": "bytes32"
        }
      ],
      "stateMutability": "view",
      "type": "function"
    },
    {
      "inputs": [],
      "name": "PAUSER_ROLE",
      "outputs": [
        {
          "internalType": "bytes32",
          "name": "",
          "type": "bytes32"
        }
      ],
      "stateMutability": "view",
      "type": "function"
    },
    {
      "inputs": [],
      "name": "URI_SETTER_ROLE",
      "outputs": [
        {
          "internalType": "bytes32",
          "name": "",
          "type": "bytes32"
        }
      ],
      "stateMutability": "view",
      "type": "function"
    },
    {
      "inputs": [
        {
          "internalType": "address[]",
          "name": "accounts",
          "type": "address[]"
        },
        {
          "internalType": "uint256[]",
          "name": "amounts",
          "type": "uint256[]"
        }
      ],
      "name": "addInvite",
      "outputs": [],
      "stateMutability": "nonpayable",
      "type": "function"
    },
    {
      "inputs": [
        {
          "internalType": "address",
          "name": "account",
          "type": "address"
        },
        {
          "internalType": "uint256",
          "name": "id",
          "type": "uint256"
        }
      ],
      "name": "balanceOf",
      "outputs": [
        {
          "internalType": "uint256",
          "name": "",
          "type": "uint256"
        }
      ],
      "stateMutability": "view",
      "type": "function"
    },
    {
      "inputs": [
        {
          "internalType": "address[]",
          "name": "accounts",
          "type": "address[]"
        },
        {
          "internalType": "uint256[]",
          "name": "ids",
          "type": "uint256[]"
        }
      ],
      "name": "balanceOfBatch",
      "outputs": [
        {
          "internalType": "uint256[]",
          "name": "",
          "type": "uint256[]"
        }
      ],
      "stateMutability": "view",
      "type": "function"
    },
    {
      "inputs": [
        {
          "internalType": "address",
          "name": "account",
          "type": "address"
        },
        {
          "internalType": "uint256",
          "name": "id",
          "type": "uint256"
        },
        {
          "internalType": "uint256",
          "name": "value",
          "type": "uint256"
        }
      ],
      "name": "burn",
      "outputs": [],
      "stateMutability": "nonpayable",
      "type": "function"
    },
    {
      "inputs": [
        {
          "internalType": "address",
          "name": "account",
          "type": "address"
        },
        {
          "internalType": "uint256[]",
          "name": "ids",
          "type": "uint256[]"
        },
        {
          "internalType": "uint256[]",
          "name": "values",
          "type": "uint256[]"
        }
      ],
      "name": "burnBatch",
      "outputs": [],
      "stateMutability": "nonpayable",
      "type": "function"
    },
    {
      "inputs": [
        {
          "internalType": "address",
          "name": "account",
          "type": "address"
        },
        {
          "internalType": "uint256",
          "name": "id",
          "type": "uint256"
        },
        {
          "internalType": "uint256",
          "name": "amount",
          "type": "uint256"
        },
        {
          "internalType": "bytes",
          "name": "data",
          "type": "bytes"
        }
      ],
      "name": "forceMint",
      "outputs": [],
      "stateMutability": "nonpayable",
      "type": "function"
    },
    {
      "inputs": [
        {
          "internalType": "bytes32",
          "name": "role",
          "type": "bytes32"
        }
      ],
      "name": "getRoleAdmin",
      "outputs": [
        {
          "internalType": "bytes32",
          "name": "",
          "type": "bytes32"
        }
      ],
      "stateMutability": "view",
      "type": "function"
    },
    {
      "inputs": [
        {
          "internalType": "bytes32",
          "name": "role",
          "type": "bytes32"
        },
        {
          "internalType": "address",
          "name": "account",
          "type": "address"
        }
      ],
      "name": "grantRole",
      "outputs": [],
      "stateMutability": "nonpayable",
      "type": "function"
    },
    {
      "inputs": [
        {
          "internalType": "address",
          "name": "account",
          "type": "address"
        }
      ],
      "name": "hasInvite",
      "outputs": [
        {
          "internalType": "uint256",
          "name": "",
          "type": "uint256"
        }
      ],
      "stateMutability": "view",
      "type": "function"
    },
    {
      "inputs": [
        {
          "internalType": "bytes32",
          "name": "role",
          "type": "bytes32"
        },
        {
          "internalType": "address",
          "name": "account",
          "type": "address"
        }
      ],
      "name": "hasRole",
      "outputs": [
        {
          "internalType": "bool",
          "name": "",
          "type": "bool"
        }
      ],
      "stateMutability": "view",
      "type": "function"
    },
    {
      "inputs": [
        {
          "internalType": "address",
          "name": "account",
          "type": "address"
        },
        {
          "internalType": "address",
          "name": "operator",
          "type": "address"
        }
      ],
      "name": "isApprovedForAll",
      "outputs": [
        {
          "internalType": "bool",
          "name": "",
          "type": "bool"
        }
      ],
      "stateMutability": "view",
      "type": "function"
    },
    {
      "inputs": [
        {
          "internalType": "address",
          "name": "invitee",
          "type": "address"
        }
      ],
      "name": "mint",
      "outputs": [],
      "stateMutability": "nonpayable",
      "type": "function"
    },
    {
      "inputs": [],
      "name": "pause",
      "outputs": [],
      "stateMutability": "nonpayable",
      "type": "function"
    },
    {
      "inputs": [],
      "name": "paused",
      "outputs": [
        {
          "internalType": "bool",
          "name": "",
          "type": "bool"
        }
      ],
      "stateMutability": "view",
      "type": "function"
    },
    {
      "inputs": [
        {
          "internalType": "bytes32",
          "name": "role",
          "type": "bytes32"
        },
        {
          "internalType": "address",
          "name": "account",
          "type": "address"
        }
      ],
      "name": "renounceRole",
      "outputs": [],
      "stateMutability": "nonpayable",
      "type": "function"
    },
    {
      "inputs": [
        {
          "internalType": "address[]",
          "name": "accounts",
          "type": "address[]"
        }
      ],
      "name": "resetInvite",
      "outputs": [],
      "stateMutability": "nonpayable",
      "type": "function"
    },
    {
      "inputs": [
        {
          "internalType": "bytes32",
          "name": "role",
          "type": "bytes32"
        },
        {
          "internalType": "address",
          "name": "account",
          "type": "address"
        }
      ],
      "name": "revokeRole",
      "outputs": [],
      "stateMutability": "nonpayable",
      "type": "function"
    },
    {
      "inputs": [
        {
          "internalType": "address",
          "name": "from",
          "type": "address"
        },
        {
          "internalType": "address",
          "name": "to",
          "type": "address"
        },
        {
          "internalType": "uint256[]",
          "name": "ids",
          "type": "uint256[]"
        },
        {
          "internalType": "uint256[]",
          "name": "amounts",
          "type": "uint256[]"
        },
        {
          "internalType": "bytes",
          "name": "data",
          "type": "bytes"
        }
      ],
      "name": "safeBatchTransferFrom",
      "outputs": [],
      "stateMutability": "nonpayable",
      "type": "function"
    },
    {
      "inputs": [
        {
          "internalType": "address",
          "name": "from",
          "type": "address"
        },
        {
          "internalType": "address",
          "name": "to",
          "type": "address"
        },
        {
          "internalType": "uint256",
          "name": "id",
          "type": "uint256"
        },
        {
          "internalType": "uint256",
          "name": "amount",
          "type": "uint256"
        },
        {
          "internalType": "bytes",
          "name": "data",
          "type": "bytes"
        }
      ],
      "name": "safeTransferFrom",
      "outputs": [],
      "stateMutability": "nonpayable",
      "type": "function"
    },
    {
      "inputs": [
        {
          "internalType": "address",
          "name": "operator",
          "type": "address"
        },
        {
          "internalType": "bool",
          "name": "approved",
          "type": "bool"
        }
      ],
      "name": "setApprovalForAll",
      "outputs": [],
      "stateMutability": "nonpayable",
      "type": "function"
    },
    {
      "inputs": [
        {
          "internalType": "string",
          "name": "newuri",
          "type": "string"
        }
      ],
      "name": "setURI",
      "outputs": [],
      "stateMutability": "nonpayable",
      "type": "function"
    },
    {
      "inputs": [
        {
          "internalType": "bytes4",
          "name": "interfaceId",
          "type": "bytes4"
        }
      ],
      "name": "supportsInterface",
      "outputs": [
        {
          "internalType": "bool",
          "name": "",
          "type": "bool"
        }
      ],
      "stateMutability": "view",
      "type": "function"
    },
    {
      "inputs": [],
      "name": "unpause",
      "outputs": [],
      "stateMutability": "nonpayable",
      "type": "function"
    },
    {
      "inputs": [
        {
          "internalType": "uint256",
          "name": "",
          "type": "uint256"
        }
      ],
      "name": "uri",
      "outputs": [
        {
          "internalType": "string",
          "name": "",
          "type": "string"
        }
      ],
      "stateMutability": "view",
      "type": "function"
    }
  ],
  "bytecode": "0x60806040523480156200001157600080fd5b5060405180606001604052806035815260200162004dc1603591396200003d816200010a60201b60201c565b506000600460006101000a81548160ff0219169083151502179055506200006e6000801b336200012660201b60201c565b620000a07f7804d923f43a17d325d77e781528e0793b2edd9890ab45fc64efd7b4b427744c336200012660201b60201c565b620000d27f65d7a28e3265b37a6474929f336521b332c1681b933f6cb9f3376673440d862a336200012660201b60201c565b620001047f9f2df0fed2c77648de5860a4cc508cd0818c85b8b8a1ab4ceeef8d981c8956a6336200012660201b60201c565b620003b6565b806002908051906020019062000122929190620002a1565b5050565b6200013882826200013c60201b60201c565b5050565b6200014e82826200022e60201b60201c565b6200022a5760016003600084815260200190815260200160002060000160008373ffffffffffffffffffffffffffffffffffffffff1673ffffffffffffffffffffffffffffffffffffffff16815260200190815260200160002060006101000a81548160ff021916908315150217905550620001cf6200029960201b60201c565b73ffffffffffffffffffffffffffffffffffffffff168173ffffffffffffffffffffffffffffffffffffffff16837f2f8788117e7eff1d82e926ec794901d17c78024a50270940304540a733656f0d60405160405180910390a45b5050565b60006003600084815260200190815260200160002060000160008373ffffffffffffffffffffffffffffffffffffffff1673ffffffffffffffffffffffffffffffffffffffff16815260200190815260200160002060009054906101000a900460ff16905092915050565b600033905090565b828054620002af9062000351565b90600052602060002090601f016020900481019282620002d357600085556200031f565b82601f10620002ee57805160ff19168380011785556200031f565b828001600101855582156200031f579182015b828111156200031e57825182559160200191906001019062000301565b5b5090506200032e919062000332565b5090565b5b808211156200034d57600081600090555060010162000333565b5090565b600060028204905060018216806200036a57607f821691505b6020821081141562000381576200038062000387565b5b50919050565b7f4e487b7100000000000000000000000000000000000000000000000000000000600052602260045260246000fd5b6149fb80620003c66000396000f3fe608060405234801561001057600080fd5b50600436106101c35760003560e01c80636b20c454116100f9578063d547741f11610097578063ed3c84be11610071578063ed3c84be146104ee578063f09066d21461050a578063f242432a14610526578063f5298aca14610542576101c3565b8063d547741f14610484578063e63ab1e9146104a0578063e985e9c5146104be576101c3565b806391d14854116100d357806391d14854146103fc578063a217fddf1461042c578063a22cb4651461044a578063d539139314610466576101c3565b80636b20c454146103b85780637f345710146103d45780638456cb59146103f2576101c3565b80632f2ff15d116101665780633f4ba83a116101405780633f4ba83a146103445780634e1273f41461034e5780635c975abb1461037e5780636a6278421461039c576101c3565b80632f2ff15d146102f057806334616da51461030c57806336568abe14610328576101c3565b80630e89341c116101a25780630e89341c14610244578063126ff87114610274578063248a9ca3146102a45780632eb2c2d6146102d4576101c3565b8062fdd58e146101c857806301ffc9a7146101f857806302fe530514610228575b600080fd5b6101e260048036038101906101dd9190613334565b61055e565b6040516101ef9190613e73565b60405180910390f35b610212600480360381019061020d919061354c565b610627565b60405161021f9190613bbb565b60405180910390f35b610242600480360381019061023d919061359e565b610639565b005b61025e600480360381019061025991906135df565b610678565b60405161026b9190613bf1565b60405180910390f35b61028e600480360381019061028991906130c6565b61070c565b60405161029b9190613e73565b60405180910390f35b6102be60048036038101906102b991906134e7565b610755565b6040516102cb9190613bd6565b60405180910390f35b6102ee60048036038101906102e9919061312b565b610775565b005b61030a60048036038101906103059190613510565b610816565b005b6103266004803603810190610321919061343a565b61083f565b005b610342600480360381019061033d9190613510565b61091a565b005b61034c61099d565b005b6103686004803603810190610363919061347b565b6109da565b6040516103759190613b62565b60405180910390f35b610386610b8b565b6040516103939190613bbb565b60405180910390f35b6103b660048036038101906103b191906130c6565b610ba2565b005b6103d260048036038101906103cd9190613279565b610c99565b005b6103dc610d36565b6040516103e99190613bd6565b60405180910390f35b6103fa610d5a565b005b61041660048036038101906104119190613510565b610d97565b6040516104239190613bbb565b60405180910390f35b610434610e02565b6040516104419190613bd6565b60405180910390f35b610464600480360381019061045f91906132f8565b610e09565b005b61046e610f8a565b60405161047b9190613bd6565b60405180910390f35b61049e60048036038101906104999190613510565b610fae565b005b6104a8610fd7565b6040516104b59190613bd6565b60405180910390f35b6104d860048036038101906104d391906130ef565b610ffb565b6040516104e59190613bbb565b60405180910390f35b6105086004803603810190610503919061347b565b61108f565b005b610524600480360381019061051f91906133bf565b611200565b005b610540600480360381019061053b91906131ea565b611245565b005b61055c60048036038101906105579190613370565b6112e6565b005b60008073ffffffffffffffffffffffffffffffffffffffff168373ffffffffffffffffffffffffffffffffffffffff1614156105cf576040517f08c379a00000000000000000000000000000000000000000000000000000000081526004016105c690613cb3565b60405180910390fd5b60008083815260200190815260200160002060008473ffffffffffffffffffffffffffffffffffffffff1673ffffffffffffffffffffffffffffffffffffffff16815260200190815260200160002054905092915050565b600061063282611383565b9050919050565b7f7804d923f43a17d325d77e781528e0793b2edd9890ab45fc64efd7b4b427744c61066b816106666113fd565b611405565b610674826114a2565b5050565b606060028054610687906141ac565b80601f01602080910402602001604051908101604052809291908181526020018280546106b3906141ac565b80156107005780601f106106d557610100808354040283529160200191610700565b820191906000526020600020905b8154815290600101906020018083116106e357829003601f168201915b50505050509050919050565b6000600560008373ffffffffffffffffffffffffffffffffffffffff1673ffffffffffffffffffffffffffffffffffffffff168152602001908152602001600020549050919050565b600060036000838152602001908152602001600020600101549050919050565b61077d6113fd565b73ffffffffffffffffffffffffffffffffffffffff168573ffffffffffffffffffffffffffffffffffffffff1614806107c357506107c2856107bd6113fd565b610ffb565b5b610802576040517f08c379a00000000000000000000000000000000000000000000000000000000081526004016107f990613d53565b60405180910390fd5b61080f85858585856114bc565b5050505050565b61081f82610755565b6108308161082b6113fd565b611405565b61083a838361181c565b505050565b7f9f2df0fed2c77648de5860a4cc508cd0818c85b8b8a1ab4ceeef8d981c8956a66108718161086c6113fd565b611405565b60005b8251811015610915576000600560008584815181106108bc577f4e487b7100000000000000000000000000000000000000000000000000000000600052603260045260246000fd5b602002602001015173ffffffffffffffffffffffffffffffffffffffff1673ffffffffffffffffffffffffffffffffffffffff16815260200190815260200160002081905550808061090d9061420f565b915050610874565b505050565b6109226113fd565b73ffffffffffffffffffffffffffffffffffffffff168173ffffffffffffffffffffffffffffffffffffffff161461098f576040517f08c379a000000000000000000000000000000000000000000000000000000000815260040161098690613e53565b60405180910390fd5b61099982826118fd565b5050565b7f65d7a28e3265b37a6474929f336521b332c1681b933f6cb9f3376673440d862a6109cf816109ca6113fd565b611405565b6109d76119df565b50565b60608151835114610a20576040517f08c379a0000000000000000000000000000000000000000000000000000000008152600401610a1790613dd3565b60405180910390fd5b6000835167ffffffffffffffff811115610a63577f4e487b7100000000000000000000000000000000000000000000000000000000600052604160045260246000fd5b604051908082528060200260200182016040528015610a915781602001602082028036833780820191505090505b50905060005b8451811015610b8057610b2a858281518110610adc577f4e487b7100000000000000000000000000000000000000000000000000000000600052603260045260246000fd5b6020026020010151858381518110610b1d577f4e487b7100000000000000000000000000000000000000000000000000000000600052603260045260246000fd5b602002602001015161055e565b828281518110610b63577f4e487b7100000000000000000000000000000000000000000000000000000000600052603260045260246000fd5b60200260200101818152505080610b799061420f565b9050610a97565b508091505092915050565b6000600460009054906101000a900460ff16905090565b6000600560003373ffffffffffffffffffffffffffffffffffffffff1673ffffffffffffffffffffffffffffffffffffffff1681526020019081526020016000205411610c24576040517f08c379a0000000000000000000000000000000000000000000000000000000008152600401610c1b90613e33565b60405180910390fd5b600560003373ffffffffffffffffffffffffffffffffffffffff1673ffffffffffffffffffffffffffffffffffffffff1681526020019081526020016000206000815480929190610c7490614182565b9190505550610c96816000600160405180602001604052806000815250611a81565b50565b610ca16113fd565b73ffffffffffffffffffffffffffffffffffffffff168373ffffffffffffffffffffffffffffffffffffffff161480610ce75750610ce683610ce16113fd565b610ffb565b5b610d26576040517f08c379a0000000000000000000000000000000000000000000000000000000008152600401610d1d90613cf3565b60405180910390fd5b610d31838383611c17565b505050565b7f7804d923f43a17d325d77e781528e0793b2edd9890ab45fc64efd7b4b427744c81565b7f65d7a28e3265b37a6474929f336521b332c1681b933f6cb9f3376673440d862a610d8c81610d876113fd565b611405565b610d94611f14565b50565b60006003600084815260200190815260200160002060000160008373ffffffffffffffffffffffffffffffffffffffff1673ffffffffffffffffffffffffffffffffffffffff16815260200190815260200160002060009054906101000a900460ff16905092915050565b6000801b81565b8173ffffffffffffffffffffffffffffffffffffffff16610e286113fd565b73ffffffffffffffffffffffffffffffffffffffff161415610e7f576040517f08c379a0000000000000000000000000000000000000000000000000000000008152600401610e7690613db3565b60405180910390fd5b8060016000610e8c6113fd565b73ffffffffffffffffffffffffffffffffffffffff1673ffffffffffffffffffffffffffffffffffffffff16815260200190815260200160002060008473ffffffffffffffffffffffffffffffffffffffff1673ffffffffffffffffffffffffffffffffffffffff16815260200190815260200160002060006101000a81548160ff0219169083151502179055508173ffffffffffffffffffffffffffffffffffffffff16610f396113fd565b73ffffffffffffffffffffffffffffffffffffffff167f17307eab39ab6107e8899845ad3d59bd9653f200f220920489ca2b5937696c3183604051610f7e9190613bbb565b60405180910390a35050565b7f9f2df0fed2c77648de5860a4cc508cd0818c85b8b8a1ab4ceeef8d981c8956a681565b610fb782610755565b610fc881610fc36113fd565b611405565b610fd283836118fd565b505050565b7f65d7a28e3265b37a6474929f336521b332c1681b933f6cb9f3376673440d862a81565b6000600160008473ffffffffffffffffffffffffffffffffffffffff1673ffffffffffffffffffffffffffffffffffffffff16815260200190815260200160002060008373ffffffffffffffffffffffffffffffffffffffff1673ffffffffffffffffffffffffffffffffffffffff16815260200190815260200160002060009054906101000a900460ff16905092915050565b7f9f2df0fed2c77648de5860a4cc508cd0818c85b8b8a1ab4ceeef8d981c8956a66110c1816110bc6113fd565b611405565b8151835114611105576040517f08c379a00000000000000000000000000000000000000000000000000000000081526004016110fc90613c33565b60405180910390fd5b60005b83518110156111fa5782818151811061114a577f4e487b7100000000000000000000000000000000000000000000000000000000600052603260045260246000fd5b60200260200101516005600086848151811061118f577f4e487b7100000000000000000000000000000000000000000000000000000000600052603260045260246000fd5b602002602001015173ffffffffffffffffffffffffffffffffffffffff1673ffffffffffffffffffffffffffffffffffffffff16815260200190815260200160002060008282546111e09190614012565b9250508190555080806111f29061420f565b915050611108565b50505050565b7f9f2df0fed2c77648de5860a4cc508cd0818c85b8b8a1ab4ceeef8d981c8956a66112328161122d6113fd565b611405565b61123e85858585611a81565b5050505050565b61124d6113fd565b73ffffffffffffffffffffffffffffffffffffffff168573ffffffffffffffffffffffffffffffffffffffff16148061129357506112928561128d6113fd565b610ffb565b5b6112d2576040517f08c379a00000000000000000000000000000000000000000000000000000000081526004016112c990613cf3565b60405180910390fd5b6112df8585858585611fb7565b5050505050565b6112ee6113fd565b73ffffffffffffffffffffffffffffffffffffffff168373ffffffffffffffffffffffffffffffffffffffff16148061133457506113338361132e6113fd565b610ffb565b5b611373576040517f08c379a000000000000000000000000000000000000000000000000000000000815260040161136a90613cf3565b60405180910390fd5b61137e838383612239565b505050565b60007f7965db0b000000000000000000000000000000000000000000000000000000007bffffffffffffffffffffffffffffffffffffffffffffffffffffffff1916827bffffffffffffffffffffffffffffffffffffffffffffffffffffffff191614806113f657506113f582612456565b5b9050919050565b600033905090565b61140f8282610d97565b61149e576114348173ffffffffffffffffffffffffffffffffffffffff166014612538565b6114428360001c6020612538565b604051602001611453929190613a4b565b6040516020818303038152906040526040517f08c379a00000000000000000000000000000000000000000000000000000000081526004016114959190613bf1565b60405180910390fd5b5050565b80600290805190602001906114b8929190612da9565b5050565b8151835114611500576040517f08c379a00000000000000000000000000000000000000000000000000000000081526004016114f790613df3565b60405180910390fd5b600073ffffffffffffffffffffffffffffffffffffffff168473ffffffffffffffffffffffffffffffffffffffff161415611570576040517f08c379a000000000000000000000000000000000000000000000000000000000815260040161156790613d33565b60405180910390fd5b600061157a6113fd565b905061158a818787878787612832565b60005b84518110156117875760008582815181106115d1577f4e487b7100000000000000000000000000000000000000000000000000000000600052603260045260246000fd5b602002602001015190506000858381518110611616577f4e487b7100000000000000000000000000000000000000000000000000000000600052603260045260246000fd5b60200260200101519050600080600084815260200190815260200160002060008b73ffffffffffffffffffffffffffffffffffffffff1673ffffffffffffffffffffffffffffffffffffffff168152602001908152602001600020549050818110156116b7576040517f08c379a00000000000000000000000000000000000000000000000000000000081526004016116ae90613d93565b60405180910390fd5b81810360008085815260200190815260200160002060008c73ffffffffffffffffffffffffffffffffffffffff1673ffffffffffffffffffffffffffffffffffffffff168152602001908152602001600020819055508160008085815260200190815260200160002060008b73ffffffffffffffffffffffffffffffffffffffff1673ffffffffffffffffffffffffffffffffffffffff168152602001908152602001600020600082825461176c9190614012565b92505081905550505050806117809061420f565b905061158d565b508473ffffffffffffffffffffffffffffffffffffffff168673ffffffffffffffffffffffffffffffffffffffff168273ffffffffffffffffffffffffffffffffffffffff167f4a39dc06d4c0dbc64b70af90fd698a233a518aa5d07e595d983b8c0526c8f7fb87876040516117fe929190613b84565b60405180910390a4611814818787878787612890565b505050505050565b6118268282610d97565b6118f95760016003600084815260200190815260200160002060000160008373ffffffffffffffffffffffffffffffffffffffff1673ffffffffffffffffffffffffffffffffffffffff16815260200190815260200160002060006101000a81548160ff02191690831515021790555061189e6113fd565b73ffffffffffffffffffffffffffffffffffffffff168173ffffffffffffffffffffffffffffffffffffffff16837f2f8788117e7eff1d82e926ec794901d17c78024a50270940304540a733656f0d60405160405180910390a45b5050565b6119078282610d97565b156119db5760006003600084815260200190815260200160002060000160008373ffffffffffffffffffffffffffffffffffffffff1673ffffffffffffffffffffffffffffffffffffffff16815260200190815260200160002060006101000a81548160ff0219169083151502179055506119806113fd565b73ffffffffffffffffffffffffffffffffffffffff168173ffffffffffffffffffffffffffffffffffffffff16837ff6391f5c32d9c69d2a47ea670b442974b53935d1edc7fd64eb21e047a839171b60405160405180910390a45b5050565b6119e7610b8b565b611a26576040517f08c379a0000000000000000000000000000000000000000000000000000000008152600401611a1d90613c93565b60405180910390fd5b6000600460006101000a81548160ff0219169083151502179055507f5db9ee0a495bf2e6ff9c91a7834c1ba4fdd244a5e8aa4e537bd38aeae4b073aa611a6a6113fd565b604051611a779190613a85565b60405180910390a1565b600073ffffffffffffffffffffffffffffffffffffffff168473ffffffffffffffffffffffffffffffffffffffff161415611af1576040517f08c379a0000000000000000000000000000000000000000000000000000000008152600401611ae890613e13565b60405180910390fd5b6000611afb6113fd565b9050611b1c81600087611b0d88612a77565b611b1688612a77565b87612832565b8260008086815260200190815260200160002060008773ffffffffffffffffffffffffffffffffffffffff1673ffffffffffffffffffffffffffffffffffffffff1681526020019081526020016000206000828254611b7b9190614012565b925050819055508473ffffffffffffffffffffffffffffffffffffffff16600073ffffffffffffffffffffffffffffffffffffffff168273ffffffffffffffffffffffffffffffffffffffff167fc3d58168c5ae7397731d063d5bbf3d657854427343f4c083240f7aacaa2d0f628787604051611bf9929190613e8e565b60405180910390a4611c1081600087878787612b3d565b5050505050565b600073ffffffffffffffffffffffffffffffffffffffff168373ffffffffffffffffffffffffffffffffffffffff161415611c87576040517f08c379a0000000000000000000000000000000000000000000000000000000008152600401611c7e90613d73565b60405180910390fd5b8051825114611ccb576040517f08c379a0000000000000000000000000000000000000000000000000000000008152600401611cc290613df3565b60405180910390fd5b6000611cd56113fd565b9050611cf581856000868660405180602001604052806000815250612832565b60005b8351811015611e8e576000848281518110611d3c577f4e487b7100000000000000000000000000000000000000000000000000000000600052603260045260246000fd5b602002602001015190506000848381518110611d81577f4e487b7100000000000000000000000000000000000000000000000000000000600052603260045260246000fd5b60200260200101519050600080600084815260200190815260200160002060008973ffffffffffffffffffffffffffffffffffffffff1673ffffffffffffffffffffffffffffffffffffffff16815260200190815260200160002054905081811015611e22576040517f08c379a0000000000000000000000000000000000000000000000000000000008152600401611e1990613cd3565b60405180910390fd5b81810360008085815260200190815260200160002060008a73ffffffffffffffffffffffffffffffffffffffff1673ffffffffffffffffffffffffffffffffffffffff168152602001908152602001600020819055505050508080611e869061420f565b915050611cf8565b50600073ffffffffffffffffffffffffffffffffffffffff168473ffffffffffffffffffffffffffffffffffffffff168273ffffffffffffffffffffffffffffffffffffffff167f4a39dc06d4c0dbc64b70af90fd698a233a518aa5d07e595d983b8c0526c8f7fb8686604051611f06929190613b84565b60405180910390a450505050565b611f1c610b8b565b15611f5c576040517f08c379a0000000000000000000000000000000000000000000000000000000008152600401611f5390613d13565b60405180910390fd5b6001600460006101000a81548160ff0219169083151502179055507f62e78cea01bee320cd4e420270b5ea74000d11b0c9f74754ebdbfc544b05a258611fa06113fd565b604051611fad9190613a85565b60405180910390a1565b600073ffffffffffffffffffffffffffffffffffffffff168473ffffffffffffffffffffffffffffffffffffffff161415612027576040517f08c379a000000000000000000000000000000000000000000000000000000000815260040161201e90613d33565b60405180910390fd5b60006120316113fd565b905061205181878761204288612a77565b61204b88612a77565b87612832565b600080600086815260200190815260200160002060008873ffffffffffffffffffffffffffffffffffffffff1673ffffffffffffffffffffffffffffffffffffffff168152602001908152602001600020549050838110156120e8576040517f08c379a00000000000000000000000000000000000000000000000000000000081526004016120df90613d93565b60405180910390fd5b83810360008087815260200190815260200160002060008973ffffffffffffffffffffffffffffffffffffffff1673ffffffffffffffffffffffffffffffffffffffff168152602001908152602001600020819055508360008087815260200190815260200160002060008873ffffffffffffffffffffffffffffffffffffffff1673ffffffffffffffffffffffffffffffffffffffff168152602001908152602001600020600082825461219d9190614012565b925050819055508573ffffffffffffffffffffffffffffffffffffffff168773ffffffffffffffffffffffffffffffffffffffff168373ffffffffffffffffffffffffffffffffffffffff167fc3d58168c5ae7397731d063d5bbf3d657854427343f4c083240f7aacaa2d0f62888860405161221a929190613e8e565b60405180910390a4612230828888888888612b3d565b50505050505050565b600073ffffffffffffffffffffffffffffffffffffffff168373ffffffffffffffffffffffffffffffffffffffff1614156122a9576040517f08c379a00000000000000000000000000000000000000000000000000000000081526004016122a090613d73565b60405180910390fd5b60006122b36113fd565b90506122e3818560006122c587612a77565b6122ce87612a77565b60405180602001604052806000815250612832565b600080600085815260200190815260200160002060008673ffffffffffffffffffffffffffffffffffffffff1673ffffffffffffffffffffffffffffffffffffffff1681526020019081526020016000205490508281101561237a576040517f08c379a000000000000000000000000000000000000000000000000000000000815260040161237190613cd3565b60405180910390fd5b82810360008086815260200190815260200160002060008773ffffffffffffffffffffffffffffffffffffffff1673ffffffffffffffffffffffffffffffffffffffff16815260200190815260200160002081905550600073ffffffffffffffffffffffffffffffffffffffff168573ffffffffffffffffffffffffffffffffffffffff168373ffffffffffffffffffffffffffffffffffffffff167fc3d58168c5ae7397731d063d5bbf3d657854427343f4c083240f7aacaa2d0f628787604051612447929190613e8e565b60405180910390a45050505050565b60007fd9b67a26000000000000000000000000000000000000000000000000000000007bffffffffffffffffffffffffffffffffffffffffffffffffffffffff1916827bffffffffffffffffffffffffffffffffffffffffffffffffffffffff1916148061252157507f0e89341c000000000000000000000000000000000000000000000000000000007bffffffffffffffffffffffffffffffffffffffffffffffffffffffff1916827bffffffffffffffffffffffffffffffffffffffffffffffffffffffff1916145b80612531575061253082612d24565b5b9050919050565b60606000600283600261254b9190614068565b6125559190614012565b67ffffffffffffffff811115612594577f4e487b7100000000000000000000000000000000000000000000000000000000600052604160045260246000fd5b6040519080825280601f01601f1916602001820160405280156125c65781602001600182028036833780820191505090505b5090507f300000000000000000000000000000000000000000000000000000000000000081600081518110612624577f4e487b7100000000000000000000000000000000000000000000000000000000600052603260045260246000fd5b60200101907effffffffffffffffffffffffffffffffffffffffffffffffffffffffffffff1916908160001a9053507f7800000000000000000000000000000000000000000000000000000000000000816001815181106126ae577f4e487b7100000000000000000000000000000000000000000000000000000000600052603260045260246000fd5b60200101907effffffffffffffffffffffffffffffffffffffffffffffffffffffffffffff1916908160001a905350600060018460026126ee9190614068565b6126f89190614012565b90505b60018111156127e4577f3031323334353637383961626364656600000000000000000000000000000000600f861660108110612760577f4e487b7100000000000000000000000000000000000000000000000000000000600052603260045260246000fd5b1a60f81b82828151811061279d577f4e487b7100000000000000000000000000000000000000000000000000000000600052603260045260246000fd5b60200101907effffffffffffffffffffffffffffffffffffffffffffffffffffffffffffff1916908160001a905350600485901c9450806127dd90614182565b90506126fb565b5060008414612828576040517f08c379a000000000000000000000000000000000000000000000000000000000815260040161281f90613c53565b60405180910390fd5b8091505092915050565b61283a610b8b565b1561287a576040517f08c379a000000000000000000000000000000000000000000000000000000000815260040161287190613d13565b60405180910390fd5b612888868686868686612d8e565b505050505050565b6128af8473ffffffffffffffffffffffffffffffffffffffff16612d96565b15612a6f578373ffffffffffffffffffffffffffffffffffffffff1663bc197c8187878686866040518663ffffffff1660e01b81526004016128f5959493929190613aa0565b602060405180830381600087803b15801561290f57600080fd5b505af192505050801561294057506040513d601f19601f8201168201806040525081019061293d9190613575565b60015b6129e65761294c6142e5565b806308c379a014156129a957506129616148bc565b8061296c57506129ab565b806040517f08c379a00000000000000000000000000000000000000000000000000000000081526004016129a09190613bf1565b60405180910390fd5b505b6040517f08c379a00000000000000000000000000000000000000000000000000000000081526004016129dd90613c13565b60405180910390fd5b63bc197c8160e01b7bffffffffffffffffffffffffffffffffffffffffffffffffffffffff1916817bffffffffffffffffffffffffffffffffffffffffffffffffffffffff191614612a6d576040517f08c379a0000000000000000000000000000000000000000000000000000000008152600401612a6490613c73565b60405180910390fd5b505b505050505050565b60606000600167ffffffffffffffff811115612abc577f4e487b7100000000000000000000000000000000000000000000000000000000600052604160045260246000fd5b604051908082528060200260200182016040528015612aea5781602001602082028036833780820191505090505b5090508281600081518110612b28577f4e487b7100000000000000000000000000000000000000000000000000000000600052603260045260246000fd5b60200260200101818152505080915050919050565b612b5c8473ffffffffffffffffffffffffffffffffffffffff16612d96565b15612d1c578373ffffffffffffffffffffffffffffffffffffffff1663f23a6e6187878686866040518663ffffffff1660e01b8152600401612ba2959493929190613b08565b602060405180830381600087803b158015612bbc57600080fd5b505af1925050508015612bed57506040513d601f19601f82011682018060405250810190612bea9190613575565b60015b612c9357612bf96142e5565b806308c379a01415612c565750612c0e6148bc565b80612c195750612c58565b806040517f08c379a0000000000000000000000000000000000000000000000000000000008152600401612c4d9190613bf1565b60405180910390fd5b505b6040517f08c379a0000000000000000000000000000000000000000000000000000000008152600401612c8a90613c13565b60405180910390fd5b63f23a6e6160e01b7bffffffffffffffffffffffffffffffffffffffffffffffffffffffff1916817bffffffffffffffffffffffffffffffffffffffffffffffffffffffff191614612d1a576040517f08c379a0000000000000000000000000000000000000000000000000000000008152600401612d1190613c73565b60405180910390fd5b505b505050505050565b60007f01ffc9a7000000000000000000000000000000000000000000000000000000007bffffffffffffffffffffffffffffffffffffffffffffffffffffffff1916827bffffffffffffffffffffffffffffffffffffffffffffffffffffffff1916149050919050565b505050505050565b600080823b905060008111915050919050565b828054612db5906141ac565b90600052602060002090601f016020900481019282612dd75760008555612e1e565b82601f10612df057805160ff1916838001178555612e1e565b82800160010185558215612e1e579182015b82811115612e1d578251825591602001919060010190612e02565b5b509050612e2b9190612e2f565b5090565b5b80821115612e48576000816000905550600101612e30565b5090565b6000612e5f612e5a84613edc565b613eb7565b90508083825260208201905082856020860282011115612e7e57600080fd5b60005b85811015612eae5781612e948882612fa0565b845260208401935060208301925050600181019050612e81565b5050509392505050565b6000612ecb612ec684613f08565b613eb7565b90508083825260208201905082856020860282011115612eea57600080fd5b60005b85811015612f1a5781612f0088826130b1565b845260208401935060208301925050600181019050612eed565b5050509392505050565b6000612f37612f3284613f34565b613eb7565b905082815260208101848484011115612f4f57600080fd5b612f5a848285614140565b509392505050565b6000612f75612f7084613f65565b613eb7565b905082815260208101848484011115612f8d57600080fd5b612f98848285614140565b509392505050565b600081359050612faf81614952565b92915050565b600082601f830112612fc657600080fd5b8135612fd6848260208601612e4c565b91505092915050565b600082601f830112612ff057600080fd5b8135613000848260208601612eb8565b91505092915050565b60008135905061301881614969565b92915050565b60008135905061302d81614980565b92915050565b60008135905061304281614997565b92915050565b60008151905061305781614997565b92915050565b600082601f83011261306e57600080fd5b813561307e848260208601612f24565b91505092915050565b600082601f83011261309857600080fd5b81356130a8848260208601612f62565b91505092915050565b6000813590506130c0816149ae565b92915050565b6000602082840312156130d857600080fd5b60006130e684828501612fa0565b91505092915050565b6000806040838503121561310257600080fd5b600061311085828601612fa0565b925050602061312185828601612fa0565b9150509250929050565b600080600080600060a0868803121561314357600080fd5b600061315188828901612fa0565b955050602061316288828901612fa0565b945050604086013567ffffffffffffffff81111561317f57600080fd5b61318b88828901612fdf565b935050606086013567ffffffffffffffff8111156131a857600080fd5b6131b488828901612fdf565b925050608086013567ffffffffffffffff8111156131d157600080fd5b6131dd8882890161305d565b9150509295509295909350565b600080600080600060a0868803121561320257600080fd5b600061321088828901612fa0565b955050602061322188828901612fa0565b9450506040613232888289016130b1565b9350506060613243888289016130b1565b925050608086013567ffffffffffffffff81111561326057600080fd5b61326c8882890161305d565b9150509295509295909350565b60008060006060848603121561328e57600080fd5b600061329c86828701612fa0565b935050602084013567ffffffffffffffff8111156132b957600080fd5b6132c586828701612fdf565b925050604084013567ffffffffffffffff8111156132e257600080fd5b6132ee86828701612fdf565b9150509250925092565b6000806040838503121561330b57600080fd5b600061331985828601612fa0565b925050602061332a85828601613009565b9150509250929050565b6000806040838503121561334757600080fd5b600061335585828601612fa0565b9250506020613366858286016130b1565b9150509250929050565b60008060006060848603121561338557600080fd5b600061339386828701612fa0565b93505060206133a4868287016130b1565b92505060406133b5868287016130b1565b9150509250925092565b600080600080608085870312156133d557600080fd5b60006133e387828801612fa0565b94505060206133f4878288016130b1565b9350506040613405878288016130b1565b925050606085013567ffffffffffffffff81111561342257600080fd5b61342e8782880161305d565b91505092959194509250565b60006020828403121561344c57600080fd5b600082013567ffffffffffffffff81111561346657600080fd5b61347284828501612fb5565b91505092915050565b6000806040838503121561348e57600080fd5b600083013567ffffffffffffffff8111156134a857600080fd5b6134b485828601612fb5565b925050602083013567ffffffffffffffff8111156134d157600080fd5b6134dd85828601612fdf565b9150509250929050565b6000602082840312156134f957600080fd5b60006135078482850161301e565b91505092915050565b6000806040838503121561352357600080fd5b60006135318582860161301e565b925050602061354285828601612fa0565b9150509250929050565b60006020828403121561355e57600080fd5b600061356c84828501613033565b91505092915050565b60006020828403121561358757600080fd5b600061359584828501613048565b91505092915050565b6000602082840312156135b057600080fd5b600082013567ffffffffffffffff8111156135ca57600080fd5b6135d684828501613087565b91505092915050565b6000602082840312156135f157600080fd5b60006135ff848285016130b1565b91505092915050565b60006136148383613a2d565b60208301905092915050565b613629816140c2565b82525050565b600061363a82613fa6565b6136448185613fd4565b935061364f83613f96565b8060005b838110156136805781516136678882613608565b975061367283613fc7565b925050600181019050613653565b5085935050505092915050565b613696816140d4565b82525050565b6136a5816140e0565b82525050565b60006136b682613fb1565b6136c08185613fe5565b93506136d081856020860161414f565b6136d981614307565b840191505092915050565b60006136ef82613fbc565b6136f98185613ff6565b935061370981856020860161414f565b61371281614307565b840191505092915050565b600061372882613fbc565b6137328185614007565b935061374281856020860161414f565b80840191505092915050565b600061375b603483613ff6565b915061376682614325565b604082019050919050565b600061377e603283613ff6565b915061378982614374565b604082019050919050565b60006137a1602083613ff6565b91506137ac826143c3565b602082019050919050565b60006137c4602883613ff6565b91506137cf826143ec565b604082019050919050565b60006137e7601483613ff6565b91506137f28261443b565b602082019050919050565b600061380a602b83613ff6565b915061381582614464565b604082019050919050565b600061382d602483613ff6565b9150613838826144b3565b604082019050919050565b6000613850602983613ff6565b915061385b82614502565b604082019050919050565b6000613873601083613ff6565b915061387e82614551565b602082019050919050565b6000613896602583613ff6565b91506138a18261457a565b604082019050919050565b60006138b9603283613ff6565b91506138c4826145c9565b604082019050919050565b60006138dc602383613ff6565b91506138e782614618565b604082019050919050565b60006138ff602a83613ff6565b915061390a82614667565b604082019050919050565b6000613922601783614007565b915061392d826146b6565b601782019050919050565b6000613945602983613ff6565b9150613950826146df565b604082019050919050565b6000613968602983613ff6565b91506139738261472e565b604082019050919050565b600061398b602883613ff6565b91506139968261477d565b604082019050919050565b60006139ae602183613ff6565b91506139b9826147cc565b604082019050919050565b60006139d1601783613ff6565b91506139dc8261481b565b602082019050919050565b60006139f4601183614007565b91506139ff82614844565b601182019050919050565b6000613a17602f83613ff6565b9150613a228261486d565b604082019050919050565b613a3681614136565b82525050565b613a4581614136565b82525050565b6000613a5682613915565b9150613a62828561371d565b9150613a6d826139e7565b9150613a79828461371d565b91508190509392505050565b6000602082019050613a9a6000830184613620565b92915050565b600060a082019050613ab56000830188613620565b613ac26020830187613620565b8181036040830152613ad4818661362f565b90508181036060830152613ae8818561362f565b90508181036080830152613afc81846136ab565b90509695505050505050565b600060a082019050613b1d6000830188613620565b613b2a6020830187613620565b613b376040830186613a3c565b613b446060830185613a3c565b8181036080830152613b5681846136ab565b90509695505050505050565b60006020820190508181036000830152613b7c818461362f565b905092915050565b60006040820190508181036000830152613b9e818561362f565b90508181036020830152613bb2818461362f565b90509392505050565b6000602082019050613bd0600083018461368d565b92915050565b6000602082019050613beb600083018461369c565b92915050565b60006020820190508181036000830152613c0b81846136e4565b905092915050565b60006020820190508181036000830152613c2c8161374e565b9050919050565b60006020820190508181036000830152613c4c81613771565b9050919050565b60006020820190508181036000830152613c6c81613794565b9050919050565b60006020820190508181036000830152613c8c816137b7565b9050919050565b60006020820190508181036000830152613cac816137da565b9050919050565b60006020820190508181036000830152613ccc816137fd565b9050919050565b60006020820190508181036000830152613cec81613820565b9050919050565b60006020820190508181036000830152613d0c81613843565b9050919050565b60006020820190508181036000830152613d2c81613866565b9050919050565b60006020820190508181036000830152613d4c81613889565b9050919050565b60006020820190508181036000830152613d6c816138ac565b9050919050565b60006020820190508181036000830152613d8c816138cf565b9050919050565b60006020820190508181036000830152613dac816138f2565b9050919050565b60006020820190508181036000830152613dcc81613938565b9050919050565b60006020820190508181036000830152613dec8161395b565b9050919050565b60006020820190508181036000830152613e0c8161397e565b9050919050565b60006020820190508181036000830152613e2c816139a1565b9050919050565b60006020820190508181036000830152613e4c816139c4565b9050919050565b60006020820190508181036000830152613e6c81613a0a565b9050919050565b6000602082019050613e886000830184613a3c565b92915050565b6000604082019050613ea36000830185613a3c565b613eb06020830184613a3c565b9392505050565b6000613ec1613ed2565b9050613ecd82826141de565b919050565b6000604051905090565b600067ffffffffffffffff821115613ef757613ef66142b6565b5b602082029050602081019050919050565b600067ffffffffffffffff821115613f2357613f226142b6565b5b602082029050602081019050919050565b600067ffffffffffffffff821115613f4f57613f4e6142b6565b5b613f5882614307565b9050602081019050919050565b600067ffffffffffffffff821115613f8057613f7f6142b6565b5b613f8982614307565b9050602081019050919050565b6000819050602082019050919050565b600081519050919050565b600081519050919050565b600081519050919050565b6000602082019050919050565b600082825260208201905092915050565b600082825260208201905092915050565b600082825260208201905092915050565b600081905092915050565b600061401d82614136565b915061402883614136565b9250827fffffffffffffffffffffffffffffffffffffffffffffffffffffffffffffffff0382111561405d5761405c614258565b5b828201905092915050565b600061407382614136565b915061407e83614136565b9250817fffffffffffffffffffffffffffffffffffffffffffffffffffffffffffffffff04831182151516156140b7576140b6614258565b5b828202905092915050565b60006140cd82614116565b9050919050565b60008115159050919050565b6000819050919050565b60007fffffffff0000000000000000000000000000000000000000000000000000000082169050919050565b600073ffffffffffffffffffffffffffffffffffffffff82169050919050565b6000819050919050565b82818337600083830152505050565b60005b8381101561416d578082015181840152602081019050614152565b8381111561417c576000848401525b50505050565b600061418d82614136565b915060008214156141a1576141a0614258565b5b600182039050919050565b600060028204905060018216806141c457607f821691505b602082108114156141d8576141d7614287565b5b50919050565b6141e782614307565b810181811067ffffffffffffffff82111715614206576142056142b6565b5b80604052505050565b600061421a82614136565b91507fffffffffffffffffffffffffffffffffffffffffffffffffffffffffffffffff82141561424d5761424c614258565b5b600182019050919050565b7f4e487b7100000000000000000000000000000000000000000000000000000000600052601160045260246000fd5b7f4e487b7100000000000000000000000000000000000000000000000000000000600052602260045260246000fd5b7f4e487b7100000000000000000000000000000000000000000000000000000000600052604160045260246000fd5b600060033d11156143045760046000803e614301600051614318565b90505b90565b6000601f19601f8301169050919050565b60008160e01c9050919050565b7f455243313135353a207472616e7366657220746f206e6f6e204552433131353560008201527f526563656976657220696d706c656d656e746572000000000000000000000000602082015250565b7f496e707574206572726f72202d206163636f756e747320616e6420616d6f756e60008201527f7473206c656e677468206d69736d617463680000000000000000000000000000602082015250565b7f537472696e67733a20686578206c656e67746820696e73756666696369656e74600082015250565b7f455243313135353a204552433131353552656365697665722072656a6563746560008201527f6420746f6b656e73000000000000000000000000000000000000000000000000602082015250565b7f5061757361626c653a206e6f7420706175736564000000000000000000000000600082015250565b7f455243313135353a2062616c616e636520717565727920666f7220746865207a60008201527f65726f2061646472657373000000000000000000000000000000000000000000602082015250565b7f455243313135353a206275726e20616d6f756e7420657863656564732062616c60008201527f616e636500000000000000000000000000000000000000000000000000000000602082015250565b7f455243313135353a2063616c6c6572206973206e6f74206f776e6572206e6f7260008201527f20617070726f7665640000000000000000000000000000000000000000000000602082015250565b7f5061757361626c653a2070617573656400000000000000000000000000000000600082015250565b7f455243313135353a207472616e7366657220746f20746865207a65726f20616460008201527f6472657373000000000000000000000000000000000000000000000000000000602082015250565b7f455243313135353a207472616e736665722063616c6c6572206973206e6f742060008201527f6f776e6572206e6f7220617070726f7665640000000000000000000000000000602082015250565b7f455243313135353a206275726e2066726f6d20746865207a65726f206164647260008201527f6573730000000000000000000000000000000000000000000000000000000000602082015250565b7f455243313135353a20696e73756666696369656e742062616c616e636520666f60008201527f72207472616e7366657200000000000000000000000000000000000000000000602082015250565b7f416363657373436f6e74726f6c3a206163636f756e7420000000000000000000600082015250565b7f455243313135353a2073657474696e6720617070726f76616c2073746174757360008201527f20666f722073656c660000000000000000000000000000000000000000000000602082015250565b7f455243313135353a206163636f756e747320616e6420696473206c656e67746860008201527f206d69736d617463680000000000000000000000000000000000000000000000602082015250565b7f455243313135353a2069647320616e6420616d6f756e7473206c656e6774682060008201527f6d69736d61746368000000000000000000000000000000000000000000000000602082015250565b7f455243313135353a206d696e7420746f20746865207a65726f2061646472657360008201527f7300000000000000000000000000000000000000000000000000000000000000602082015250565b7f4e6f20617661696c61626c6520696e7669746174696f6e000000000000000000600082015250565b7f206973206d697373696e6720726f6c6520000000000000000000000000000000600082015250565b7f416363657373436f6e74726f6c3a2063616e206f6e6c792072656e6f756e636560008201527f20726f6c657320666f722073656c660000000000000000000000000000000000602082015250565b600060443d10156148cc5761494f565b6148d4613ed2565b60043d036004823e80513d602482011167ffffffffffffffff821117156148fc57505061494f565b808201805167ffffffffffffffff81111561491a575050505061494f565b80602083010160043d03850181111561493757505050505061494f565b614946826020018501866141de565b82955050505050505b90565b61495b816140c2565b811461496657600080fd5b50565b614972816140d4565b811461497d57600080fd5b50565b614989816140e0565b811461499457600080fd5b50565b6149a0816140ea565b81146149ab57600080fd5b50565b6149b781614136565b81146149c257600080fd5b5056fea2646970667358221220905d35934b3e54b50e055b29c8dafbe368ef3074ffaf1307c3eca92eccc3692064736f6c63430008020033697066733a2f2f516d576f6142706d756e5673564d715658426f7336326632595454545634563945453263667656614c33614e5252",
  "linkReferences": {},
  "deployedLinkReferences": {}
}