{
  "_format": "hh-sol-artifact-1",
  "contractName": "VerifySignature",
  "sourceName": "contracts/VerifySignature.sol",
  "abi": [
    {
      "inputs": [
        {
          "internalType": "bytes32",
          "name": "_messageHash",
          "type": "bytes32"
        }
      ],
      "name": "getEthSignedMessageHash",
      "outputs": [
        {
          "internalType": "bytes32",
          "name": "",
          "type": "bytes32"
        }
      ],
      "stateMutability": "pure",
      "type": "function"
    },
    {
      "inputs": [
        {
          "internalType": "address",
          "name": "_to",
          "type": "address"
        }
      ],
      "name": "getMessageHash",
      "outputs": [
        {
          "internalType": "bytes32",
          "name": "",
          "type": "bytes32"
        }
      ],
      "stateMutability": "pure",
      "type": "function"
    },
    {
      "inputs": [
        {
          "internalType": "bytes32",
          "name": "_ethSignedMessageHash",
          "type": "bytes32"
        },
        {
          "internalType": "bytes",
          "name": "_signature",
          "type": "bytes"
        }
      ],
      "name": "recoverSigner",
      "outputs": [
        {
          "internalType": "address",
          "name": "",
          "type": "address"
        }
      ],
      "stateMutability": "pure",
      "type": "function"
    },
    {
      "inputs": [
        {
          "internalType": "bytes",
          "name": "sig",
          "type": "bytes"
        }
      ],
      "name": "splitSignature",
      "outputs": [
        {
          "internalType": "bytes32",
          "name": "r",
          "type": "bytes32"
        },
        {
          "internalType": "bytes32",
          "name": "s",
          "type": "bytes32"
        },
        {
          "internalType": "uint8",
          "name": "v",
          "type": "uint8"
        }
      ],
      "stateMutability": "pure",
      "type": "function"
    },
    {
      "inputs": [
        {
          "internalType": "address",
          "name": "_signer",
          "type": "address"
        },
        {
          "internalType": "address",
          "name": "_to",
          "type": "address"
        },
        {
          "internalType": "bytes",
          "name": "signature",
          "type": "bytes"
        }
      ],
      "name": "verify",
      "outputs": [
        {
          "internalType": "bool",
          "name": "",
          "type": "bool"
        }
      ],
      "stateMutability": "pure",
      "type": "function"
    }
  ],
  "bytecode": "0x608060405234801561001057600080fd5b5061088a806100206000396000f3fe608060405234801561001057600080fd5b50600436106100575760003560e01c80631f5ac1b21461005c57806342920a461461008c57806397aba7f9146100bc578063a7bb5803146100ec578063fa5408011461011e575b600080fd5b61007660048036038101906100719190610375565b61014e565b6040516100839190610624565b60405180910390f35b6100a660048036038101906100a1919061039e565b61017e565b6040516100b39190610609565b60405180910390f35b6100d660048036038101906100d1919061042e565b6101dc565b6040516100e391906105ee565b60405180910390f35b61010660048036038101906101019190610482565b61024b565b6040516101159392919061063f565b60405180910390f35b61013860048036038101906101339190610405565b6102b3565b6040516101459190610624565b60405180910390f35b60008160405160200161016191906105ad565b604051602081830303815290604052805190602001209050919050565b60008061018a8461014e565b90506000610197826102b3565b90508573ffffffffffffffffffffffffffffffffffffffff166101ba82866101dc565b73ffffffffffffffffffffffffffffffffffffffff1614925050509392505050565b6000806000806101eb8561024b565b925092509250600186828585604051600081526020016040526040516102149493929190610676565b6020604051602081039080840390855afa158015610236573d6000803e3d6000fd5b50505060206040510351935050505092915050565b60008060006041845114610294576040517f08c379a000000000000000000000000000000000000000000000000000000000815260040161028b906106bb565b60405180910390fd5b6020840151925060408401519150606084015160001a90509193909250565b6000816040516020016102c691906105c8565b604051602081830303815290604052805190602001209050919050565b60006102f66102f18461070c565b6106db565b90508281526020810184848401111561030e57600080fd5b6103198482856107ad565b509392505050565b60008135905061033081610826565b92915050565b6000813590506103458161083d565b92915050565b600082601f83011261035c57600080fd5b813561036c8482602086016102e3565b91505092915050565b60006020828403121561038757600080fd5b600061039584828501610321565b91505092915050565b6000806000606084860312156103b357600080fd5b60006103c186828701610321565b93505060206103d286828701610321565b925050604084013567ffffffffffffffff8111156103ef57600080fd5b6103fb8682870161034b565b9150509250925092565b60006020828403121561041757600080fd5b600061042584828501610336565b91505092915050565b6000806040838503121561044157600080fd5b600061044f85828601610336565b925050602083013567ffffffffffffffff81111561046c57600080fd5b6104788582860161034b565b9150509250929050565b60006020828403121561049457600080fd5b600082013567ffffffffffffffff8111156104ae57600080fd5b6104ba8482850161034b565b91505092915050565b6104cc81610758565b82525050565b6104e36104de82610758565b6107bc565b82525050565b6104f28161076a565b82525050565b61050181610776565b82525050565b61051861051382610776565b6107ce565b82525050565b600061052b601c8361074d565b91507f19457468657265756d205369676e6564204d6573736167653a0a3332000000006000830152601c82019050919050565b600061056b60188361073c565b91507f696e76616c6964207369676e6174757265206c656e67746800000000000000006000830152602082019050919050565b6105a7816107a0565b82525050565b60006105b982846104d2565b60148201915081905092915050565b60006105d38261051e565b91506105df8284610507565b60208201915081905092915050565b600060208201905061060360008301846104c3565b92915050565b600060208201905061061e60008301846104e9565b92915050565b600060208201905061063960008301846104f8565b92915050565b600060608201905061065460008301866104f8565b61066160208301856104f8565b61066e604083018461059e565b949350505050565b600060808201905061068b60008301876104f8565b610698602083018661059e565b6106a560408301856104f8565b6106b260608301846104f8565b95945050505050565b600060208201905081810360008301526106d48161055e565b9050919050565b6000604051905081810181811067ffffffffffffffff82111715610702576107016107ea565b5b8060405250919050565b600067ffffffffffffffff821115610727576107266107ea565b5b601f19601f8301169050602081019050919050565b600082825260208201905092915050565b600081905092915050565b600061076382610780565b9050919050565b60008115159050919050565b6000819050919050565b600073ffffffffffffffffffffffffffffffffffffffff82169050919050565b600060ff82169050919050565b82818337600083830152505050565b60006107c7826107d8565b9050919050565b6000819050919050565b60006107e382610819565b9050919050565b7f4e487b7100000000000000000000000000000000000000000000000000000000600052604160045260246000fd5b60008160601b9050919050565b61082f81610758565b811461083a57600080fd5b50565b61084681610776565b811461085157600080fd5b5056fea2646970667358221220011589bac8d5fb523f311ef74e0551c8ab21f8d8d79e799c707e73a17d0f0a0b64736f6c63430008000033",
  "linkReferences": {},
  "deployedLinkReferences": {}
}